:020000040800F2
:10000000B8150020D5000008911900081119000842
:1000100000000000000000000000000000000000E0
:100020000000000000000000000000002B1A000883
:100030000000000000000000291A00082D1A000826
:10004000E7000008E7000008E7000008E7000008F4
:10005000E7000008E70000085102000861020008FC
:10006000E7000008E7000008E7000008E7000008D4
:10007000E7000008E7000008E7000008E7000008C4
:10008000E7000008E7000008E7000008E7000008B4
:10009000E7000008E7000008E7000008E7000008A4
:1000A000E7000008E7000008E7000008E700000894
:1000B000E7000008E7000008E7000008E526000860
:1000C0000348854600F04EF800480047F526000832
:1000D000B81500200448804704480047FEE7FEE7C3
:1000E000FEE7FEE7FEE7FEE7951A0008C1000008FC
:1000F00030B50B46014600202022012409E00D46C0
:10010000D5409D4205D31D469540491B2546954047
:1001100040191546521E002DF1DC30BD03460B433D
:100120009B0703D009E008C9121F08C0042AFAD2AD
:1001300003E00B780370401C491C521EF9D2704733
:10014000D2B201E00270401C491EFBD2704700226F
:10015000F6E710B513460A4604461946FFF7F0FFC6
:10016000204610BD064C0125064E05E0E36807CC8D
:100170002B430C3C98471034B442F7D3FFF7A4FF4D
:10018000582800087828000870B58C180578401C9D
:100190006B075B0F01D10378401C2A1106D102784E
:1001A000401C03E006780E70401C491C5B1EF9D110
:1001B0002B0705D40023521E0DD40B70491CFAE7FF
:1001C0000378401CCB1A921C03E01D780D70491C6B
:1001D0005B1C521EF9D5A142D8D3002070BD00206F
:1001E0007047002070470000B0B5184C0549002545
:1001F00020462A4601F065FD1249204601F059FDCE
:100200002846B0BD8409002070B50446086800285F
:100210000ED00D467D20C1000A4E3046FFF797FFF5
:100220002A6830462146FFF779FF0748012101700F
:10023000064D2846214601F03CFD284601F019FDF7
:10024000002070BD9C0500206C0D0020700D00206A
:1002500080B5042000F01AF8082000F017F880BDDF
:10026000B0B51020074CA0472020A0474020A04751
:100270008020A0470125A802A047E802A047280344
:10028000A047B0BD8D0200087047704780B5044993
:100290000A68024202D00860FFF7F7FF80BDC0463F
:1002A00014040140F0B58AB00F46049055498842C5
:1002B00001D0052100E004211722D20604988018FD
:1002C0000A22D0410090042800D300910020044667
:1002D000064602978FE001250595B5402A40002A81
:1002E00000D185E003920896069407907E6810215D
:1002F00031431229049A10D138461C21069B19401B
:100300000F268E40089BDF08BF00D7193B6AB34316
:1003100006698E401E433E624668032421460798C4
:10032000814013688B4337460194274087401F4321
:100330001760C943122E15D8059BB34033480342BA
:1003400010D0049CA3680B400298C76807988740A8
:100350001F43A760F306DB0F089883406768AF432D
:100360001F436760049CE3680B40029FB9680798CD
:1003700081401943E160F100069C089E039A37D53D
:1003800049490B460968059D2943196019682940A8
:1003900009910C2121400F238B403446019DAC4331
:1003A000099D1B4EA5599D43009B8B402B43164D29
:1003B000A35129687C68E30301D5114300E0914310
:1003C00029606968A303089E01D5114300E09143A9
:1003D0006960A968E30201D5114300E09143A96077
:1003E000E968A30201D5114300E09143069CE9604E
:1003F000801C241D761C3A681146F14000D06AE743
:100400000AB0F0BD001000480004014006000600DC
:1004100008000140002A01D0182200E02822815063
:1004200070470000044800687047C04602480168F1
:10043000491C01607047C046B411002010B5064841
:10044000016810220A4302600024204600F006F8EA
:1004500000F016F8204610BD00200240B0B504465A
:1004600000F0E6FF7D21C900FFF742FE01F036FAF9
:100470000025E84321462A4600F022F82846B0BD70
:1004800082B00948016801221143016001681140EE
:1004900001910199110742680A434260406808408F
:1004A0000090009802B07047181002401F210140D0
:1004B00001208840014908607047C04600E100E023
:1004C00080B501F067FA80BDB0B51C240D0605D5D6
:1004D0007F2529404C430019283004E04C43001983
:1004E0002121C9004018002A05D0C3800121817252
:1004F000190C018102E08380002181720020B0BDCF
:1005000080B58722920083581C224A438018826B50
:10051000184601F050FD80BD80B5872292008358B7
:100520001C224A4380182322D2008258184601F028
:100530009FFD80BDF8B57F220A401C235343C3189A
:100540000C0601D5283302E02124E4001B19CC0954
:100550005C701A703D22D200855C012D01D1022011
:1005600039E082180127177005684806000E41001F
:10057000685A6D189B7A1D49002B0AD00095C44E0D
:10058000F1360640BF4B05461D40002E0BD10346F9
:100590000BE0002C21D04306BA4B02D5184008438B
:1005A0002880303311E0BB482B1840201840002829
:1005B00001D00D432B460643002E00D13746002CB8
:1005C000002F009D00D02B80AE48034040391943D6
:1005D00029800020107001B0F0BD430404D5A94B60
:1005E0001840AC4BC0182880F44BEEE7C0800000E8
:1005F00070B502461C237F2008400C0603D54343F8
:10060000D318283304E04B43D3182124E4001B19EA
:10061000CC095C701870002098703D23DB00D55C1D
:10062000012D01D1022070BDD31801251D70156860
:100630004906090E49006A5A6918002C05D054066B
:10064000904C0D4D0CD416460FE0540404D58D4C3F
:100650002240904C12190A80D84C1440D84D06E024
:1006600022402E46103616430E803034344065400A
:100670000D80187070BDC046B08000007F220A4017
:100680001C215143401809214901405A704700007C
:10069000F0B586B07F260E401C24744304190D0665
:1006A00001D5283402E02125ED006419E260CF096C
:1006B00067702670E37005963D26F600855D012D76
:1006C00001D10220C3E00291009203978219012513
:1006D00004951570032B019212D802997B441B7963
:1006E0005B009F4401121E2700684B061B0E5F0033
:1006F000C25B634E1640049A55027519C55324E037
:10070000006802994B061B0E1FE000684A06130E94
:100710005A00855A5A4E2E40049DAD0275198552D5
:1007200013E000684B061B0E5D00425B544E164002
:1007300046530AE000684B061B0E5D00465B504ABC
:1007400032400326760292194253059E5A00835A7C
:10075000FD4D2B400B434C491D460D4385528518DA
:10076000A27A002A38D0494A1343702293432B803F
:10077000F2001218049FBB02D218E38829465025C4
:10078000465BFF433B4093532389405B0D46101863
:100790003B408380AB4AF132088802400446EA4974
:1007A0000C40002A01D03B48204340230340002B4B
:1007B000354E03D030464030044320461A43002AC9
:1007C00000D10492039A002A049A002A00D02880BB
:1007D00008400643019A37E0A3880124A34350222E
:1007E000825AF600B21817180399002909D0A002FE
:1007F0003B522A8850061BD41046019AD249224EF9
:100800001EE0A1027A189380891D0E4331185030E2
:100810000088009E3F2E1CD372011F4B1340F2062E
:1008200002D11F2292029B18E2031A4392B214E0F3
:10083000C5490A40144E3046403010432880019A82
:100840003031014020364E402E800020107006B01E
:10085000F0BD344072081219920242522988794838
:100860000246F132114205D0B74A1140094A0A4303
:100870002A8000E00A460240084E5640AAE7C046D9
:100880008F8900000F0F0000808000008081000031
:100890000F3F000080C0FFFF00FC1F0080B0FFFF83
:1008A000F0B585B07F250D401C246C430719092441
:1008B000640100263E512324E4003A51FF220A320B
:1008C000BE542122D200BD5445229200BA589A4209
:1008D0001C4600D31446A41A4726B600BC518924EE
:1008E00064003F5D04685020205AEE0030189A42A0
:1008F00000D31A460319002F13D00291204650301E
:100900001F21890203910127FD033F2A01950493CA
:10091000009717D351098902D50620D0019D039B6A
:1009200020E08B481818031D3F2A12D3500980027B
:10093000D20602D11F229202801882B20120C00387
:1009400010432EE01146394055086918019D89026F
:100950000AE00120104052081018800221E0039B99
:10096000C918019D19402943794B049FD953191D7A
:100970000E430088301803193F2A06D3500980021D
:10098000D10609D00299039A09E000991140500854
:1009900040188002029904E0039A801802991040DE
:1009A000284318804806000E4000215A254A0A4074
:1009B000034951402152002005B0F0BD0F3F000017
:1009C00080B0000070B53D22D200835C012B01D1C4
:1009D000022070BD8218012313701C257F240C4057
:1009E0000E0603D565434619283604E04D434519E4
:1009F0002126F600AE19CD0975703470B370002C45
:100A00000BD000684906090E4B00C15AC018002DD2
:100A10000BD00A4B19400A4B0AE00A4B30330068EE
:100A200001881940094B103302E0064B1940064B70
:100A30004B4003800020107070BDC0463F0F000087
:100A4000908000000F3F0000809000008090FFFF2A
:100A5000F0B585B07F2402910C4001461C20604314
:100A60000F18292001253D5428203C5400203864CB
:100A70000392BA637D6B9D42184600D32846401B03
:100A8000F8639D4200D31D4632203B5C3E4628362B
:100A9000086804912D492E4A002B11D001963E463C
:100AA000293602994906090E4900435A5021415AF4
:100AB000E400611809185B0614D48D522E3714E037
:100AC0001446BA8DABB20F46039900F099FF049813
:100AD00000685021415A09190A183178CB00D552C3
:100AE000194D28E089188D8030373A88ABB20399C8
:100AF00000F086FF307800280CD00128134F019EAB
:100B0000114D15D10498006831788A00835A2B4022
:100B1000104C0AE004980068019909788A00835A09
:100B2000094D2B40094F3C4610341C43845202E0CF
:100B30003178049800688900425A303515407D406C
:100B40004552002005B0F0BD0F0F0000B08000003E
:100B50000204000080C00000F0B58DB004460068BB
:100B60004427C15F0123DA02089200290A9400DBBE
:100B7000BCE100932121C90007916118059121462C
:100B8000243106910BA9002202920A807B21890060
:100B900061180191D349813104910397C15F0CAA77
:100BA0001180002900DBA1E10CA909880F250D4067
:100BB000002D31D0A900425A0BAB1A801A8812B20C
:100BC000002A00DB10E14118C74A80320B8813402D
:100BD0000B801C2169436418079963188921490017
:100BE000615C0029099366D019788A00825AC9008D
:100BF00009185023C35AC918F84BF1331A4200D1CF
:100C0000B3E0F94A8F5AF3490F40002F029E00D1FA
:100C1000BDE087214900B2E00CA90A880188D2060C
:100C200028D4EF4A114001805021415AEE4A8018E1
:100C30004018069D2979C900405AE64908402064B9
:100C4000A16B0818A063002620463146FFF758FC28
:100C50002878002800D132E1E06B002800D02EE196
:100C6000069B187880210143C8B221684C22885223
:100C70001E7024E10BAA11801188089A114232D00B
:100C80005021415AD84A82185118059D2A78D2001D
:100C900089188B88CF490B40AB61AA88019900F075
:100CA00099FECD48803021680A8802400A8020469B
:100CB00000F051FA03E15021415ACB4A82185118F1
:100CC0001A78D20089188E88C2490E40002E00D1B1
:100CD000F7E043218900625A2321C9006158334655
:100CE00000F078FE5FE00BA9098809B2002900DB5B
:100CF000E5E0B949803102880A4002805024015B56
:100D0000B94A82185118059D2A78D20089188B8813
:100D1000B0490B402946AB61002B0BD08A8805995E
:100D2000096900F057FE0598806905990969081856
:100D3000059908610E4600210A9D2846FFF7ECFB45
:100D40002868015BA84A8218121DF4683F2C00D263
:100D5000B9E063099B02E40602D11F24A4021B1917
:100D6000009CE4031C43A3B2B2E09F4A89188F8819
:100D700098490F40002F029E09D011210901625AA3
:100D80002321C90061583B4600F024FE3E460A98E4
:100D90000068099909788900425A8F4B1A40994B8B
:100DA0001A434252039F09204001215889192150BA
:100DB0002320C00021588A19225047208000235840
:100DC000002B04D0452080002058B04206D9099855
:100DD00001780A9C2046FFF79FFB05E009980178FF
:100DE0000A9C2046FFF75CFD0BA80088000666D52C
:100DF000680041002068425A794B1A4042521C2137
:100E0000694364183221615C25462835002913D0D6
:100E100029788A00825AC90009185023C35AC91870
:100E200052061ED4704A89188B886A490B40236485
:100E3000002B21D0228E1CE05021415A6A4A821890
:100E400052182978CB00D35A624A13402364002BEE
:100E50001CD0A28DA16B00F0D3FD29780A98006800
:100E600014E0614A8B5A5B490B402364002B03D08A
:100E7000E28DA16B00F0C4FD0A98006829788A0011
:100E8000835A554D2B40049D2B4383525022825A46
:100E9000554BC018CB00C018805A4E4A10402064F1
:100EA000A26B1218A263E36B002B04D00A9C2046AD
:100EB000FFF7CEFD03E00A9C2046FFF721FB2068E8
:100EC0006CE600266FE76308009D2C401B199B020F
:100ED0000A9C8B520188414A11404B4A5140018083
:100EE000EDE7C046FFBF00000F0F0000C15B394AAD
:100EF000521C114215D03D21C900254664184430CA
:100F000001883A4A0A400280284600F0E3F828683F
:100F10002178012904D04C218022425200212170E5
:100F20000A9CC25B014644312C4BF1331A4203D078
:100F30000A882C4B13400B800A88920403D50A8838
:100F40002B4B13400B80244AF1320988154611427D
:100F50000FD04021425A04239A434252BD2212022A
:100F60004252204600F0C8F82068C15B214A0A407E
:100F7000C253C15B089A114216D0014644310A8817
:100F80001D4B13400B804022835A08241C4384527B
:100F9000835A04241C4384520A9C0988294203D1A1
:100FA000204600F0EDF82068C15B890508D5443083
:100FB0000188124A0A400280204600F0AFF82068FB
:100FC000C15BC90504D5443001880D4A0A4002803E
:100FD0000DB0F0BDFF0300000F0F00000F3F000039
:100FE0000F8F0000FFBF000002040000FFFB0000A5
:100FF000FFDF0000FFEF0000FFF70000FFFD000033
:10100000FFFE0000C080000080B0000070B5002826
:1010100041D00446FF20EA302518205C002806D184
:101020003D20C00000212154204600F037F8032065
:101030002870214628316068002209E00023CB6037
:101040000B614B61CB700A7001234B701C31521C39
:101050009042F3D12121C9006118002208E0002349
:10106000CB600B614B61CB700A704B701C31521C12
:101070009042F4D12168402201238B5200208852F3
:101080004426885350268853BF2636028E52242188
:1010900060542B7070BD012070BD00001CB500684D
:1010A0000B49884200D01CBD0120C00586490A6852
:1010B00002430A6009680140019101981F24002140
:1010C00020460A46FFF7FCF92046FFF7EFF91CBD62
:1010D000005C0040B0B504468068022801D0FFF7EC
:1010E000D3F8872085006059012101F0ABF86059E1
:1010F00001F06CF8B0BD000010B50446806900280E
:1011000006D02748016806229143016000F092FC56
:1011100087208000205801F07EF810BD80B587211F
:101120008900405801F07FF880BD3D22D200835CE9
:10113000012B01D10220704782180123137000296E
:1011400002D02423C15403E000684C218023435281
:1011500000201070704780B58721890042587B219C
:1011600089004118104601F079F880BD00685821C7
:10117000425A0123DB03134343520020704700000F
:1011800010B5044687208000205801F0ABF8A06914
:10119000002804D00248016806220A43026010BDFC
:1011A00010ED00E0F0B585B004468078C007464BEE
:1011B0005CD0012211071868C0000191029202D58B
:1011C0000020039007E0186808431860186808407A
:1011D0000490049803923D4E3068C00511D40298E3
:1011E0000702306838433060FFF71CF90546306865
:1011F000384206D1FFF716F9401B6428F7D90325BA
:101200005FE003252802304B59680140002920D0B7
:101210006268024091421CD00298000459685A68E2
:1012200002435A605A6882435A600846284A10406E
:101230005860C8070DD0FFF7F5F806467A4F224BE5
:101240005868800705D4FFF7EDF8801BB842F6D93F
:1012500037E058681E4908406168014359600398A7
:10126000002803D018680199884318602068C107D6
:1012700005D0596903229143A2680A435A61810744
:1012800006D5032109045A698A43E168114359616B
:10129000810605D559691022914322690A435A6192
:1012A000810305D5596980229143A2690A435A6195
:1012B0000025400505D558694021884361690143EF
:1012C0005961284605B0F0BD1C1002400070004076
:1012D000FFFCFFFFF8B50D460446524A1168012095
:1012E0000140A94208D211680126B1432943116087
:1012F00011683140A9424CD121688A0707D5604A5C
:1013000016461268F0239A43A36813433360C90753
:1013100029D14449086801263040A84207D9086805
:10132000B0432843086008683040A84231D1207893
:10133000400708D50720000251490A460968814341
:10134000E0680843106000F079F84D490968090623
:10135000090F364A515CC8403749086000263046BC
:10136000FFF77CF815E06168454A032907D0121F92
:10137000022907D0012908D11268920307E0126BF5
:10138000D20304E01268920101E012689207064657
:1013900002D4304601B0F0BD394802460068032649
:1013A000B04308431060FFF73DF807466068012826
:1013B00010D002281BD0032826D1314800680C2108
:1013C00001400C29A5D0FFF72DF8C01B1649884213
:1013D000F3D9DEE72A4800680C210140042998D09F
:1013E000FFF720F8C01B10498842F3D9D1E7244801
:1013F00000680C21014008298BD0FFF713F8C01BAF
:1014000009498842F3D9C4E71D4800680007800FE6
:1014100000D17EE7FFF706F8C01B03498842F3D9E5
:10142000B7E7C046002002408813000046280008A5
:10143000014800687047C0461C00002010B51049E4
:101440000C682007820F032A18D00E48022A00D009
:1014500010BD0322D20323461340934200D10A4811
:10146000896A0F220A4009A1895CFEF741FE014604
:10147000A002000F09A2105C484310BD024810BD35
:101480000410024000127A00006CDC020102030426
:1014900005060708090A0B0C0D0E0F1002030405C0
:1014A000060708090A0B0C0D0E0F1010F0B585B0D9
:1014B00007460078C007FE4E1AD1387880074AD513
:1014C00070680007800F0CD070680C21014008295B
:1014D00026D10320C003716801400120C00381426E
:1014E0001ED1306880072FD5F86801282CD032E152
:1014F00071680C20014004290BD071680140082953
:101500003FD10320C00371680140012000048142E3
:1015100037D130688003D0D578680028CDD11AE162
:10152000F9683068002900D1ABE001210843306040
:10153000FEF778FF05463068800705D4FEF772FF96
:10154000401B0228F7D98CE13068F82188433969BB
:10155000C90001433160387800072BD5F969706AFA
:10156000002918D0012108437062FEF75BFF054691
:10157000706A80071ED4FEF755FF401B0228F7D97A
:101580006FE17968002900D1A0E0012900D0B4E022
:1015900001200104BAE0012188437062FEF742FF96
:1015A0000546706A800705D5FEF73CFF401B022800
:1015B000F7D956E13878400703971BD43878C0062E
:1015C00000D4BAE0039C616901294CD1706B0421FD
:1015D00001437163706B012101437163FEF722FFC8
:1015E0000546706B800744D4FEF71CFF401B0228A1
:1015F000F7D936E101221107F069C000009102928B
:1016000002D50020019007E0F0690843F061F0691D
:101610000840049004980192AE4F3868C00510D479
:1016200002980402386820433860FEF7FBFE054646
:101630003868204205D1FEF7F5FE401B6428F7D933
:101640000FE103988168A44F00292AD0012906D010
:10165000306A052900D0D1E0042108433062306AA5
:1016600002990843D0E0706B491D52D10421884390
:101670007063706BF8218843A169C90001437163ED
:101680005BE0012188433060FEF7CCFE0546306800
:10169000800700D45FE7FEF7C5FE401B0228F6D99D
:1016A000DFE0306A029988433062306A042188435F
:1016B0003062FEF7B7FE0546306A800700D4B0E01E
:1016C000FEF7B0FE401BB842F6D9CAE00120010483
:1016D00032688A433260810432688A43326044044B
:1016E000FEF7A0FE05463068204200D1E5E6FEF791
:1016F00099FE401B6428F6D9B3E03068052900D074
:1017000099E001218A0410433060090430680843DD
:1017100098E0042108437063706B01218843706373
:10172000FEF780FE0546706B800706D5FEF77AFE51
:10173000411B03200229F6D994E003980078800623
:101740000BD40398476A0022002F15D070680C2133
:101750000140082912D1012084E072680C210A405E
:10176000012007040C2A20D1716B3942E9D003997A
:10177000096A0129E5D075E0104673E00292012460
:1017800021063068019188433060FEF74BFE054624
:10179000022F28D167063068384265D0FEF742FE36
:1017A000411B03200229F6D95CE072680A40082A2E
:1017B00005D10321C90372680A408A42D4D0039834
:1017C000016A706B002975D038437063FEF72AFEFA
:1017D0000546706B3842B4D1FEF724FE411B03204E
:1017E0000229F6D93EE06406306820425DD0FEF75B
:1017F00019FE411B03200329F6D333E002998843E5
:101800003062306A042188433062FEF70BFE0546E1
:10181000306A800705D4FEF705FE401BB842F7D9B1
:101820001FE001980028039F00D1C7E6F0690099E6
:101830008843F061C2E601210A04904330608904C4
:1018400030688843306001204404FEF7EBFD054614
:101850003068204200D030E6FEF7E4FD401B6428EB
:10186000F6D9032005B0F0BDF06A0F218843039A32
:10187000116B0143F1627B20C00371688143D06A20
:101880000843916A014371603068019908433060F0
:10189000FEF7C8FD04463068384206D1FEF7C2FDA7
:1018A000011B03200229F6D9DCE70298DAE7C046DB
:1018B00000100240B8437063FEF7B4FD0546706B3C
:1018C000384200D13DE7FEF7ADFD411B0320022960
:1018D000F5D9C7E70070004088130000401E010ED4
:1018E00001D0012070470749074A50600748036844
:1018F0000B400321890759180160002090600721DF
:1019000011607047FFFFFF0010E000E020ED00E0F5
:10191000FEE7B0B5520000230DE0450F040F052D82
:1019200001D3373400E03034CC5401241C4300256B
:101930000D559B1C00019A42EFD1B0BD80B51048F7
:101940001049002200F00AFB002801D0FEF79CFCA1
:101950000B480D4900F0EDFC002801D0FEF794FC87
:1019600007480A4900F09CF9002801D0FEF78CFCDA
:10197000034800F0F6FC002801D0FEF785FC80BD8E
:10198000700D0020000000202000002044010020F5
:1019900070470000002805DB0322034693430B4AEF
:1019A0009A1806E00F220240083A03239A43084B94
:1019B000D2188007C00E8901C9B28140FF2383403D
:1019C00010689843084310607047C04600E400E088
:1019D0001CED00E010B580180122920280185A0810
:1019E000524206E004880C70240A4C70521C891C78
:1019F000801C002AF6D1DA0701D00078087010BDEB
:101A000010B580180122920280185A1C52085242C6
:101A100007E00B784C782402E3180380891C521CE1
:101A2000801C002AF5D110BD7047704780B5FEF7C5
:101A3000FDFC80BDF0B599B00CAD284608301821EA
:101A4000FEF785FB01A80090001D1421FEF77FFB27
:101A500000271897012630051790300416900224AD
:101A6000159414960D9621200C902846FFF71EFD24
:101A70000B970A9709940720089008A83146FFF7AA
:101A800029FC0797700401900098FFF78BFB19B0B1
:101A9000F0BD00001148026801210A43026042685B
:101AA0000F4B1340436002680E4B134003608A04DF
:101AB0000368934303603F221204436893434360E7
:101AC000C26A0F239A43C262026B074B134003633F
:101AD000426B8A43426300218160704700100240DC
:101AE0000CB8FF08FFFFF6FE2CFEFCFF4321C900E7
:101AF0004158002904D0852082000020885070477A
:101B00000220704770B504464320C600A559204600
:101B100000F0ECFA832189006850A05900280AD00F
:101B2000691881208000285887229200A258D26824
:101B30009047002070BD022070BD0000B0B5044683
:101B400081210D4DA84701212046A847822120462A
:101B5000A8474320C000215800290AD02518872013
:101B60008000205840688047286800F0B6FD0020BB
:101B700028600020B0BDC046A51F000810B5872111
:101B800089004358002B0ED04321C9004158012041
:101B90004202885CFF2806D08C186E4A8A5C9B68DB
:101BA0009847FF202070002010BDC0460A21018008
:101BB00000487047E0000020432101800048704742
:101BC0005800002043210180004870479C000020FD
:101BD0004321018000487047EC000020F8B504461E
:101BE000007C00280BD081210225402620462A4671
:101BF000334600F0D6FA012120462A460BE00125A3
:101C00006E028121022720463A46334600F0C9FA87
:101C1000204629463A46334600F0C3FA8221032281
:101C20000823204600F0BDFA81208700384618308E
:101C300000F054FD06464320C0002650002E0FD071
:101C400087208000205800688047F0190025056132
:101C50004561F259207C0121002803D0402302E095
:101C6000012503E04B02204600F0A7FA284601B008
:101C7000F0BD80B54321C9004158002908D0812218
:101C800092008A58017C002904D00121402303E0FE
:101C9000022080BD01214B0200F08FFA002080BDA0
:101CA000002904D087229200815000207047022032
:101CB00070474322D2008058812292008150002038
:101CC00070474323DB00C05821231B01C25041222F
:101CD000D20081500020704770B50D460446087848
:101CE00060210140002914D020292ED1EA88002A41
:101CF00016D04321C900665800061AD468781549E1
:101D000072540121490270542046314600F048F8CF
:101D10001BE068780A2818D10D490122204612E0FC
:101D200087208000205883686878002229469847D9
:101D30000BE08720800020588368687831469847F8
:101D4000EA882046314600F04BF8002070BDC046BE
:101D5000780100200102000080B58522920082589F
:101D600052689047002080BD10B513460A460024F3
:101D7000214600F022FA204610BD10B513460A464F
:101D80000024214600F0B8FA204610BD10B50446E4
:101D9000802100F095FA0021204600F091FA10BD54
:101DA00010B513460A464321890043502121C9003A
:101DB00043507D218900032444500024214600F033
:101DC000FCF9204610BD10B57D2189000522425046
:101DD000002421462246234600F0EFF9204610BD9C
:101DE00010B513460A467D218900022444508361C0
:101DF000C3610024214600F07FFA204610BD10B5D3
:101E00007D21890004224250002421462246234697
:101E100000F072FA204610BD10B50A4603A02A4C05
:101E2000214600F06DF8204610BDC04643444320D3
:101E3000436F6E6669670000122008800048704793
:101E40003001002010B50A4603A01F4C214600F0C7
:101E500057F8204610BDC04643444320496E746580
:101E600072666163650000000420088000487047C6
:101E70005401002010B50A4603A0134C214600F07F
:101E80003FF8204610BDC04653544D6963726F65DC
:101E90006C656374726F6E696373000010B50A46F7
:101EA00003A0094C214600F02BF8204610BDC04687
:101EB00053544D3332205669727475616C20436FF0
:101EC0006D506F72740000007C010020B0B51A20C4
:101ED0000880094908688A6810180BD04C68074DBB
:101EE000A91C0822FFF715FD1235042220462946B9
:101EF000FFF70FFD0148B0BDACF7FF1F58010020F0
:101F0000B0B500281CD00023044601E0641C5B1C13
:101F10002578002DFAD1DBB25B009B1C13800B707F
:101F200002220324012307E0D4B20B5501231343FB
:101F3000DBB2921C401C0024CC540378002BF3D15C
:101F4000B0BD0000032804D8C0000349C140C8B296
:101F5000704702207047C0460002010210B50028F9
:101F600015D085239B00C458002C02D0C318002430
:101F70001C60002902D021231B01C1507F21890050
:101F800001234354027000F0B9F8002010BD022074
:101F900010BD80B5112252018058FEF729FBFFF7D2
:101FA000D1FF80BD80B5112252018058FEF7C2FAE0
:101FB000FFF7C8FF80BDF8B5044600290DD0852085
:101FC000800020584269002A4FD07F208000205C8A
:101FD00003284AD12046904747E03F20C0002718F9
:101FE0007D208000205802283AD1E069266AB0425C
:101FF0000CD9801BE06183B2204611461A46FFF7D8
:10200000BCFE002120460A460B4616E0A56928467C
:102010003146FEF76DF8B54212D3002910D1386869
:1020200085420DD20025204629462A46FFF7A5FE07
:102030003D60204629462A462B4600F0BEF80FE0B8
:10204000852080002058C168002906D07F208000AC
:10205000205C032801D1204688472046FFF7B3FEC5
:10206000387A012801D100203872002001B0F0BD7B
:1020700010B5044600290DD08520800020588269C3
:10208000002A31D07F208000205C03282CD12046FC
:10209000904729E07D2080002058032824D111207A
:1020A0000001205843218B00E15881420CD9E318EC
:1020B000091A1960814200D301468BB220461146AD
:1020C0001A46FFF751FE0FE0852080002058016975
:1020D000002906D07F208000205C032801D1204603
:1020E00088472046FFF78BFE002010BD80B51122E7
:1020F00052018058FEF7C2FA80BD0000F8B5872172
:102100008A001C49885011225201815000238B61A2
:10211000CB610B6202230B610824174D0D604C60EC
:102120008B6086180846FEF771FF002801D0FEF785
:10213000ABF8306800241823104F21462246B847D8
:102140003068802158232246B84730688121C02357
:102150002246B847306801210D022B461033224633
:10216000B8473068822122462B46B847204601B046
:10217000F0BDC046940F0020005C0040C904000878
:102180007F220A401C235343112252018058C01859
:10219000090601D52A3002E085214900401800785F
:1021A000704710B514461122520180581A46234632
:1021B000FEF76EFAFFF7C6FE10BD10B511246401DC
:1021C0000059FEF76DFBFFF7BDFE10BD70B504466C
:1021D00000264025314632462B46FFF7E2FF11200C
:1021E000000125508021204632462B46FFF7D9FFBB
:1021F0007F2080000121215425624320C000205807
:10220000002806D085208000205842682179204689
:102210009047002070BDFF21FE31415C7F2292007B
:1022200081540020704780B57F218900415C0329DB
:1022300006D1852189004158C969002900D0884705
:10224000002080BD01740020704780B5112252012A
:102250008058FEF76AFFFFF775FE80BD70B5044633
:102260004120C600A519284600F04FF87D208000C7
:10227000012121501148205A3F21C9006050A15D21
:102280001F200840022808D001280BD000280ED1BA
:102290002046294600F06AF80EE02046294600F064
:1022A0008DF909E02046294600F0F8F904E0802085
:1022B0000140204600F004F8002070BD0E0200002E
:1022C00080B5112252018058FEF77CFBFFF73AFEE1
:1022D00080BD80B5112149014058FEF747FFFFF747
:1022E00031FE80BD7F218900425CFF23FE33C25452
:1022F000042242540020704710B511246401005993
:10230000FEF7A6FBFFF71EFE10BD0A7802704A78A2
:1023100042708A78CB781B029A1842800A794B79EE
:102320001B029A1882808A79C97909028918C180AA
:102330007047002904D08522920081500020704708
:102340000220704780B5852292008258002A06D06C
:1023500012689047002800D00120400080BD022074
:1023600080BD80B5FFF7B5FF002080BD7CB5044679
:102370004878092800D9D6E00D46C046784400794F
:10238000400087440414D024D05E7CD037487F209E
:102390008000205CFE210140022900D0C3E08120A2
:1023A00080002058002800D17FE003207EE07F20BD
:1023B0008000205CFE210140022900D0B3E0688843
:1023C000012800D0B2E081208000002106E068886A
:1023D000012800D0AAE08120800001212150852021
:1023E0008000205882682046294690472046FFF703
:1023F00006FD9BE0E888012800D094E07F20800063
:10240000205C032857D0022800D08CE00020A06078
:102410002146083150E06888674D2870C1B2022912
:1024200000D380E07F208000225C2018032A45D062
:10243000022A00D077E00029D8D061600322027020
:1024400047E0A888002800D06DE0E88800286AD11D
:102450007F208100625C032A65D06618AD78054054
:10246000FF204000255420462946FFF7EEFE204677
:10247000FFF7C5FC002D00D182E0022081E06888D2
:10248000010A491E06294ED87944097949008F442A
:102490000335264A4A3D47002120000120580268A2
:1024A000207C01A9904701465AE00120E0602146C6
:1024B0000C31022260E0211D01225DE0002938D0AC
:1024C0006068884292D0C1B22046FFF745FC297867
:1024D00061602046FFF736FF022824D086E7C0B2AD
:1024E000052820D87844007940008744024C515692
:1024F0005B602120000120584268D1E785208000E0
:102500002058217C00291CD0C16A1BE0207C0028B7
:1025100009D1852080002058416B01A88847C2E777
:10252000207C002813D02046FFF730FC002002B0AA
:1025300070BD02220270002060602046FFF70CFC94
:1025400054E7816A01A888470146022007E08520F8
:1025500080002058016B01A8884701460720487079
:1025600001A80288002AE1D0E8880028DED0824253
:1025700000D3024601A802802046FFF731FCD5E7D0
:1025800001203070D2E7212000012058826887E7BF
:10259000212000012058C26882E721200001205834
:1025A00002697DE7212000012058426978E7212057
:1025B00000012058826973E779010020B0B50D460B
:1025C0000446087860210140202908D18520800038
:1025D000205882682046294690470020B0BD2979BE
:1025E0006878002813D001281BD00328F5D17F205C
:1025F0008000205C032819D1688800282CD1802015
:102600000843802828D02046FFF75AFE24E07F2088
:102610008000205C03282AD0022811D148060BD163
:10262000DBE77F208000205C03280DD0022807D143
:10263000802008438028D0D02046FFF741FECCE719
:102640002046FFF7A3FBC8E768880028C5D14806E5
:1026500009D02046FFF79DFC852080002058826825
:102660002046294690472046FFF7C9FBB5E74806B4
:10267000400D2518080601D5143502E041208000E0
:102680002D182046FFF77CFD002800D0012028608F
:10269000022220462946FFF7A3FB9EE7B0B5044679
:1026A0007F208000205C032804D10D468888000626
:1026B000400E04D02046FFF769FB0020B0BD852006
:1026C000800020588268204629469047E8880028E4
:1026D000F3D12046FFF793FBEFE7704700487047C0
:1026E0007C03002080B50248FEF736FA80BDC04664
:1026F000940F002088B0FDF7A1FEFFF79BF900249E
:1027000007940125A905404802680A43026002684F
:102710000A4002920299690402680A430260026850
:102720000A4002920299E90402680A4302600268C0
:102730000A4002920299A90402680A4302600268F0
:102740000A4002920299290502680A430260006861
:102750000840029002980920C0060190F4272B4BF4
:102760003946224698472A48302631462246274B8A
:102770009847284828492246244B984706940594B0
:102780000495039703AF01983946244A904706946D
:102790000594049503961E483946204EB04706948A
:1027A000059404951C4803901A483946B04705948F
:1027B0001B4804900725A802039015483946B047E6
:1027C0000594174804900420039016483946B047F2
:1027D000059413480490F82003900E483946B047FA
:1027E0000626304621462246FDF76AFE3046FDF7B2
:1027F0005DFE284621462246FDF762FE2846FDF78B
:1028000055FEFFF79BF8FEE7141002401504000880
:102810000008004800040048070C0000A50200085A
:1028200000001110000C004802E008C8121F08C187
:10283000002AFAD170477047002001E001C1121F41
:10284000002AFBD1704700000000000000000102D8
:10285000030406070809000078280008000000208B
:10286000780100008801000838290008780100205C
:10287000401400003828000813391E1B0869041A88
:1028800075041A9D041ACD041A19041A450411136B
:10289000127A13DD1B1B083D041BD91C10311A7D55
:1028A0000C13ED1A1B080508C11AC5101AB9041A31
:1028B000D1041AAD041409024313020125C03209E0
:1028C000041B01020B130524161001052401100935
:1028D00001042402020524061701070582030815D6
:1028E0001009040133020A2E0705010240072A815C
:1028F0000711093744113A02441907112B0A060639
:10290000112B4001502A07500A2204500A16FF9446
:102910001A12171302021E40830440574D1B020374
:102920005913E9011B08E3041ADF04130902000824
:082930001E08040309041A0348
:04000005080000C12E
:00000001FF
