:020000040800F2
:10000000F8050020D50000082D1A0008C1180008C6
:1000100000000000000000000000000000000000E0
:10002000000000000000000000000000771A000837
:100030000000000000000000751A0008791A00088E
:10004000E7000008E7000008E7000008E7000008F4
:10005000E7000008E7000008E7000008E7000008E4
:10006000E7000008E700000801030008E7000008B7
:10007000E7000008E7000008E7000008E7000008C4
:10008000E7000008391B0008E7000008E700000847
:10009000E7000008E7000008E7000008E7000008A4
:1000A000E7000008E7000008E7000008E920000872
:1000B000E7000008E7000008E7000008E700000884
:1000C0000348854600F0A4F8004800478D21000849
:1000D000F80500200448804704480047FEE7FEE793
:1000E000FEE7FEE7FEE7FEE7DD1A0008C1000008B4
:1000F00030B50B46014600202022012409E00D46C0
:10010000D5409D4205D31D469540491B2546954047
:1001100040191546521E002DF1DC30BD03460B433D
:100120009B0703D009E008C9121F08C0042AFAD2AD
:1001300003E00B780370401C491C521EF9D2704733
:10014000D2B201E00270401C491EFBD2704700226F
:10015000F6E710B513460A4604461946FFF7F0FFC6
:10016000204610BDCAB2401E4178401C8A4202D0CF
:100170000029F9D100207047421C0178401C002959
:10018000FBD1801A704770B5064601F0D7FF0468AE
:1001900005460A220021304600F002F82C6070BDAE
:1001A000F7B5009C0F4600262578641C002D05D06D
:1001B00000F040F80068405DC007F5D12B2D02D05B
:1001C0002D2D18D0641E39462046029A00F036F8CC
:1001D000002F04D03968A14201D10099396071051E
:1001E000022400290BDA4042002803DD01F0A6FFBB
:1001F0000460A007FEBD012080020643E3E700285B
:10020000F8DA01F09BFF04600048FEBDFFFFFF7FAE
:10021000064C0125064E05E0E36807CC2B430C3C59
:1002200098471034B442F7D3FFF74EFFC4220008BA
:10023000E422000800487047C0220008F7B582B0E9
:10024000029C00272078641C15460197302802D0B4
:10025000002D15D015E020780127641C782804D0E3
:10026000582802D0002D09D00BE0002D01D0102D10
:1002700007D1002710252078641C02E0082500E043
:100280000A250026009610E0009901276943081806
:10029000020C294680B2714300908E1838048642C1
:1002A00001D3012001902078641C294600F019F840
:1002B0000028E9DA0398002805D0002F01D0641E39
:1002C00000E0029C04600198002806D001F036FF8F
:1002D00002210160C81E05B0F0BD0099300408433A
:1002E000F9E73A2800D23038202302469A43412ABF
:1002F00001D310463738884201D30020C0437047ED
:1003000010B5034800F04DFA024800F04AFA10BD5B
:10031000840100204001002010B504460068054912
:1003200040181421FFF7E4FE800020640248E063D7
:1003300010BD0000F8FFFDBF0000024030B5056CA5
:100340000124AC40C56B6C60046863604368102B8B
:10035000036803D099600068C26030BD9A6000688D
:10036000C16030BD10B501220221034800F089FBB5
:10037000FA2000F0C6FA10BD0014004810B50022A3
:100380000221034800F07DFBFA2000F0BAFA10BD0C
:100390000014004810B5064800788107FDD500F02C
:1003A000A5F800F0BDF8FA2000F0ABFA10BD00008F
:1003B0000200002010B500F0A5F800F07DF8FA204A
:1003C00000F09FFA10BD000010B50122D1030348D0
:1003D00000F057FBFA2000F094FA10BD0008004826
:1003E00010B50122D103034800F04BFBFA2000F0C6
:1003F00088FA10BD0008004810B5094C01220221FE
:10040000204600F03EFB07484178C807FDD0002297
:100410000221204600F035FBFA2000F072FA10BDF0
:10042000000800480200002010B5094C01221146C6
:10043000204600F026FB07480178C809FDD00022BD
:100440000121204600F01DFBFA2000F05AFA10BDF1
:10045000000800480200002010B5094C01220421C8
:10046000204600F00EFB074841784807FDD50022E2
:100470000421204600F005FBFA2000F042FA10BDEE
:10048000000800480200002010B5094C0122082194
:10049000204600F0F6FA074841788807FDD500228B
:1004A0000821204600F0EDFAFA2000F02AFA10BDEB
:1004B000000800480200002070B50124094D6403C3
:1004C00000222146284600F0DCFA07480278900610
:1004D000FDD5FA2000F015FA01222146284600F049
:1004E000D0FA70BD000800480200002010B50122BB
:1004F0005103034800F0C5FAFA2000F002FA10BDDB
:100500000008004810B5012100228903034800F0CB
:10051000B8FAFA2000F0F5F910BD00000008004814
:1005200010B501229103034800F0ABFAFA2000F065
:10053000E8F910BD0008004808B5002000904521EA
:100540001348FFF70FFE411C03226846FFF7E6FD44
:100550006846FFF718FE0F49C0B2487080000831A6
:10056000085880470A480A212030FFF7F0FD084864
:1005700009A1203001F0CEFD05482030FFF7FCFD39
:10058000034982B22031064801F04CF908BD000051
:10059000C8010020000000204F4B0D0A00000000A1
:1005A000D000002010B5064C002020702021054806
:1005B000FFF7CDFD20220349606801F0DFF810BD90
:1005C00000000020C801002010B5FFF7CBFEFFF7A8
:1005D00007FFFFF797FF00F00DF8024800F09CFEC0
:1005E00010BD000090000020014800787047000016
:1005F00000000020F8B501214902484800F03CFA0B
:100600000125474C0028207801D0284301E040080C
:10061000400020702021414800F02EFAFD260227DC
:100620000028207801D0304000E0384320700421B9
:100630003C4800F021FA0028207802D0FB21084035
:1006400001E00421084320700821344800F014FA26
:100650000028207802D0F721084001E00821084353
:1006600020700121C902304800F006FA00282078E5
:1006700002D0EF21084001E0102108432070402102
:10068000264800F0F9F90028207802D0DF21084040
:1006900001E020210843207001218902224800F056
:1006A000EBF90028207802D0BF21084001E040216A
:1006B00008432070FF210131184800F0DDF90028BF
:1006C000207802D04006400E01E0802108432070CF
:1006D0001021124800F0D0F90028607802D04008BC
:1006E000400000E028436070012109030E4800F03B
:1006F000C3F90028607801D0304000E038436070D2
:100700008021064800F0B8F90028607802D0FB216B
:10071000084001E0042108436070F8BD000400486F
:1007200002000020000C00480008004870470168E3
:100730000A680E239A430A6001680A685208520048
:100740000A600121036C0A469A40C36B5A6020304C
:100750004170002101700846704770B500240146C1
:1007600020314A78022A03D004218163012416E053
:10077000026813680E25AB431360026813685B08B8
:100780005B0013600122056C1346AB40C56B6B60C8
:100790004A7000220A70416B002900D08847204629
:1007A00070BDF0B4C16B0D6801680C680422066C62
:1007B0001346B3402B420DD063070BD50B689B0645
:1007C00002D40B6893430B60016C8A40C16B4A6092
:1007D000C16A19E00227B74002462F4001232032A8
:1007E000002F15D0A70713D50C68A40604D40C68F5
:1007F0000A25AC430C605370036C02219940C36B13
:10080000596000211170816A002916D0F0BC084798
:100810000827B7402F4210D024070ED50C680E25AC
:10082000AC430C60046C1946A140C46B61608363E7
:10083000537000211170016BE6E7F0BC70470000B7
:1008400070B5040024D00220214620310D464870A6
:10085000226811680F48A368014060682669184340
:10086000E3683343184363691843A3691843E36992
:100870001843084310602046FFF74EFD0020A06299
:10088000E06220636063A06301216970287070BD1D
:10089000012070BD0FC0FFFFF8B504468C46203024
:1008A00001780025012909D001260670417800272A
:1008B000012905D0077002252846F8BD0220F8BDA1
:1008C00002214170A763206801684908490001605E
:1008D00061462046FFF732FDE06A00282068016883
:1008E00002D00E22114306E00A2211430160206863
:1008F000016804229143016020680168314301606E
:10090000DAE731B500F0C4F8009C0546601C00D061
:10091000641C00F0BDF8401BA042FAD338BD0000B3
:10092000F8B5002393E0224601249C40A4462240CF
:100930007ED04C68022C01D0122C0CD1DC08A40013
:1009400027183C6A5D07ED0E0F26AE40B4430E69D2
:10095000AE4026433E6205685E000324B4400F7932
:10096000A543BF07BF0FB7402F4307604D68012D58
:1009700005D0022D03D0112D01D0122D0ED1856886
:10098000CF68A543B7402F43876047686546AF43AC
:100990000D79ED06ED0F9D403D434560C568A543CB
:1009A0008C68B4402C43C4604C68E4004ED52B4C9A
:1009B000A56901263543A561A4699D0834400094CA
:1009C000274CAD002F19BC689D072E0F0F25B54091
:1009D000AC430925ED06A84201D1002514E0214DC4
:1009E000A84201D101250FE01F4DA84201D10225E7
:1009F0000AE01E4DA84201D1032505E01C4DA84286
:100A000001D1042500E00525B5402543BD60194C02
:100A100025684E689543F60300D515432560656843
:100A20004E689543B60300D515436560A56800E0A0
:100A30000CE04E689543F60200D51543A560E568C5
:100A40004E689543B60200D51543E5605B1C0A6805
:100A50001446DA4000D066E7F8BD000000100240FE
:100A6000000001400004004800080048000C004855
:100A700000100048000401400069084000D0012037
:100A80007047002A01D08161704781627047000081
:100A90000148006870470000840000200248016897
:100AA000491C0160704700008400002010B5064812
:100AB0000168102211430160002000F007F800F0E7
:100AC00017F8002010BD00000020024010B50446B9
:100AD00000F06AF97D21C900FFF70AFB00F0AAFBCC
:100AE00000222146501E00F021F8002010BD000019
:100AF00008B508488169012211438161816911406B
:100B00000091C26901040A43C261C06908400090B3
:100B100008BD000000100240C106C90E0120884037
:100B2000014908607047000000E100E010B500F0E6
:100B30007FFF10BDF8B504460068434DC00352D591
:100B4000E8690026C00007D4E96928040143E96187
:100B5000E9690140012600913C480168C90510D4AB
:100B60000168821511430160FFF792FF074604E018
:100B7000FFF78EFFC01B642824D834480068C005E6
:100B8000F6D5286A03273F02384020D061683940F3
:100B900081421CD0286A2A6AB843012109040A4309
:100BA0002A622A6A8A432A622862C0070FD0FFF7A6
:100BB0006FFF009008E0FFF76BFF0099411A24488F
:100BC000814201D90320F8BD286A8007F3D5286A3D
:100BD0006168B84308432862002E04D0E869012107
:100BE00009078843E8612078C00705D0286BA16811
:100BF00080088000084328632078800706D5286B8A
:100C0000032109048843E1680843286320788006AB
:100C100005D5286B10218843216908432863206883
:100C2000800305D5286B80218843A1690843286388
:100C30002088400505D5286B402188436169084319
:100C400028630020F8BD0000001002400070004042
:100C500088130000F8B505464E480E460068C007E8
:100C6000C00FB0420AD24B480168490849003143DD
:100C700001600068C007C00FB04270D12878464CB0
:100C8000800705D56068F0218843A9680843606043
:100C90002878C00753D06868012817D0022818D0D8
:100CA000032819D021688907002958DA6168890862
:100CB000890001436160FFF7EBFE6968074601297F
:100CC00013D002291DD0032927D034E021688903DD
:100CD000EAE721688901E7E7616BC903E4E7FFF709
:100CE000D7FEC11B2D48814223D860680007800FC2
:100CF0000128F4D123E0FFF7CBFEC11B2748814236
:100D000017D860680007800F0228F4D117E0FFF7BA
:100D1000BFFEC11B214881420BD860680007800FCD
:100D20000328F4D10BE0FFF7B3FEC11B1B4881423F
:100D300001D90320F8BD60680007800FF3D1154882
:100D40000168C907C90FB1420BD9016849084900B8
:100D5000314301600068C007C00FB04201D00120DC
:100D6000F8BD2878400706D5606807210902884346
:100D7000E9680843606000F02DF86168084A0906D8
:100D8000090F515CC840074908600020FFF79EFE2C
:100D90000020F8BD0020024000100240881300002F
:100DA00024220008880000200148006870470000E5
:100DB000880000200448054900684968044A49053C
:100DC000490F515CC8407047880000200010024065
:100DD0003422000830B516A30FCB89B06C460FC47F
:100DE00017A30FCB0FC41A494A680C2014460440BD
:100DF0001848042C05D0184B082C04D00C2C00D11A
:100E0000184609B030BD9402240F6D462C5DC96AA6
:100E100004AD0907090FD203695C920F022A02D0C0
:100E2000032A00D11846FFF763F96043E9E70000A1
:100E300002030405060708090A0B0C0D0E0F10101B
:100E40000102030405060708090A0B0C0D0E0F101A
:100E50000010024000127A00006CDC02FEB504466D
:100E60000078F04EF04DC00748D068680007800F4A
:100E700001281FD068680007800F022804D1686825
:100E8000C003800F022815D06168012919D0012004
:100E90008004002901D0052917D02968B1432960B1
:100EA000296881432960606800281BD0FFF7F0FDA6
:100EB000074613E02868800320D56068002876D0B4
:100EC0001CE0286830432860EDE729680143296069
:100ED000F7E7FFF7DDFDC01B642869D828688003A9
:100EE000F7D50BE0FFF7D4FD074604E0FFF7D0FD90
:100EF000C01B6428F1D828688003F7D420788007C5
:100F00003ED568680007800F14D068680007800F1E
:100F1000022804D16868C003800F01280AD0E06865
:100F2000002828681DD0012108432860FFF7B0FD84
:100F300007460BE0286880070BD5E068012836D10A
:100F400007E0FFF7A5FDC01B0228C6D82868800768
:100F5000F7D52868F82188432169C900084328602B
:100F60000EE0400840002860FFF792FD074604E0CD
:100F7000FFF78EFDC01B0228AFD828688007F7D482
:100F80002078000724D5E0690028686A11D0012183
:100F900008436862FFF77CFD074604E0FFF778FD31
:100FA000C01B022899D8686A8007F7D510E036E19F
:100FB000D1E0400840006862FFF76AFD074604E0A0
:100FC000FFF766FDC01B022887D8686A8007F7D440
:100FD000207804274007002861DA00200190E869A2
:100FE000C00008D4E969B8060143E961E969014034
:100FF0000120009101908D480168C90511D4016854
:10100000821511430160FFF743FD009005E0FFF7F3
:101010003FFD0099401A642897D884480068C005AD
:10102000F5D5A06801280AD0002801D0052811D0E4
:10103000286A400840002862286AB84302E0286A0B
:10104000012108432862A068002812D0FFF720FD84
:1010500000900AE0286A38432862F0E7FFF718FD9D
:101060000099411A7248814275D8286A8007F5D5DF
:101070000DE0FFF70DFD009006E0FFF709FD009978
:10108000411A6B48814266D8286A8007F5D40198D6
:10109000002804D0E969012000078143E961207834
:1010A000C00635D5606901280CD0401D686B24D07E
:1010B00038436863686B400840006863FFF7E8FCEA
:1010C000074622E0686B38436863686B0121084378
:1010D0006863FFF7DDFC074604E0FFF7D9FCC01B9F
:1010E000022838D8686B8007F7D5686BF8218843E9
:1010F000A169C900084368630AE0B8436863F4E77C
:10110000FFF7C6FCC01B022825D8686B8007F7D400
:101110002078800637D568680007800F032813D031
:1011200068680007800F022804D16868C003800F38
:10113000032809D0206A0028686B16D03043686302
:10114000FFF7A6FC06460CE0686BC0031BD5206ABF
:10115000012864D117E05BE0FFF79AFC801B0228AE
:1011600056D8686BC003F7D50DE0B0436863FFF74E
:101170008FFC064604E0FFF78BFC801B022847D853
:10118000686BC003F7D4606A002846D06968090715
:10119000890F022943D0012636060228286805D087
:1011A000B0432860FFF774FC044633E0B043286086
:1011B000FFF76EFC074604E0FFF76AFCC01B02283D
:1011C00026D828688001F7D4E86A216B000900015D
:1011D0000843E862A16AE06A084369687B22D20397
:1011E000914308436860286830432860FFF750FC4B
:1011F000044604E0FFF74CFC001B022808D82868CE
:101200008001F7D509E0FFF743FC001B022801D954
:101210000320FEBD28688001F5D40020FEBD01201A
:10122000FEBD000000000100001002400070004000
:1012300088130000094910B5401E884201D90120D9
:1012400010BD074C60610321081F00F0F1FB002076
:10125000A06107202061002010BD0000FFFFFF00FB
:1012600000E000E07047704770B502462032137FFF
:10127000012B1BD00123137702245477046865687F
:101280007026B5436560046865680E68354365601F
:101290000468A5688026B543A5600068846849682D
:1012A0000C43846053770020107770BD022070BD1E
:1012B00070B5040005D025462035687F002802D08F
:1012C00006E0012070BD00202877204600F00AF8D3
:1012D00002206877211D206800F036FC0120687725
:1012E000002070BD08B50068094988420FD109483F
:1012F000C26910210A43C261C069002208400090FF
:1013000011461120FFF712FC1120FFF705FC08BD64
:1013100000100040001002400268D36801210B4316
:10132000D360006802680A4302600020704770477B
:1013300070B50446006801690025C9438907002982
:1013400015DBC168C943890711D4E91E0161012079
:101350002077206880698007204602D0FFF7E7FFEA
:1013600004E000F096F8204600F094F82577206815
:101370000169C943490717D4C168C943490713D450
:101380000421C9430161022020772068806980051B
:10139000800F204602D0FFF7CAFF04E000F079F882
:1013A000204600F077F8257720680169C9430907CE
:1013B00016D4C168C943090712D40821C943016181
:1013C000042020772068C0698007204602D0FFF7FC
:1013D000AEFF04E000F05DF8204600F05BF82577F2
:1013E00020680169C943C90617D4C168C943C90641
:1013F00013D41021C9430161082020772068C069F7
:101400008005800F204602D0FFF791FF04E000F036
:1014100040F8204600F03EF8257720680169C9436E
:10142000C90708D1C168C943C90704D1891E016130
:10143000204600F031F820680169C943090609D443
:10144000C168C943090605D48021C943016120460A
:10145000FFF708FF20680169C943490609D4C1683C
:10146000C943490605D44021C9430161204600F023
:101470001DF820680169C943890609D4C168C943B8
:10148000890605D42021C94301612046FFF7EBFE00
:1014900070BD70477047000010B50068024988426F
:1014A00001D1FFF7A7F810BD00100040704770474A
:1014B00070B5044660300546407A21280FD1206877
:1014C000816809060BD58168802291438160206E76
:1014D000002801D0FFF72BF9204600F0ACFCA87AD9
:1014E00022280FD12068816849060BD581684022E7
:1014F00091438160606E002801D0FFF718F9204603
:1015000000F07DFC002070BD70470000F8B5036856
:101510000446D869196805072D0F07D1820605D53D
:101520008A0603D5204600F08FFCF8BD9A68002D8E
:1015300064D0D507ED0FFF2621360E402E435DD037
:10154000C60706D0CE0504D501261E62E36E3343DE
:10155000E366870702230426002F06DAD70704D0A4
:1015600027683B62E76E3743E766470706D5D20731
:1015700004D022681662E26E1A43E266020709D5B9
:1015800020220A402A4305D0236808221A62E36E0B
:101590001343E366E26E002AC7D0800604D58806AE
:1015A00002D5204600F050FCE06E000703D420680E
:1015B000806840061CD5204600F021FC2068816828
:1015C000490611D58168402291438160606E0028F0
:1015D0000AD01A494163606EFFF7BFF80028A4D013
:1015E000606E416B8847F8BD2046FFF78DFFF8BD60
:1015F0002046FFF789FF0020E066F8BDC5020DD543
:1016000052020BD5012000051862202120466030CF
:10161000417281722046FFF74AFFF8BD020605D5E8
:101620000A0603D5204600F0FBFCF8BD4006FCD5B9
:101630004806FAD5204600F0F1FBF8BD1D1D000854
:1016400070B5040005D025466035687A002802D0C0
:1016500006E0012070BD00202872204600F026F828
:10166000242068722068016849084900016020460A
:1016700000F028FC0128EDD0606A002802D0204646
:1016800000F0ACFA206841680922D202914341601F
:10169000206881682A2291438160206801680122C4
:1016A00011430160204600F0FFFA70BDF0B587B02D
:1016B000064614216846FEF74AFD2B4930688842E9
:1016C00050D12A488269012189030A4382618269D3
:1016D0000A4005924269C9000A43426140690024F8
:1016E0000840059003204002009002200190032052
:1016F000039001200490092002946946C006FFF778
:101700000FF91B481B4D802711C52C60AC60EC60A5
:101710006F6020206C6128611648083DFFF790F843
:10172000002801D0FFF702F875666E621048124D6E
:10173000143828601020291D91C12C616C61AC61A6
:101740002846EC61FFF77CF8002801D0FEF7EEFF99
:101750003566002211461B206E62FFF7E7F91B2059
:10176000FFF7DAF907B0F0BD003801400010024081
:10177000300002404001002084010020F8B50546F9
:1017800004466035A87A202841D100290BD0002AD0
:1017900009D00123A0681B03984206D120690028C4
:1017A00003D1C80701D00120F8BD287A01282ED026
:1017B000012028725820616502530026E666222027
:1017C000A872616E13488862616E1348C862616EC8
:1017D00012480863606E13464663676D21683A4697
:1017E0002431606EFFF758F82E7220680168FF22DE
:1017F0000132114301602068816801221143816038
:10180000206881684022114381600020F8BD0220D9
:10181000F8BD00007B1D0008BB1D0008311D00083D
:1018200070477047F8B5054604466035687A202849
:101830003BD100290BD0002A09D00123A0681B034B
:10184000984206D12069002803D1C80701D00120A1
:10185000F8BD287A012828D001202872204640307F
:10186000E164028242820026E66621206872216ECF
:101870000F488862216E0F48C862216E0E480863C7
:10188000206E134646632768E16C3A462832206E84
:10189000FFF702F82168402008622E7220688168F4
:1018A0008022114381600020F8BD0220F8BD0000B5
:1018B000C51D0008F51D0008311D00087047704760
:1018C000FEE70000F0B587B014216846FEF73FFC44
:1018D000374842690121C9040A43426142690A400A
:1018E00005924269C9000A43426142690A40059271
:1018F000426949110A43426142690A4005924269BC
:10190000C9000A43426142690A400592426989104E
:101910000A4342614069274C084005900022214655
:101920002548FFF7AEF8254E002202213046FFF78A
:10193000A8F80927FF06002201213846FFF7A1F881
:101940000094002401250195029469461A480394E5
:10195000FEF7E6FF02200090029469460195039489
:101960003046FEF7DDFF0095029469463846019542
:101970000394FEF7D5FF072080020090019469468A
:1019800002940D48FEF7CCFF0420009001946946B4
:1019900002940B48FEF7C4FF7F20C0000090019422
:1019A000694602940748FEF7BBFF07B0F0BD000090
:1019B000001002400FE0000000080048001400483A
:1019C000000C00480004004810B5164C1448206074
:1019D000154860600020A060E0600C21206161611A
:1019E000A0610121C9032062E16160622046FFF726
:1019F00027FE2068016849084900016020684168A5
:101A000005225206114341602068016801221143FA
:101A100001602068016892031143016010BD00005D
:101A200000380140D000002000093D007047000050
:101A30008307FF22DB0E9A408907090E9940002890
:101A40000BDA0007000F0838830808489B001818B5
:101A5000C36993430B43C3617047830804489B00E9
:101A60001B181868904308431860704700ED00E0A9
:101A700000E400E07047704710B5FFF70FF810BDA5
:101A800070B598B034216846FEF761FB00240D94D0
:101A90000E940F941C2111A81094FEF758FB0125F9
:101AA00005200190009528040A90000102260B9061
:101AB00009960C946846FFF7D1F907200D900F9412
:101AC00001210E9610940DA8FFF7C4F811A81195E6
:101AD0001394FFF72FF818B070BD0000124801688A
:101AE0000122114301604168104A114041600168C0
:101AF0000F4A114001600168012292049143016084
:101B000041683F22120491434160C16A09090901F9
:101B1000C162016B074A11400163416B49084900EA
:101B20004163002181607047001002400CB8FF083B
:101B3000FFFFF6FE2CFEFCFF10B50248FFF7F8FB96
:101B400010BD000090000020F0B502681D4B01247C
:101B5000A4071D4D984203D0A04201D0A84203D152
:101B60007026B2434E683243184E194F98420DD03A
:101B7000A0420BD0A84209D0164CA04206D0B042D9
:101B800004D0B84202D0144CA04204D10324240251
:101B9000A243CC6822438024A2434C6922430260C2
:101BA0008A68C2620A688262984206D0B04204D053
:101BB000B84202D0084A904201D10969016301216B
:101BC0004161F0BD002C0140000400400040014094
:101BD00000440140002000400048014010B5818CC5
:101BE000C90707D001684A6801235B049A43836AE6
:101BF0001A434A60818C890707D501684A68012326
:101C00001B049A43C36A1A434A60818C490707D56B
:101C100001684A6801239B049A43036B1A434A6094
:101C2000818C090707D501684A680123DB039A43C1
:101C3000436B1A434A60818CC90607D502689168D4
:101C400001231B039943836B19439160818C89069F
:101C500007D501688A6801235B039A43C36B1A4363
:101C60008A60818C490612D503685A6801210905EA
:101C7000046C8A4322435A60026C8A4207D102688C
:101C8000516803235B059943436C19435160818C70
:101C9000090607D501684A680123DB04806C9A4372
:101CA00002434A6010BD0000F8B500260446C6662F
:101CB000FEF7EEFE054616492068884202D0154917
:101CC00088421DD10068144F000709D501212B4619
:101CD000002249052046009700F0D5F900280DD1D3
:101CE0002068006840070BD501212B46002289059A
:101CF0002046009700F0C7F9002801D00320F8BD66
:101D0000202060346072A07226720020F8BD0000AE
:101D10000038014000440040FFFFFF0110B5406A59
:101D20000022014640314A834A82FFF7EDFB10BD95
:101D300070B5446A25466035687A0026212808D1A6
:101D400020688068000604D552200653204600F023
:101D500072F8A87A222808D120688068400604D545
:101D60005A200653204600F04AF8E06E102108433E
:101D7000E0662046FFF7C8FB70BD10B50146096854
:101D8000406A0968890615D400225A210A5201685E
:101D90000A68FF2301339A430A6001688A6852087F
:101DA00052008A6001688A6840239A438A60202230
:101DB0006A210A54FFF734FD10BD10B5406AFFF7E1
:101DC00030FD10BD10B501460968406A09688906F2
:101DD0000DD4002252210A5201688A6880239A4356
:101DE0008A600068016840221143016010BDFFF75E
:101DF00065FD10BD10B5406AFFF761FD10BD0168BB
:101E00000A68FF2321339A430A6001688A685208EE
:101E100052008A60202160308172704710B50168DD
:101E20000A6840239A430A60202269210A54FFF776
:101E300045FD002010BD01680A68C0239A430A606E
:101E4000202160304172704770B50246403203462F
:101E50006033948B9D7A0168222D05D08869082211
:101E600010438861022070BD898C01268568360385
:101E7000B54202D10569002D0BD02140446D651C8F
:101E800045652170518B491E0904090C518307D007
:101E900015E0456D21402980416D891C4165F1E7C0
:101EA00001680A68FF242134A2430A6001688A6835
:101EB000520852008A6020219972FFF7B1FC00207D
:101EC00070BD0000F8B504462369A268E5691A43AD
:101ED000636910202B43002125681A432B680E46A6
:101EE000474F3B4013432B6023685A6803252D035B
:101EF000AA43E5682A435A60236AA26925681A43FF
:101F0000AB680B273F02BB431343AB603D4F2568D3
:101F10003D4B0203BD420AD11B6B9B079B0F20D098
:101F2000012B14D0022B14D0032B1BD10DE0374F03
:101F3000BD4210D11B6B03273F043B4011D09B1ABD
:101F400005D09B1A05D093420CD102200AE0042050
:101F500008E0082006E02E4B9D4202D02D4B9D420A
:101F600000D100200123E769DB039F4222D1002832
:101F70000CD002280DD0042813D0082817D0012631
:101F80000A0912010807400F10432EE0FEF712FF66
:101F900009E06168204A48088018FEF7A9F881B274
:101FA000EEE7FEF717FF616840004A08F4E7616852
:101FB0004808F1E7002808D0022809D004280CD0EE
:101FC000082815D001263046F8BDFEF7F3FE06E0DE
:101FD0006168124A480880180DE0FEF7FBFE616850
:101FE0004A088018FEF784F880B22168C860EAE7E2
:101FF00061684808C018FEF77BF880B2E860E2E745
:10200000F369FFEF00380140001002400044004037
:1020100000480040004C00400024F40000127A0008
:102020006921095C212901D0022070470246403213
:10203000518A002912D0012381681B03994202D1E1
:102040000169002915D0C16C4B1CC3640068097874
:102050000185508A401E50820020704701680A683E
:1020600080239A430A60006801684022114301609E
:10207000F2E7C16C03680988C905C90D1985C16CEF
:10208000891CC164E5E7FFB581B017460E460446DA
:102090000A9D1DE0681C1BD0002D05D0FEF7F8FC42
:1020A0000499401AA84213D920680168FF22A1327E
:1020B00091430160206881684908490081602020BF
:1020C00060346072A07200202072032005B0F0BD61
:1020D0002068C1693046884304D00020B842D9D076
:1020E0000020F3E70120F9E710B509480068C1694D
:1020F000890305D501214904016200F089F802E055
:102100000348FFF703FA0248FFF700FA10BD00008A
:10211000D00000200FB410B50846074A02A900F00D
:1021200020F8044602A9002000F02AF8204610BC3E
:1021300008BC04B01847000081210008004870471F
:102140008C00002002E008C8121F08C1002AFAD142
:1021500070477047002001E001C1121F002AFBD127
:102160007047F8B516460F460446002503E0394689
:10217000B047641C6D1C20780028F8D12846F8BDB3
:102180000A68531C0B601070704700001CB5FEF706
:102190008DFCFFF775FCFFF795FB1948416901229B
:1021A00011434161406910400022009011460A200D
:1021B000FEF7BCFC0A20FEF7AFFCFFF705FC00248D
:1021C000114800940F4901940160FF21E0318460BF
:1021D00041600E498461C160FFF76AF80094694666
:1021E00009480194FFF740F8FEF7EEF905E0FEF725
:1021F000FBF90028FBD0FEF79FF9FEF7D3F9F6E7CD
:102200000010024000100040900000200F27000046
:1022100010B5034C6068FFF74BF90120207010BD2A
:102220000000002000000000000000000102030484
:1022300006070809000000000102030400404040B6
:102240004040404040404141414141404040404089
:102250004040404040404040404040404005020235
:1022600002020202020202020202020202202020F4
:102270002020202020202002020202020202909050
:10228000909090901010101010101010101010104E
:1022900010101010101010100202020202028888A2
:1022A00088888888080808080808080808080808AE
:1022B0000808080808080808020202024000000096
:1022C0003D220008E42200080000002090000000E9
:1022D00044210008742300089000002068050000D5
:1022E0005421000800000000D00000206503000811
:1022F0007D03000895030008B5030008C903000822
:10230000E1030008F9030008290400085904000843
:1023100089040008B9040008ED0400080505000858
:10232000210500080000000000000000000000007F
:10233000000000000000000000000000000000009D
:10234000000000000000000000000000000000008D
:10235000000000000000000000000000000000007D
:1023600000000000000000000000000000127A00E1
:042370000000000069
:04000005080000C12E
:00000001FF
