:020000040800F2
:1000000070230020DD010008772F0008392F000839
:10001000752F00083F0300087D4D00080000000018
:10002000000000000000000000000000A72F0008F2
:10003000E903000800000000A52F0008A92F000810
:10004000F7010008F7010008F7010008F7010008B0
:10005000F7010008F7010008F7010008F7010008A0
:10006000F7010008F7010008F7010008F701000890
:10007000F7010008F7010008F7010008F701000880
:10008000F7010008F7010008F7010008490300081C
:1000900041030008F7010008F7010008F701000814
:1000A000F7010008F7010008F7010008F701000850
:1000B000F7010008F7010008F7010008F701000840
:1000C000F7010008F7010008F7010008F701000830
:1000D000F7010008C9370008F7010008F701000818
:1000E000F7010008F7010008F7010008F701000810
:1000F000F7010008F7010008F7010008F701000800
:10010000F7010008F7010008F7010008F7010008EF
:10011000F7010008F7010008F7010008F7010008DF
:10012000F7010008F70100089D030008F701000827
:10013000F7010008F7010008F7010008F7010008BF
:10014000F7010008F7010008F7010008992F0008DF
:10015000F7010008F7010008A9030008F7010008EB
:10016000F7010008F7010008F7010008F70100088F
:10017000F7010008F7010008F7010008000000007F
:10018000F7010008F7010008F7010008F70100086F
:10019000F7010008F7010008F7010008F70100085F
:1001A0000000000000000000F7010008F70100084F
:1001B000F7010008F7010008F7010008F70100083F
:1001C000F7010008F7010008DFF80CD000F07AF81A
:1001D00000480047814D00087023002006488047F2
:1001E00006480047FEE7FEE7FEE7FEE7FEE7FEE71C
:1001F000FEE7FEE7FEE7FEE769300008C9010008F8
:100200002DE9F05F0546002092469B46884606464B
:10021000814640241BE0284641464746224600F0DE
:1002200041F853465A46C01A914110D31146184618
:10023000224600F028F82D1A67EB01084F462246A7
:100240000120002100F01FF817EB00094E41201E8D
:10025000A4F10104DFDC484631462A464346BDE8A6
:10026000F09FD2B201E000F8012B491EFBD270478B
:100270000022F6E710B513460A4604461946FFF772
:10028000F0FF204610BD202A04DB203A00FA02F1DC
:10029000002070479140C2F1200320FA03F3194374
:1002A00090407047202A04DB203A21FA02F0002116
:1002B000704721FA02F3D040C2F120029140084376
:1002C00019467047064C074D06E0E06840F0010310
:1002D00094E8070098471034AC42F6D3FFF778FF54
:1002E000DC520008FC52000870B58C1810F8015B55
:1002F00015F0070301D110F8013B2A1106D110F8BF
:10030000012B03E010F8016B01F8016B5B1EF9D1C2
:100310002B0705D40023521E0DD401F8013BFAE748
:1003200010F8013BCB1A921C03E013F8015B01F8B3
:10033000015B521EF9D5A142D8D3002070BDFEE763
:10034000034800F055B800BF014800F051B800BFA5
:1003500078010020002070470020704710B50E4C37
:1003600000220549204603F037FB0449204603F0EC
:100370002DFB002010BD00BFE40B0020E403002093
:1003800010B5054C0146204603F020FB204603F043
:1003900000FB002010BD00BFE4130020014800F066
:1003A000FFB900BF80160020014800F0F9B900BF76
:1003B000E016002001686FF00F0252FA81F2182354
:1003C000B2FBF3FC5F2A40F2FF3321EA030104A3EE
:1003D00013F80C2088BF0431C0E916120846704794
:1003E0000006101600061016704770477047000090
:1003F0002DE9F84F044600684669D0F80490F107EB
:100400008768D0F80CB0D0F810A0D0F8188001D1CF
:10041000002549E0F9070ED00121BA07816007D411
:1004200078071DD4380721D4204600F0A0F902E057
:10043000204600F09DF90025F8051CD54FF480708A
:100440002168BA05886007D478050CD4380510D423
:10045000204600F08EF90EE0204600F08BF90AE00D
:100460004FF40065E8E705F5005504E04FF48055CA
:10047000E2E705F58045F80316D54FF48030216892
:10048000BA03886007D4780309D438030AD4204615
:1004900000F071F908E0204600F06EF904E005F57F
:1004A000004501E005F58035300707D51BF0100049
:1004B00004D02068102145F40075C160700708D58C
:1004C0001BF0080005D020680821C160204600F01C
:1004D00049F9B00706D52068C068800702D02046D9
:1004E00000F041F9700607D51AF0100004D020681A
:1004F000102145F480650161B00608D51AF00800A6
:1005000005D0206808210161204600F02DF9F00691
:1005100006D520680069800702D0204600F025F942
:10052000B00308D519F0100005D0206810214160F3
:10053000204600F01BF9F00308D519F0080005D09B
:10054000206808214160204600F017F9300440D5AA
:100550005FEA49703AD506F4807008EA1020284313
:100560005FEA8871014648BF41F00201B20558BFF9
:1005700001465FEA48700D4648BF45F00405700526
:1005800058BF0D46300521D518F070001ED0103828
:100590000009052815D8DFE800F00306090C0F1242
:1005A00045F008050DE045F010050AE045F020058E
:1005B00007E045F0400504E045F0800501E045F422
:1005C00080752068816921F07001816120680421B3
:1005D00041603DB1606A284360622046BDE8F84F43
:1005E000FFF704BFBDE8F88FB0B5C0B1044690F87E
:1005F000200010B9204600F073F82068016821F04F
:100600000201016000F0E6FA0546206841688907AA
:1006100007D500F0DFFA401B0B28F6D311E00120CC
:10062000B0BD016841F00101016000F0D3FA054658
:1006300020684168C9070BD100F0CCFA401B0B2899
:10064000F6D3606A40F4003101206162052143E085
:10065000217E026822F08003012908BF42F0800356
:100660000360617E026822F04003012908BF42F066
:1006700040030360A17E026822F02003012908BF25
:1006800042F020030360E17E026842F0100301297A
:1006900008BF22F010030360217F026822F00803E4
:1006A000012908BF42F008030360617F026822F05D
:1006B0000403012908BF42F00403036004F10803A6
:1006C0000ECB114362691943636811435A1E1143EB
:1006D000C16100200121606284F82010B0BD0000DB
:1006E000B0B586B004461D4D01A81421FFF7C0FD2A
:1006F0002068A84230D11A48016941F000710161B7
:10070000016901F0007100910099016841F0080150
:1007100001600221006800F00800009000980320AA
:10072000019002910021CDE903100920059005F503
:10073000D43001A900F086F913200021002200F036
:1007400077FB132000F068FB14200021002200F04A
:100750006FFB142000F060FB06B0B0BD00640040E9
:100760003038024070477047704770477047704795
:1007700070477047704770477047704790F8351062
:10078000022909D1052180F835100068016821F09F
:100790000101016000207047802141650120704700
:1007A000F8B500210091044658490D680821D0E9A8
:1007B00016603768814039420CD0226813685B07A5
:1007C00008D5136823F004031360B160616D41F034
:1007D0000101616501218140394208D022685269D6
:1007E000120604D5B160616D41F00201616504211A
:1007F0008140394208D022681268920704D5B1605E
:10080000616D41F00401616510218140394217D0CA
:1008100020680268120713D5B160016849030168B6
:1008200006D4C90506D4016821F00801016001E081
:10083000080301D4216C00E0A16C09B1204688476F
:10084000E16D202000FA01F23A423BD020680368B3
:10085000DB0637D5B26094F83520052A026819D135
:1008600022F016020260426922F080024261226C8C
:100870000AB9A26C1AB1026822F0080202603F2095
:100880008840B060002084F83400012084F83500EE
:10089000216D37E0510301680CD4C9050ED40168FD
:1008A00021F010010160002084F83400012084F858
:1008B000350003E0080301D4616C00E0E16B09B18D
:1008C00020468847606D00B3606DC00719D04FF4B3
:1008D0001650B5FBF0F0052184F8351021680A6840
:1008E00022F001020A60009A01328242009202D88C
:1008F0000A68D207F7D1002084F83400012084F878
:100900003500E16C09B120468847F8BD3000002071
:1009100070B5044600F05EF9002C48D00546002072
:1009200084F83400022084F835002168086820F03B
:100930000100086005E000F04DF9401B052838D89B
:1009400021680868C007F6D10868354A1040D4E924
:1009500001231043E268184323691043626903438B
:10096000A0691A43E36902431343D4E90852042AF5
:1009700043EA050321D1D4E90BE543EA0E03A26A59
:100980002B430B60BEF1000F51F8143F23F003031B
:1009900043EA020343F0040C16D0B0F5005F24D004
:1009A00098BB022A34D0012A29D08AB30CE0012056
:1009B00070BD03252023032013E00B6051F8140FB2
:1009C00020F0070040EA020C2046C1F800C0FFF703
:1009D000F1FCE16D3F2202FA01F100238160012563
:1009E0000020636584F8355070BD032AECD80125DA
:1009F00040230120DFE802F0020C0203F1E7AEF130
:100A0000C070B0FA80F0400904E0032A04D3DBD1BF
:100A1000CEF300600028D7D0012540230120E0E775
:100A20003F8010F0B0B5044600F0D4F8ED49621CE8
:100A30000978054618BF0C4400F0CCF8401BA042D2
:100A4000FAD3B0BD2DE9F84F5C4A4FF00A0C5C4C6C
:100A500002444FEAB223A04208BF4FF0090C092B11
:100A600038BF4FEAB22C4FF000084FF0010A4FF0A8
:100A7000000B002496E00AFA04F70A683A4200F0F4
:100A80008C804A6842F01005122D13D16FF00302DA
:100A900002EA540202440BF01C05166A0F2303FA03
:100AA00005FE26EA0E0E0E6906FA05F545EA0E0663
:100AB00016624A680323066803FA08F502F0030386
:100AC000AE4303FA08F33343122A03606FEA0505C5
:100AD00012D80AFA02F313F0061F0DD08368CE680D
:100AE0002B4006FA08F6334383604368C2F30016CE
:100AF000BB43A64033434360C368D2008E6803EA19
:100B0000050306FA08F643EA0603C36045D5284AFA
:100B100013462C4D1268A94642F480421A601A68A6
:100B200024F0030302F480420092234A96461A44BA
:100B3000009B0BF00C0356590F259D40AE430CFA59
:100B400003F3334342F80930DEF800204B6842EAF1
:100B50000706DD0358BF22EA07069D03CEF80060B2
:100B6000DEF8042042EA070658BF22EA0706DD0243
:100B7000CEF80460DEF8082042EA070658BF22EAF1
:100B800007060C4A1546CEF808609B02126842EA36
:100B9000070658BF22EA07062E6001340BF1040B4A
:100BA00008F10208102C7FF466AFBDE8F88F00BF93
:100BB000443802400C3C0140003C01400000FEBFB4
:100BC0000024024008FCFFFF002A08BF09048161DD
:100BD000704700006C480068704700BF90F84120E3
:100BE000202A03D190F84020012A01D1022118E0E7
:100BF000242280F841200268136823F00103136067
:100C0000136823F48053136013681943116011684B
:100C100041F001011160202180F84110002180F88D
:100C200040100846704790F84120202A03D190F8E0
:100C30004020012A01D1022117E0242280F841201E
:100C40000268136823F001031360136823F47063D0
:100C500043EA01211160116841F001011160202176
:100C600080F84110002180F84010084670470000CD
:100C700008B310B5044690F8410028B9002084F864
:100C80004000204600F044F8242084F8410094E815
:100C90000910E268012A016821F00101016023F0D6
:100CA00070610161816821F40041816005D14CF4DB
:100CB0000041816009E0012070474CF40441022AA0
:100CC000816002D14FF40061416041680F4A04F134
:100CD000100311434160C16821F40041C1600ECB93
:100CE0001143E26941EA0321C160216A11430160B5
:100CF000016841F00101016000202021606484F856
:100D00004110206384F8420010BD00BF0080000243
:100D1000B0B586B00446164D01A81421FFF7A8FA15
:100D20002068A84221D1134C206801A940F002009C
:100D30002060206800F0020000900098C020019020
:100D400012200290012003900320049004200590BB
:100D500005F5D830FFF776FE206940F400102061D9
:100D6000206900F400100090009806B0B0BD00BFEC
:100D700000540040303802401A48007802490A689E
:100D800010440860704700BF681D002080B5032034
:100D900000F06EF8002000F005F800F025F80020C3
:100DA00080BD000070B50F4E4FF47A723178044662
:100DB000B2FBF1F10A4A1268B2FBF1F1084601F008
:100DC000E5FC0F2C4FF0010508D838B94FF0FF3083
:100DD00000222146002500F02BF87460284670BDE3
:100DE000300000200800002082B00A48016841F06D
:100DF00080510160016801F08051019101994168C1
:100E000041F480414160406800F4804000900098C7
:100E100002B070474038024000F01F01012202FA80
:100E200001F1024A400942F82010704700E100E059
:100E300080B5154B1B68C3F3022C8CF0070EBEF176
:100E4000040F28BF4FF0040EBCF103034FF0FF3C2A
:100E500038BF00230CFA0EFE21EA0E0199400CFA6D
:100E600003F39A431143BDE8804002F085B800BF08
:100E700005490A684FF6FF031A4060F30A22034847
:100E800010430860704700BF0CED00E00000FA0559
:100E900001220168C0F8F823002280F8F023054AF7
:100EA000886940F000608861486D024300204A650F
:100EB000704700BF0300001010B50129044615D08B
:100EC00031BB206A30B102F071F81248016821F09C
:100ED000060101602068D0F8001E21F00101C0F871
:100EE000001ED4F8FC0303F045F810BD2068D0F8CC
:100EF000001E41F00101C0F8001ED4F8FC0303F00D
:100F0000B1F8206A20B10348016841F00601016090
:100F100010BD00BF10ED00E0026800205162704774
:100F2000D0F800C00029DCF824001BD080B5DCF824
:100F30002830A1F1010E00EB1343002006E00CEB7A
:100F40008101D1F80411013003EB1143C1B28E4588
:100F5000F5D843EA02400CEB8E01C1F80401BDE86C
:100F6000804003E040EA0240CCF8280000207047AF
:100F7000D0F8FC0302F057BFC1EBC102D0F8FC333C
:100F800000EB8200826C184602F0AEBEC1EBC102DB
:100F9000D0F8FC3300EB8200D0F80822184602F0AB
:100FA00004BFD0F8FC0302F040BF10B5044601F0C6
:100FB0000F000A06C0EBC00104EB810205D4002338
:100FC00002F5FE7182F8FD3104E0012302F13C01DB
:100FD00082F83D3094F8BC230870012A01D1022028
:100FE00010BD012084F8BC03206803F031FB002011
:100FF00084F8BC0310BDB0B5044601F00F00626870
:10100000904201D9012525E0090609D4C0EBC001B1
:1010100004EB8102002302F5FE7182F8FD3108E045
:10102000C0EBC00104EB8102012302F13C0182F814
:101030003D3094F8BC2300258D70012A087001D141
:10104000022507E0012084F8BC03206803F0BBFC04
:1010500084F8BC532846B0BD01F00F01C1EBC101BB
:1010600000EB8100B0F814027047B0B5054601F0FE
:101070000F000C06C0EBC00105EB810C06D44FF04D
:10108000000E0CF5FE718CF8FDE105E04FF0010E4D
:101090000CF13C018CF83DE04C780870002C8A6023
:1010A000CB7018BFC880022B04BF0020087195F8D0
:1010B000BC03012801D10220B0BD012085F8BC038A
:1010C000286803F019FA002085F8BC03B0BD80B58C
:1010D00001F00F0CCCEBCC0100EB810E0021CEF81F
:1010E0000822CEE9843103698EF8FD11012B0EF53B
:1010F000FE718EF8FCC101D1CEF80C22DAB2006884
:10110000BCF1000F02D003F0A9FC01E003F0C6FB24
:10111000002080BDB0B50446406801F00F0585424F
:1011200001D90120B0BD080609D4C1EBC10004EB10
:101130008000002200F5FE7180F8FD2108E0C5EB7B
:10114000C50004EB8000012200F13C0180F83D2045
:1011500094F8BC2301208870012A0D7001D102206F
:10116000B0BD84F8BC03206803F058FC2DB9217C85
:1011700004F57072206803F007FC002084F8BC03BB
:10118000B0BD10B501F00F0CCCEBCC0100EB810E23
:10119000714601F83CCF0024C1E9053403690124FC
:1011A000012BCA604C7001D1CEF84C20DAB2006835
:1011B000BCF1000F02D003F051FC01E003F06EFB24
:1011C000002010BD2DE9F04F87B0066883463046F9
:1011D000346C03F056FD10B107B0BDE8F08FDBF8BA
:1011E000000003F07AFD0028F6D0DBF8000003F0E1
:1011F00074FD8007DBF8000003D5416901F00201AE
:10120000416103F06AFD0003039602D44FF0000A27
:1012100099E0DBF80000DC4D03F03EFD05F5807140
:1012200006F5306906910BF57071CDF814900BF549
:10123000057804914FF0000A074680E0F80777D060
:101240005FFA8AF5DBF80000294603F03EFD06460A
:10125000C00740D00120C9F80800CB488442DBF821
:1012600010000AD9012816D105988068000406D517
:101270004FF40040C9F8080001E001280BD1D9F86B
:1012800010006FF3DF4058E90412081AC8F8000094
:10129000501848F80C0C0698844203D105988068D1
:1012A000000404D458462946FFF770FE03E04FF4CB
:1012B0000040C9F80800BAF1000F0CD1DBF81000AB
:1012C000012808D1DBF8100228B9DBF80000012161
:1012D000049A03F059FB300720D50698844208D1C0
:1012E00005988068000407D54FF40040C9F808004D
:1012F00002E0A54884420BD9DBF81000012807D191
:1013000005988068000403D54FF40040C9F8080030
:10131000584600F0CFFB0820C9F80800F00602D5B7
:101320001020C9F80800B00602D52020C9F808002E
:101330000AF1010A7F0809F1200908F11C08002FB1
:101340007FF47CAF039EDBF8000003F0C6FC400393
:1013500040F1BB80DBF8000003F097FC06F5106459
:101360000BF5707102944FF0000A01910746A9E055
:10137000F80700F0A4805FFA8AF1DBF8000006911C
:1013800003F091FC0546C0072DD00AF00F00D6F8F7
:101390003418012202FA00F021EA0000C6F83408ED
:1013A00004EB4A108260DBF81000012807D1CAEB79
:1013B000CA000BEB8000D0E9111211448164584639
:1013C0000699FFF7D9FDBAF1000F0CD1DBF8100038
:1013D000012808D1DBF8500028B9DBF80000012112
:1013E000019A03F0D1FA280703D504EB4A1008212B
:1013F0008160E80603D504EB4A101021816068067D
:1014000003D504EB4A1040218160A80703D504EB03
:101410004A1002218160280651D5CAEBCA00DBF8C8
:1014200000500BEB8008049758F8441FC14644460F
:1014300059F80C2F54F8100F5346A2EB000A8A45B6
:1014400088BF8A4605EB43115E46059301F5106B94
:1014500008F1040716E0A1EB000AD8F80000824565
:10146000327C88BF824639681FFA8AF30092284688
:10147000069A03F070FC386850442168386001EB2C
:101480000A002060DBF818100AF1030289B2B1EB00
:10149000920F84BFD9F800108142DCD8BAF1000F56
:1014A0000DF1080AB3469AE8D00408D10120D5F816
:1014B000341800FA0AF021EA0000C5F834080AF1ED
:1014C000010A7F08002F7FF453AFDBF8000003F020
:1014D00004FC002802DBDBF800001AE0D6F8040860
:1014E00020F00100C6F804089BF8F003012807D19A
:1014F00000208BF8F00300215846FFF7DDFC02E0E6
:10150000584600F0BBFADBF80000416901F00041E9
:10151000416103F0E2FB000502D4DBF800000CE0BF
:10152000D6F80808C00702D0584600F0DFFADBF80A
:101530000000416901F40061416103F0CEFB00014C
:1015400018D5DBF80000416901F0006141619BF8AA
:10155000F01319B1584600F0C9FA0BE001218BF8DD
:10156000F0130121406DC0F38300CBF8F40358461B
:10157000FFF7A2FCDBF8000003F0AFFBC00405D4CA
:10158000DBF8000053E000BF0A30544FD6F80408DF
:10159000102120F00100C6F8040806F50065DBF80C
:1015A000000003F049FB06F51060DBF804104FF66D
:1015B0007F320EE082600139036823F40013036078
:1015C000C0F80822D0F8003223F40013C0F800322B
:1015D00020300029EED1E86940F00110E861DBF825
:1015E000300040B1D5F8840040F00B00C5F884000D
:1015F00005F1440005E0686940F02B00686105F1E1
:10160000100001680BF5707241F00B010160286851
:1016100020F4FE6028609BF81010DBF8000003F057
:10162000B3F9DBF80000416901F48051416103F036
:1016300054FB8004DBF8000040F1848002F09EFF40
:10164000DBF80000C16821F47051C16003F006FBB3
:1016500098B10320CBF80C004020CBF8140000F028
:1016600073FD8749874A01449142DBF8001012D884
:1016700051F80C0F40F470505AE00020CBF80C00E9
:101680004FF40070CBF81400DBF8001051F80C0F89
:1016900040F410504CE07C4A7C4B02449A4204D8FF
:1016A00051F80C0F40F4605042E0794A794B024403
:1016B0009A4204D851F80C0F40F4505038E0764A62
:1016C000764B02449A4204D851F80C0F40F4405033
:1016D0002EE0734A734B02449A4204D851F80C0F1F
:1016E00040F4305024E0704A704B02449A4204D8CF
:1016F00051F80C0F40F420501AE06D4A6D4B024433
:101700009A42C3D96C4A6D4B02449A4204D851F8AC
:101710000C0F40F400500BE0694A1044694A9042B3
:1017200051F80C0F02D840F4E05001E040F4C050F2
:101730000860584600F092F9DBF80000416901F4B6
:101740000051416103F0C9FAC006DBF800003ED544
:10175000816921F010018161356AC5F3434005F0CC
:101760000F0406281CD002282BD147F6F070054044
:1017700027D0C4EBC4000BEB8004D4F808122A096C
:10178000304603F0AEFAD4F80802D4F8141200EB95
:101790001510C4F8080201EB1510C4F8140210E08B
:1017A0000BF570710822304603F09BFAC4EBC401BC
:1017B000C5F30A100BEB8101D1F814221044C1F8D3
:1017C0001402DBF80000816941F01001816103F02F
:1017D00084FA000702D4DBF8000008E0584600F065
:1017E00051F9DBF80000416901F00801416103F0A3
:1017F00074FAC00202D4DBF800000AE05FFA8AF152
:10180000584600F061F8DBF80000416901F48011EE
:10181000416103F062FA800202D4DBF800000AE0C2
:101820005FFA8AF1584600F053F8DBF8000041698E
:1018300001F40011416103F050FA400002D4DBF8DA
:10184000000008E05846FFF793FBDBF80000416911
:1018500001F08041416103F040FA40077FF5BCACE4
:10186000DBF8000050F8044F610705D55846FFF734
:1018700098FBDBF800000430016821430160ABE411
:10188000405327FFFF340C00401E1BFF3F420F0058
:1018900000DC0BFF7F4F1200808CF9FE1FD6130077
:1018A00060B6E5FE5FE3160000D3CEFE3F771B0077
:1018B000C05BB3FEBF91210000CA91FE1F753800C6
:1018C000E05459FEDF9C4100D0F8FC0302F002BB5B
:1018D000D0F8FC0302F000BB002800F083802DE963
:1018E000F04F8BB0044690F8BD0328B9002084F86F
:1018F000BC03204600F078F8032084F8BD0320687C
:1019000002F0C4FF206804F1040E0A9004F11C0ADE
:101910009EE80E589AE8C007D4E90C50CDE908506B
:1019200003A88DE8005880E8C0070A9802F042FE3C
:1019300020680021002503F0E6F9012000210022A3
:101940000DE0631883F83D001C3183F83C20A3F8B8
:101950004220013283F83F50C3E911551D650F2A1B
:10196000EFD10020002100220CE0631883F8FD0174
:101970001C3183F8FC21013283F8FF01C3E98100A7
:10198000C3F810020F2AF0D12068271D0A9004F135
:10199000140E8ECF9EE8405804F1240A9AE80007FE
:1019A000D4E90C50CDE9085002A8CDE9007680E8D2
:1019B000005805A880E800070A9802F09FFE002062
:1019C00084F83800012084F8BD03606A012802D140
:1019D0002046FFF75DFA206802F084FE00200BB07D
:1019E000BDE8F08F012070470068B0F1A04F18BF2C
:1019F000704780B588B04FF4C05003900220049027
:101A000000200590032006900A2003A907901148A2
:101A1000FFF718F810480168002241F080010160CA
:101A2000016801F0800102910299016941F480414D
:101A300001610021006900F4804001900198432079
:101A4000FFF7F6F94320FFF7E7F908B0BDE880405B
:101A5000704700BF000002403438024010B5C16832
:101A60000446002918BF0121D0F8FC0302F097FAC0
:101A7000D4F8FC03BDE8104002F052BAD0F8FC03E1
:101A800002F078BAD0F8FC0302F07BBA10B5044635
:101A900090F8BC03012801D1022010BD012084F878
:101AA000BC0384F83810206803F044F9002084F85F
:101AB000BC0310BDD0F8FC2300F57071104602F095
:101AC00083BA10B5044690F8BC03012801D1022066
:101AD00010BD012084F8BC03206802F0F7FD2068E7
:101AE00003F092F8002084F8BC0310BD10B5044642
:101AF000D0F8FC0302F0B6FA2068D0F8001E41F0DE
:101B00000101C0F8001E206A20B10348016841F0BD
:101B10000601016010BD00BF10ED00E0BCB5184823
:101B20000168D14D41F080510160006800F08050A3
:101B300001900198286840F480302860FFF74AF847
:101B400004466868C00306D4FFF744F8001BB0F5EC
:101B50007A7FF6D90FE0286840F400302860FFF75C
:101B600039F804466868800307D4FFF733F8001B90
:101B7000B0F57A7FF6D9032000E0002002B0B0BDB6
:101B8000403802402DE9FC47D0F800A004465FEA47
:101B9000CA70B44E02D14FF000090BE0B06820F4D7
:101BA0000000B060606BB1680143B0FA80F0B160D2
:101BB0004FEA50195FEA0A3002D44FF0000813E0F0
:101BC000D6F88C0020F44011E06B0143B0F5801F83
:101BD000C6F88C1004D14FF000084FF0010903E063
:101BE000B0FA80F04FEA50185FEACA2011D5D6F853
:101BF0008C0020F44001206C0143B0F5800FC6F842
:101C00008C1002D14FF0010903E0002808BF4FF00B
:101C100001085FEA8A60504655D5306C924F40F01B
:101C200080503064306C00F080500190019838682A
:101C300040F480703860FEF7CDFF05463868C00577
:101C400005D4FEF7C7FF401B6428F7D9DBE1306FEE
:101C500010F4407023D0216B01F4407188421ED0F3
:101C6000306F316F20F4407041F480313167316F53
:101C700021F4803131673067306FC0070FD0FEF735
:101C8000A9FF054641F28837306F800707D4FEF779
:101C9000A1FF401BB8424FF00300F5D9B6E1216B1C
:101CA000DC4D206801F44072B36801EA050723F4B3
:101CB000F813B2F5407F08BF3B436FF31F31B360A9
:101CC000326F11433167C1060BD5D6F88C1021F065
:101CD0008071C6F88C10A16BD6F88C201143C6F821
:101CE0008C10410407D5D6F8901021F44031626E73
:101CF0001143C6F89010010407D5D6F8901021F4CE
:101D00004021A26E1143C6F89010C10307D5D6F842
:101D1000901021F44011E26E1143C6F89010810337
:101D200007D5D6F8901021F44001226F1143C6F870
:101D30009010410607D5D6F8901021F00301626C8F
:101D40001143C6F89010010607D5D6F8901021F07F
:101D50000C01A26C1143C6F89010C10507D5D6F846
:101D6000901021F03001E26C1143C6F8901081050B
:101D700007D5D6F8901021F0C001226D1143C6F8A6
:101D80009010410507D5D6F8901021F44071626D8E
:101D90001143C6F89010010507D5D6F8901021F42C
:101DA0004061A26D1143C6F89010C10407D5D6F862
:101DB000901021F44051E26D1143C6F89010810457
:101DC00007D5D6F8901021F44041226E1143C6F891
:101DD0009010410207D5D6F8901021F08061A26FD3
:101DE0001143C6F8901081020CD5D6F8901021F05E
:101DF0000061E26F1143B2F1006FC6F8901008BFA6
:101E00004FF00108410307D5D6F8901021F040713A
:101E1000626F1143C6F8901001020AF0807108D574
:101E2000D6F8902022F08052D4F880301A43C6F8B9
:101E3000902031B9B9F1000F03D1B0F1007F40F02B
:101E40008380306820F080603060FEF7C3FE054676
:101E5000306800010AD5FEF7BDFE401B6428F7D9A3
:101E6000D1E000BF00380240007000402068C10788
:101E700012D0616B81B9D6F88410D6F8842001F4B1
:101E8000403102F0706263681144A26841EA831134
:101E900041EA0271C6F88410010303D5E16BB1F584
:101EA000801F05D0C1021DD5216CB1F5800F19D15D
:101EB000D6F88410D6F8842001F4403102F0E042D4
:101EC000E3681144626841EA8211626A41EA03618F
:101ED000C6F88410013AD6F88C1021F01F01114386
:101EE000C6F88C10C10110D5D6F88410D6F884201D
:101EF00001F0706102F0E04263681144226941EA36
:101F0000831141EA0241C6F8841080010CD5206992
:101F100061680004E26840EA8110A16840EA02605A
:101F200040EA0170C6F88400306840F0806030609C
:101F3000FEF750FE05463068000105D4FEF74AFE64
:101F4000401B6428F7D95EE0B8F1000F5DD030681F
:101F500020F080503060FEF73DFE0546306880007E
:101F600005D5FEF737FE401B6428F7D94BE0206803
:101F7000010301D5E16B19B1C1021ED5216CE1B994
:101F8000D6F88810D6F8882001F4403102F0E042FB
:101F90001144D4E9052341EA8211A26A41EA0361AE
:101FA000C6F888106FF0FF03D6F88C1003EB0222FE
:101FB00021F4F8511143C6F88C10800214D5E06F5B
:101FC000B0F1006F10D1D6F88800D6F8881000F074
:101FD000706001F0E04162690844216A40EA8210C1
:101FE00040EA0140C6F88800306840F08050306018
:101FF000FEF7F0FD04463068800006D4FEF7EAFDE7
:10200000001B6528F7D3032000E0002002B0BDE8E4
:10201000F08700BFFFFCFF0F2DE9F041002800F022
:102020008A800446464FD7F8000400F00F00884627
:1020300088420DD2D7F8000420F00F0040EA0800D3
:10204000C7F80004D7F8000400F00F00404572D133
:102050002068810711D5410703D5B96841F4E051E3
:10206000B960010703D5B96841F46041B960B96846
:1020700021F0F001A2681143B960C00726D0606862
:10208000012803D13968890308D454E0022839684B
:1020900002D1890102D44EE089074CD5B96821F0FC
:1020A00003010843B860FEF795FD064641F2883506
:1020B000B86800F00C006168B0EB810F06D0FEF745
:1020C00089FD801BA842F3D9032435E0D7F800042A
:1020D00000F00F0040450DD9D7F8000420F00F00A4
:1020E00040EA0800C7F80004D7F8000400F00F0029
:1020F000404520D12068410705D5B96821F4E05159
:10210000E2681143B960000706D5B86820F4604062
:10211000216940EAC100B86000F032F8B9680024D3
:10212000C1F30311074A515CC840134908600020FD
:10213000FEF738FE00E001242046BDE8F08100BF34
:1021400000380240C45200080B480068704700BFC6
:102150000948444900680968C1F38221074A515C73
:10216000C840704704483F4900680968C1F34231DC
:10217000024A515CC840704730000020D452000829
:1021800010B5134C606800F00C011248082903D008
:1021900004291CD1104810BD2268236802F03F02B8
:1021A00021685B02C1F3881105D4A1FB0001002363
:1021B000FEF726F803E008484843B0FBF2F0216838
:1021C0000222C1F3014102EB4101B0FBF1F010BD6D
:1021D000043802400024F40000127A0070B586B082
:1021E0000028204E204814460D461CD0B16A00F548
:1021F000006041F00401B162B16A01F00401019193
:1022000001994FF40071019102210291032104917F
:1022100000210391059101A9FEF714FC3068E40048
:1022200020F0784018E0B16A41F00101B162B16A72
:1022300001F00101019101994FF480710191022196
:1022400002910321049100210391059101A9FEF758
:10225000F9FB306820F0EC6044EA05010843306087
:1022600006B070BD08380240000002402DE9FC4174
:10227000002800F0B38004460078BC4EC0074BD065
:10228000B06800F00C00042817D0B06800F00C0013
:10229000082802D1706840020FD4606898B1B0F588
:1022A000803F06D0B0F5A02F306822D140F48020C6
:1022B0003060306840F4803021E0306880032BD5F6
:1022C000606848BB8AE0306820F480303060306855
:1022D00020F480203060FEF77DFC054630688003E6
:1022E0001AD5FEF777FC401B64284FF00300F5D9A0
:1022F00038E120F480303060306820F48020306095
:10230000FEF768FC05463068800305D4FEF762FCE2
:10231000401B6428F7D9F3E0207880072DD5B068FA
:1023200010F00C0F07D0B06800F00C00082809D19D
:102330007068400206D43068800717D5E06801282D
:1023400014D04BE0E0680028306800F09B8040F03B
:1023500001003060FEF73EFC05463068800705D47A
:10236000FEF738FC401B0228F7D9C9E0306820F09E
:10237000F800216940EAC10030602078000721D5CB
:1023800060690028706F0ED040F001007067FEF7A2
:1023900021FC0546706F800714D4FEF71BFC401B20
:1023A0000228F7D9ACE020F001007067FEF712FCBC
:1023B0000546706F800705D5FEF70CFC401B022810
:1023C000F7D99DE0207840070AD4A569002D00F0D8
:1023D000C880B06800F00C00082834D10120C1E0AA
:1023E000306CC0000BD4306C4FF0010840F08050CE
:1023F0003064306C00F080500190019801E04FF0A3
:1024000000085B4F3868C0050FD4386840F480700E
:102410003860FEF7DFFB05463868C00505D4FEF7D7
:10242000D9FB401B6428F7D96AE0A068E0B3012813
:1024300005D00528306F4FD140F004003067306F71
:1024400040F001004EE0306820F080703060FEF710
:10245000C1FB022D05460AD1306880015BD5FEF72D
:10246000B9FB401B02284FF00300F5D97AE0306831
:10247000800176D5FEF7AEFB401B03284FF003002A
:10248000F5D36FE020F001003060FEF7A3FB0546B6
:10249000306880077FF571AFFEF79CFB401B022878
:1024A0004FF00300F4D95DE0306F20F00100306799
:1024B000306F20F004003067FEF78CFB054641F2D8
:1024C0008837306F80071DD5FEF784FB401BB8426C
:1024D0004FF00300F5D945E020F001003067306F80
:1024E00020F004003067FEF775FB054641F288379F
:1024F000306F800706D4FEF76DFB401BB842F7D95A
:1025000003202FE0B8F1000F3FF45FAF306C20F0F4
:102510008050306459E7A06A4FF6FF71C003E2694A
:102520008843216A636A1143E26A41EA8311A0F594
:10253000803041EA0261084340F00050706030682A
:1025400040F080703060FEF745FB04463068800143
:1025500007D4FEF73FFB001B02284FF00300F5D91C
:1025600000E0002002B0BDE8F08100BF003802406A
:1025700000700040F0B110B504460020A06294F84D
:102580005D1021B984F85C00204600F049F8022073
:1025900084F85D002068D4F80CE00268BEF5E06FB6
:1025A00022F04002026007D9BEF5706F4FF0000CB8
:1025B00005D106E0012070474FF4805C01D0002374
:1025C000A362236B2BB90123BEF5E06F88BF022302
:1025D0002363D4E9013221691A4363691143A26973
:1025E000194302F400731943E3691943236A194339
:1025F000A36A19430423016003EA1242636A4CEAA6
:102600000E011143626B194311434160C16921F40A
:102610000061C16100200121206684F85D1010BDB9
:102620002DE9F04387B0044602A81421FDF720FEEF
:1026300020685149884226D0504988425CD0504990
:10264000884240F095804F48416941F48051416192
:10265000416901F4805101910199016841F0010142
:10266000016002A9006800F0010001900198E020DB
:102670000290022003900020049003200590052082
:102680000690414872E03F48016902AC41F4804144
:102690003D4F0161022501694FF0000801F48041BE
:1026A00001914FF0030901990526016841F00401E9
:1026B0000160016801F0040101910199016841F094
:1026C000020101602146006800F0020001900198BB
:1026D00007F50060CDE90255CDF81080CDF81490D3
:1026E0000696FEF7AFF94FF4806002A981E8210356
:1026F000069607F5806038E0F74801694FF0020858
:1027000041F40041204D016100260169032701F4D5
:102710000041019102AC0199016841F002010160A0
:10272000016801F0020101910199016841F0040181
:1027300001602146006800F0040001900198042027
:1027400002900720CDF80C8004960597069005F5B9
:102750008060FEF777F94FF48060CDE9020806202B
:10276000CDE90467069005F500602146FEF76AF999
:1027700007B0BDE8F08300BF00380040003C0040D7
:10278000003001403038024000000240411E00206D
:10279000B0EB116F01D001207047044A5160F02165
:1027A000034B1970072190601160704710E000E042
:1027B00023ED00E090F83C20012A01D1022144E001
:1027C00010B5D0F800C0C24C4CF48063CA68A34274
:1027D0008B684C6822F47C5223F470536FF3D3243B
:1027E00042EA030242EA04020C6824F47F2442EA2B
:1027F00004020C6924F47E2442EA04024C6942EA91
:1028000004028C6A22F47C2224F470244FF0010329
:1028100042EA04028C6980F83C3042EA04430DD15C
:1028200023F07C724B6A0A4C04EA0353CC691A43C6
:1028300024F00073096A1A4342EA01030021CCF82C
:10284000443080F83C10BDE810400846704700BF97
:102850000000F0FC90F83C20012A01D102211FE089
:1028600010B50123026880F83C3042F4806C536854
:10287000974CA445D2F808C002BF23F470034C68FB
:10288000234323F070030C68234389682CF08004F1
:10289000536021439160002180F83C10BDE8104056
:1028A00008467047B0B110B5044690F83D0028B90D
:1028B000002084F83C00204600F00EF8022084F846
:1028C0003D00211D206800F0F5FB012084F83D004B
:1028D000002010BD0120704782B000687C4988420A
:1028E0000DD07C49884214D10B48016841F00101A8
:1028F0000160006800F001000190019809E00648BD
:10290000016841F002010160006800F002000090DF
:10291000009802B0704700BF4438024010B504462A
:1029200090F83C0001284FF0020000F08A8001225C
:1029300084F83C20434A84F83D00206883681340B3
:1029400083600B68BBB1102B1BD0202B1FD0302B0A
:1029500023D0402B27D0502B31D0602B3BD0702B75
:1029600045D0B3F5005F56D0B3F5805F63D1816881
:10297000354A11405EE0816841F0070121F07001A5
:1029800058E0816841F0170121F0600152E0816850
:1029900041F0270121F050014CE0816841F03701FE
:1029A00021F0400146E04B68CA68194600F0FAFC85
:1029B0002068816841F0470121F030013AE04B681E
:1029C000CA68194600F0EEFC2068816841F05701A2
:1029D00021F020012EE04B68CA68194600F0F3FC94
:1029E0002068816841F0670121F0100122E0D1E9FF
:1029F00001C3D1F80CE043EA0C03816843EA0E23DB
:102A000021F47F411943816002F57F4281681140C2
:102A100041F077010EE0D1E901C3C96843EA0C0334
:102A2000826843EA012122F47F4211438160816878
:102A300041F480418160012084F83D00002084F849
:102A40003C0010BD8800FEFFF8FFFEFF10B586B009
:102A5000044601A81421FDF70BFC20681C4988429C
:102A60001BD01C49884230D11B48016841F010013D
:102A7000016001A9006800F01000009000984FF478
:102A8000D4400190022002900020CDE903000120F3
:102A90000590124800F5006015E00F48016841F00C
:102AA0000401016001A9006800F004000090009892
:102AB0004FF470700190022002900020CDE90300D5
:102AC000032005900548FDF7BDFF06B010BD00BF0F
:102AD000000401400000014030380240000802407C
:102AE000B0B5044690F83C0001284FF0020029D010
:102AF0004FEAB2020125052A84F83C5084F83D00D3
:102B00001BD8DFE802F003070B0F1317206800F053
:102B100041FB12E0206800F06BFB0EE0206800F043
:102B200099FB0AE0206800F0C9FB06E0206800F08D
:102B3000EBFB02E0206800F00DFC002084F83D5023
:102B400084F83C00B0BDB0B110B5044690F83D002B
:102B500028B9002084F83C00204600F00EF802203E
:102B600084F83D00211D206800F0A4FA012084F8BB
:102B70003D00002010BD01207047704770B504462D
:102B800090F83C0001284FF0020056D00D464FEA65
:102B9000B2010126052984F83C6084F83D0047D83D
:102BA000DFE801F0030B131B23332068294600F0F4
:102BB000F1FA206850F8181F1EE02068294600F03E
:102BC00017FB206850F8181F26E02068294600F0FF
:102BD00041FB206850F81C1F0EE02068294600F0D9
:102BE0006DFB206850F81C1F16E02068294600F095
:102BF0008BFB206850F8541F41F008010160016808
:102C000021F00401016029690FE02068294600F0E5
:102C1000A1FB206850F8541F41F400610160016875
:102C200021F4806101602969090202681143016091
:102C3000002084F83D6084F83C0070BDB0B110B550
:102C4000044690F83D0028B9002084F83C00204656
:102C500000F00EF8022084F83D00211D206800F0ED
:102C600029FA012084F83D00002010BD01207047A2
:102C70007047704710B504460068C16902685FEA92
:102C8000017C83684CD003F0010E02F4907313EBC7
:102C90000E034DD0CB0718BF12F4807305D001236B
:102CA0000362E36E43F00103E3668B0708D5BEF1D0
:102CB000000F05D002230362E36E43F00403E366D2
:102CC0004B0708D5BEF1000F05D004230362E36E65
:102CD00043F00203E366BCF1000F0AD502F02003C3
:102CE00013EB0E0305D008230362E06E40F00800EA
:102CF000E066E06E002856D002EA0100800602D5A8
:102D0000204600F00CFCE06E000735D42068806897
:102D1000400631D42046FFF7ACFF0020E06642E0D9
:102D200011408A0605D52046BDE8104000F0F7BBEB
:102D300011400A060DD4490635D5016821F040013D
:102D40000160202084F869002046BDE8104000F0B2
:102D5000F2B894F86910212925D1B4F8521041B382
:102D6000A168B1F5805F01D1216959B3E16C4A1CBA
:102D7000E264097881622CE0204600F0C3FB206801
:102D80008168490610D5816821F040018160606E3C
:102D900050B113490165FDF7F1FC20B1606E016D82
:102DA000BDE81040084710BD2046BDE81040FFF7C1
:102DB00060BF016821F080010160016841F04001BD
:102DC000016010BDE16C31F8022B6FF35F2282626B
:102DD000E164B4F852000138A4F8520010BD00BFFD
:102DE000F534000810B5B0B1044690F8690028B970
:102DF000002084F86800204600F026F8242084F89B
:102E000069002068016821F001010160204600F09E
:102E1000BFFB012801D1012010BD606A10B120461E
:102E200000F0E3FA2068416821F490414160816834
:102E300021F02A018160016841F001010160204612
:102E4000BDE8104000F034BB2DE9F04786B00446E1
:102E5000334D01A81421FDF70BFA2068A8425BD17D
:102E600031484169002641F010012E4F416141690E
:102E700001F0100100910099016841F00101016029
:102E800001A9006800F00100009000984FF4C060B4
:102E900001900220029003200396049007200590E1
:102EA00005F57040FDF7CEFD204D4FF00068BA46A5
:102EB000C5E900784FF48067AE604FF4807928460A
:102EC000C5E903676E61C5E90669C5E90866FDF7EE
:102ED0001FFD08B1FDF789FA65660AF17800AC6359
:102EE000134D28604020C5E901802846C5E90367E5
:102EF000C5E90566C5E907966E62FDF709FD08B1EB
:102F0000FDF773FA252025660021AC630022FDF74A
:102F10008FFF2520FDF780FF06B0BDE8F08700BFDA
:102F2000001001404064024030380240801600200A
:102F3000E016002070477047FEE7000010B5094C0E
:102F400000220949204600F098FE0849204601F079
:102F5000B0F80749204600F031FD2046BDE810409A
:102F600001F0BCB8E4130020100000203400002061
:102F700064010020FEE77047054A00F00F03024499
:102F8000002804484FEA0111B8BF1A1811707047A1
:102F900000E400E014ED00E00148FEF713B900BFC3
:102FA0008C17002070477047FDF7E6BE70B5B2B0D1
:102FB0006C460025201D2B958021CDE929552895AB
:102FC000FDF756F925480168022641F0805101605D
:102FD000006800F08050219021982148016841F458
:102FE00040410160006800F4404021902198032096
:102FF00026904FF4803027900120299010202A90AD
:103000004FF480002C962D9004202E90D820CDE9EE
:103010002F060920319026A8FFF728F9FEF77EFD3C
:103020000F20CDE921064FF4A050239524904FF4B2
:103030008050259021A80721FEF7EEFF0948009057
:103040002046119519951F95FEF79CFD0020002143
:103050000022FFF7C3F832B070BD00BF4038024015
:10306000007000404040200010B50E48D0F880109D
:103070000E4C41F47001C0F880100B490A6842F010
:1030800001020A6000228A600B6823400B60084B33
:103090004B600B6823F480230B60CA604FF0006123
:1030A000016010BD08ED00E000380240FFFFF6FEB1
:1030B00010300024B0F1804F026805D02B4B9842AD
:1030C0001CBF2B4B98423CD122F070024B681A4334
:1030D000B0F1804F17D0254B98421CBF244B98422B
:1030E00011D0244B98421CBF244B98420BD0244B48
:1030F00098421CBF234B984205D01F4B98421CBFDF
:10310000A74B984227D122F44072CB681A4380B56E
:1031100022F080024B691A43D1F800C0D1F808E0D0
:103120009F4B026040F48062C0F82CE09A42C0F8E5
:1031300028C0BDE8804004BF0969016301214161E5
:1031400070470C4B9842BFD0954B9842BCD00A4B6D
:103150009842B9D0BCE70C4B9842D4D00B4B984264
:10316000D1D00B4B9842CED0D1E700BF0004004035
:1031700000080040000C0040000001400018004022
:10318000001C004000200040004001400048014079
:103190000044014010B5026A474C22F0010202626D
:1031A000D0F820E04268836923400C6843EA040CAD
:1031B0007B4C40F48063A3428B682EF0020443EA08
:1031C00004030DD1CC6823F00C0324F00404D1F8DF
:1031D00014E022F4407223438C6942EA0E02224337
:1031E0004260C0F818C049684163036210BD00BF67
:1031F00010B5026A434C22F010020262D0F820E0BF
:103200004268836923400C6843EA042C644C40F410
:103210008063A3428B682EF0200444EA031311D18B
:1032200023F0C00ECC686FF0400303EA04138C69EE
:1032300043EA0E03D1F814E022F4406242EA8E021F
:1032400042EA84024260C0F818C0496881630362A0
:1032500010BD00BF10B5026A174C22F480720262E2
:10326000D0F820E04268C36923400C6843EA040CAC
:103270004B4C40F48063A3428B682EF4007444EA04
:10328000032312D1CC6823F4406E240240F2FF43A2
:1032900024EA03038C6943EA0E03D1F814E022F414
:1032A000405242EA0E1242EA04124260C0F81CC0C8
:1032B0004968C163036210BD8CFFFEFF10B5026A4E
:1032C000104C22F480520262D0F820E04268C369B8
:1032D00023400C6843EA042C314C40F48063A34241
:1032E0008B682EF4005444EA033302BF22F4804278
:1032F0004C6942EA84124260C0F81CC0496801640B
:10330000036210BDFF8CFFFE10B5026A104C22F460
:1033100080320262D0F820E04268436D23400C689E
:1033200043EA040C1E4C40F48063A3428B682EF4E5
:10333000003444EA034302BF22F480324C6942EA7B
:1033400004224260C0F854C049688165036210BD20
:103350008FFFFEFF10B5026A104C22F48012026249
:10336000D0F820E04268436D23400C6843EA042C07
:103370000B4C40F48063A3428B682EF4001444EAA3
:10338000035302BF22F480224C6942EA8422426045
:10339000C0F854C04968C165036210BDFF8FFFFECD
:1033A00000040140D0F820C0036A23F00103036247
:1033B000836923F0F00343EA02122CF00A038261CE
:1033C000194301627047036A23F0100303628369A3
:1033D00023F47043D0F820C043EA02322CF0A0035B
:1033E000826143EA011101627047416ACA0708D04D
:1033F0000268D0F828C0536823F4003343EA0C0372
:1034000053608A0708D50268D0F82CC0536823F4AB
:10341000803343EA0C0353604A0708D50268D0F8AA
:1034200030C0536823F4802343EA0C0353600A0737
:1034300008D50268D0F834C0536823F4004343EA47
:103440000C035360CA0608D50268D0F838C09368E8
:1034500023F4805343EA0C0393608A0608D502687C
:10346000D0F83CC0936823F4005343EA0C03936004
:103470004A0612D50268D0F840C05368BCF5801FD8
:1034800023F4801343EA0C03536006D1536823F4FA
:10349000C00C436C43EA0C035360090658BF7047E5
:1034A0000168806C4A6822F400221043486070472B
:1034B000BCB500240546C466FDF78CFB2968096885
:1034C00009070BD503460A4800904FF4001100226B
:1034D000284600F043F908B1032406E0202085F8CF
:1034E000690085F86A0085F86840204602B0B0BDE2
:1034F000FFFFFF01806B0021A0F85A10A0F85210C6
:10350000FFF7B7BB01680A6822F490720A608A6804
:1035100022F001028A60202180F86A107047B0F81A
:103520005C1090F86A20222A0FD18268B2F5805F81
:1035300001D102697AB10268436DD2F824C05A1CE5
:1035400001EA0C01426519700CE00068816941F0E4
:103550000801816170470268436D526A114023F887
:10356000021B4365B0F85A1001390A04A0F85A103A
:1035700018BF704701680A6822F490720A608A686E
:1035800022F001028A60202180F86A10FFF7D2BC85
:10359000B0B5044601688068634DD4E9032318433D
:1035A00063690343D4F81CC0086843EA0C0328404D
:1035B00018430860486820F4405010434860A069F0
:1035C000226A10438A6822F430621043574A9142BB
:1035D00088601AD0564881421DD05648814220D07A
:1035E0005548814223D05548814226D054488142D3
:1035F00029D05448814231D05348814240F0608004
:103600005248006880F002002DE050480222006815
:1036100082EA90001CE04D480222006882EA101005
:1036200016E04A480222006882EA901010E04748FB
:103630000222006882EA10200AE044480222006860
:1036400082EA103004E041480222006882EA9030A9
:1036500000F003003E4A40EA80000BE03B480222B3
:10366000006882EA902000F00300394A40EA8000B6
:1036700002F58062C240BCF5004F11D102F01F0379
:103680000120082B4FF000012BD8334ADFE803F06C
:10369000051A23291D2929292100FEF759FD16E0C5
:1036A00002F01F02082A4FF001003BD8DFE802F0C9
:1036B0000521243A273A3A3A3000FEF749FD20E046
:1036C0001022D8E7FEF74EFD01E0FEF759FD42005B
:1036D00001E04FF48032606802EB5001B1FBF0F181
:1036E00000204FF6F072C1F3420311405A182168CE
:1036F00017E0FEF737FD04E06068164A0BE0FEF7BE
:103700003FFD616800EB5100B0FBF1F0216806E07D
:1037100060684FF4004202EB5002B2FBF0F082B25C
:103720000020CA60B0BD00BFF369FFEF0044004055
:1037300000480040004C004000500040007800402D
:10374000007C00400014014000100140903802400D
:10375000020102000024F4000048E8012DE9F843CA
:10376000DDF82090984616460F46044609F10105FB
:103770002068C1693940C91BB1FA81F14909B142D8
:103780001DD1002DF4D0B9F1000F06D0FDF722FABB
:10379000A0EB08004845EBD32068016821F4D07104
:1037A0000160816821F001018160202084F86900B6
:1037B00084F86A00002084F86800032000E00020FC
:1037C00001B0BDE8F08300000148FFF753BA00BF25
:1037D000F81C002010B5D0F89022002A17D001EB79
:1037E000810300EB830E5EF81C4F64B1D0F898C2E1
:1037F000C1EBC1030CEB8303D3F844C0B4FBFCF36F
:1038000003FB1C432BB10024C2F8144208E002243D
:1038100006E000240022CEF80040002300F02CFC3B
:10382000204610BDB0B50446D0F8905200F008FB19
:10383000D4F890120029C5F80C0209D0D4F89402EB
:1038400005F50371C268D5F8040290470020B0BDA9
:103850000220B0BD70B50F4E81210446B04700254F
:103860000121E5622046B0478221C4F85851204624
:10387000B047D4F890020028256409D0D4F8940207
:1038800040688047D4F8900201F0BEFCC4F8905222
:10389000002070BDC93C000810B5D0F8941269B181
:1038A000D0F8904294F80002FF2807D094F8012243
:1038B0008B6821469847FF2084F80002002010BD45
:1038C0000A22024902800846704700BFF400002027
:1038D0004322024902800846704700BF6C00002066
:1038E0004322024902800846704700BFB000002012
:1038F0004322024902800846704700BF00010020B1
:1039000070B50446007C8121022248B14023204644
:1039100000F0E4FA01200121E062022240230AE0E3
:103920004FF40073204600F0D9FA0120E062012133
:1039300002224FF40073204600F0D0FA01258221C4
:10394000C4F8585103220823204600F0C7FA4FF468
:103950000770256401F080FC0028C4F8900216D09E
:103960000646D4F89402006880470020C6F8140286
:103970000121C6F81802207CD6F8042208B14023A1
:1039800001E04FF40073204600F0BAFA0025284603
:1039900070BD80B5D0F8901241B1027C002AD1F8F8
:1039A00004224FF0010103D0402303E0022080BD38
:1039B0004FF4007300F0A4FA002080BD002903D06A
:1039C000C0F894120020704702207047D0F890226F
:1039D0000020C2F804127047D0F890320020C3F8DB
:1039E0000812C3F8102270477CB50C4609780022F3
:1039F0008DF807200546ADF8042011F06002D0F8DC
:103A000090620FD0202A3CD1E2886078BAB10906D2
:103A10001DD486F800022846314686F8012200F0BF
:103A20005AF82CE060780B281AD00A281DD040BB29
:103A300095F87402032824D101A902221CE0D5F8CC
:103A4000941200228B682146002598471EE0D5F885
:103A500094128B6831469847E288284631460CE03C
:103A600095F8740203280AD00BE095F87402032835
:103A700007D10DF107010122284600F046F8002584
:103A800004E02846214600F01BF80225284602B033
:103A900070BD80B5D0F88C2252689047002080BD60
:103AA00080B513460A46002100F02AFA002080BDA6
:103AB00080B513460A46002100F0DEFA002080BDE2
:103AC00010B58021044600F0ADFA00212046BDE883
:103AD000104000F0A7BA80B50323C0F86C3213463B
:103AE000C0F848210A460021C0F84C3100F008FA1D
:103AF000002080BD80B50521C0F86C120021002295
:103B0000002300F0FDF9002080BD80B50223C0F83D
:103B10006C321346C2610A460021036200F0ACFA1F
:103B2000002080BD80B50421C0F86C120021002265
:103B3000002300F0A1FA002080BD000010B5344C35
:103B40000A4603A0214600F06BF8204610BD00BFD6
:103B500043444320436F6E666967000012220148A8
:103B60000A8070475001002010B5294C0A4603A076
:103B7000214600F055F8204610BD00BF43444320C5
:103B8000496E746572666163650000000422014835
:103B90000A8070477401002010B51D4C0A4603A02E
:103BA000214600F03DF8204610BD00BF53544D693A
:103BB00063726F656C656374726F6E696373000026
:103BC00010B5134C0A4603A0214600F029F8204600
:103BD00010BD00BF53544D33322056697274756165
:103BE0006C20436F6D506F727400000010B5084C6C
:103BF0000A4603A0214600F013F8204610BD00BF7E
:103C00003030303030303030303031410000000062
:103C1000E40100200C2201480A8070474401002082
:103C2000B0B5002828D04FF0000C864603E00CF118
:103C3000010C0EF1010E9EF80030002BF7D15FFA57
:103C40008CFC022505EB4C0EA2F800E04FF0030CB3
:103C500081F800E04FF0010E09E0ECB245F00103FD
:103C600001300A5502355FFA83FE4FF0000C01F86F
:103C70000EC00278002AF0D1B0BD002811D0D0F8D3
:103C80008C3213B10023C0F88C3209B1C0F888120D
:103C900080B5012180F87412027000F0D7F800207E
:103CA00080BD02207047000080B5D0F89802FDF773
:103CB000A2F9032805D8C000F74921FA00F0C0B2E4
:103CC00080BD022080BD00BF80B5D0F89802FDF70E
:103CD0006CF9032805D8C000EF4921FA00F0C0B202
:103CE00080BD022080BD00BFB0B5002904460DD0C4
:103CF000D4F88C0242693AB194F87402032803D1D3
:103D00002046904700204FE00220B0BDD4F86C025E
:103D100080B104280ED002283DD1D4E90810814298
:103D20000DD9081A83B22062204611461A46FFF7C1
:103D3000BFFE18E08021204600F074F92BE0E16915
:103D4000814217D3B1FBF0F202FB101090B9D4F806
:103D5000700281420ED20021002220460025FFF78A
:103D6000A7FEC4F87052002100220023204600F074
:103D7000C7F810E0D4F88C02C16829B194F8740235
:103D8000032801D1204688478021204600F04AF9C7
:103D90002046FFF7AFFE94F8780201284FF00000AC
:103DA00002D184F87802B0BDB0BDB0B50029044698
:103DB0000CD0D4F88C02826932B194F874020328D2
:103DC00002D1204690472BE002252AE0D4F86C026D
:103DD000052812D0032823D1D4E95310814212D9E7
:103DE000091A814238BF0846C4F84C1183B22046F4
:103DF00011461A46FFF754FE12E000212046002526
:103E000000F010F90DE0D4F88C02016929B194F8A2
:103E10007402032801D1204688472046FFF782FE1E
:103E200000252846B0BD0020704780B5012180F8EC
:103E30007412D0F88C22017952689047002080BD1E
:103E400080B5D0F89802FDF707F980BD017861BB15
:103E500010B517490622C1F8FC03C0F898124FF0BC
:103E6000A040C1E9000202200022C1E90302C1E929
:103E700005200846C1E907224A62C1E90B22FDF785
:103E80002BFD08B1FCF7B1FA094C80212046FDF763
:103E900043F8002140222046FDF742F8012180220C
:103EA0002046FDF73DF8BDE810400020704700BFF8
:103EB0008C17002001F07F02D0F89802C2EBC202FA
:103EC00000EB820000F13E02090658BF00F5FF72C8
:103ED00010787047002070470020704780B59446E6
:103EE000D0F898021A466346FDF7BFF8032805D8B4
:103EF000C000694921FA00F0C0B280BD022080BD37
:103F000080B5D0F89802FDF7E2F8032805D8C00084
:103F1000614921FA00F0C0B280BD022080BD00BF1F
:103F2000F8B5002100224023044600254026FFF773
:103F3000D5FF01278021C4F844710022C4F85061E4
:103F400040232046FFF7CAFFA761666284F87472B7
:103F5000C4F86C52D4F8900200286560C4F87C5212
:103F600005D0D4F88C0200214268204690470020FA
:103F700001B0F0BD90F875220146002081F874224E
:103F8000704790F87412032907D1D0F88C12C969D0
:103F900019B180B58847BDE88040002070470246CF
:103FA000002011747047000080B5D0F89802FDF72A
:103FB0006DFD032805D8C000374921FA00F0C0B2D2
:103FC00080BD022080BD00BFB0B500F5207504465D
:103FD000284600F063F894F880020122B4F8863293
:103FE00000F01F01C4F86C220229C4F8703207D017
:103FF00001290AD071B92046294600F075F80EE073
:104000002046294600F0A2F909E02046294600F0A2
:104010004DFA04E000F08001204600F003F8002093
:10402000B0BD000080B5D0F89802FDF773F8032802
:1040300005D8C000184921FA00F0C0B280BD0220A6
:1040400080BD00BF80B5D0F89802FDF73AFD032887
:1040500005D8C000104921FA00F0C0B280BD02208E
:1040600080BD00BF014690F87402042281F87502F9
:10407000002081F87422704780B5D0F89802FDF7CF
:1040800080F8032805D8C000034921FA00F0C0B227
:1040900080BD022080BD00BF000201020A780270CC
:1040A0004A7842704A8842808A888280C988C18062
:1040B0007047002903D0C0F88C12002070470220FE
:1040C0007047D0F88C22002A06D080B5126890473D
:1040D000002818BF022080BD0220704780B5FFF77E
:1040E000B1FF002080BD0000BCB50D460978044634
:1040F00011F060010BD0402918BF202940F07C80CE
:10410000D4F88C02294682682046904777E0687888
:10411000092800F27180DFE800F005186F226F298E
:10412000466F5C6994F874020138022864D8E88804
:10413000022861D1D4F87C020322002808BF0122A2
:1041400004F10C01E26002226EE094F8740201387E
:10415000022851D86888012851D1002003E06888DE
:1041600001284CD10120C4F87C02CCE0A8880028AA
:1041700042D1E88800283FD168887F283CD894F84D
:104180007412032938D000F07F05204684F8765257
:104190002946FFF709FF2046FFF7C4FC002D00F079
:1041A000CF800220CDE068884FF0FF3101EB102175
:1041B0000E2921D8DFE801F008556120206E782013
:1041C0002020202020208500D4F88812207C0A6836
:1041D0007BE0E88801280FD194F87402411E02297F
:1041E0001ED20020214641F8080F1CE06888564D79
:1041F000C1B22870022905D32046FFF761FC0020D8
:1042000002B0B0BD94F87422032A11D0022A20D142
:10421000000600F078800320616084F8740212E0E8
:104220000328E9D1211D01222046FFF76EFCE6E7B5
:10423000002960D06068884265D0C1B22046FFF78F
:1042400028FC297861602046FFF73BFF0228D3D085
:1042500059E02046FFF734FC29782046FFF719FC87
:10426000CDE7207C0028D4F88C020CBF816AC16A9B
:104270000DF106008847022220E0C0B20528BBD815
:10428000DFE800F003454A4F5459D4F88812207CE7
:104290004A681AE0207C0028AED1D4F88C02416B29
:1042A0000DF10600884713E0207C0028A4D1D4F843
:1042B0008C02016B0DF1060088470722014642700F
:1042C00007E0D4F88812207CCA690DF106019047F6
:1042D0000146BDF8060048B1EA88A2B1904238BF55
:1042E00002462046ADF80620FFF70FFCE8880028BC
:1042F0007FF485AF07E0022084F87402002060603C
:104300002046FFF7C6FB2046FFF70CFC77E7D4F802
:104310008812207C8A68D8E7D4F88812207CCA6882
:10432000D3E7D4F88812207C0A69CEE7D4F8881243
:10433000207C4A69C9E7D4F88812207C8A69C4E7DE
:10434000012084F874025AE7E0010020B0B50A7831
:10435000044612F0600209D0402A18BF202A48D132
:10436000D4F88C0282682046904745E0202A06D186
:10437000D4F88C0282682046BDE8B04010474A78E5
:104380008888BAB1012A29D0032A32D194F874223C
:10439000032A27D14A88002A4FD140F08002D2B2A6
:1043A000802A4AD0C988002947D1C1B22046FFF7E8
:1043B00039FE42E094F8741203291FD0022918D163
:1043C000C0B2002858D0802813D100F07F0000EB45
:1043D000800004EB800000F1140155E094F8742291
:1043E000032A21D0022A04D140F08001C9B28029D9
:1043F00027D12046FFF764FB0020B0BD020600F085
:104400000F02C1B202EB820204EB820222D4D2F884
:104410004421002AEDD001F07F0202EB820204EB7E
:10442000820202F5A07520E049880029E4D1410606
:1044300003D0C1B22046FFF737FC2046FFF772FBDE
:10444000DAE7C1B22046FFF7EDFD80212046FFF7F5
:10445000E9FDD1E79269002ACBD001F07F0202EB9F
:10446000820204EB820202F1140540F08000C0B227
:1044700080280ED1002012E000F07F0000EB8000C9
:1044800004EB800000F5A0710020086002222046A5
:1044900009E02046FFF70EFD0028EBD00120286040
:1044A000022220462946FFF730FBA5E7B0B50D46AE
:1044B0000978044611F0600118BF402915D194F81D
:1044C00074020138022812D8A88810F0FE0F0ED10D
:1044D000D4F88C02294682682046904750B9E88873
:1044E00040B92046FFF71EFB04E02029E7D0204614
:1044F000FFF7E6FA0020B0BD80B591F800C04FF09C
:10450000010E4B780CF00F02012B0EFA02F317D1BB
:10451000D0F81C281A4300F51063C0F81C284FEA95
:104520004C101A58120424D48A686FF3DF2291F8D1
:1045300003E0C15842EA8C52114341EA8E4115E032
:10454000D0F81C2842EA034200F53063C0F81C286A
:104550004FEA4C101A5812040BD48A686FF3DF220A
:1045600091F803C0C158114341EA8C41024A1143FA
:10457000C150002080BD00BF008000100146D0F86F
:10458000000940F2FF729043C1F80009D1F8080811
:1045900000F00600042805D1D1F8000940F003001E
:1045A000C1F80009D1F8040840F480720020C1F875
:1045B00004287047B0B5069904460129049D16D118
:1045C000A06B164920F48030A063E06808400D9984
:1045D000E0600129E06820F44010E06003D1E06869
:1045E00040F48010E060204600F01AF809E0E0682E
:1045F00040F04000E060204600F012F84FF48030B8
:10460000A063012D07D1A06840F00600A060A0685B
:1046100040F02000A0600020B0BD00BFBFFFBDFF84
:104620004FF0FF32934901328A420FD80369B3F148
:10463000FF3FF8DC026942F0010202614FF0FF32F5
:1046400001328A4202D80369DB07F9D1704700BF03
:10465000B0B50A784FF0010C49781A4D02F00F03FB
:1046600001290CFA03F111D1D0F83C3800EB4212C9
:104670008B43C0F83C38144B63EA0101D0F81C3876
:1046800002F510621940C0F81C1814E0D0F83C483C
:1046900000EB421224EA0141C0F83C184FF480318B
:1046A0009940D0F81C3823EA010102F53062C0F8C5
:1046B0001C1805F17075106800EA050100201160F2
:1046C000B0BD00BF007833EC0000FFFF80B5D0F82C
:1046D000041821F00201C0F804180320FCF7A2F925
:1046E000002080BD80B5D0F8041841F00201C0F868
:1046F00004180320FCF796F9002080BD2DE9F0474F
:10470000DDF83C900D460446DDF820A0DDE90A08FE
:104710004121002202E044F8212001315029FAD140
:10472000A16BB9F1000F41F40011A1630BD1A16B92
:1047300021F40011A163216841F04001216021684A
:1047400041F0800121600021C4F8001E0328D4F844
:104750000018C4F8001818BF012806D1D4F80008C2
:10476000002B18BF40F0010003E0D4F8000840F02F
:104770000300C4F800084FF4846020614FF0FF305C
:104780003C490130884202D822699206F9D4204679
:1047900000F042FA002004F51061C4F810084FF64A
:1047A0007F32C4F814080023C4F81C080DE0002B65
:1047B0000F684FF0904608BF4FF00066013306EADD
:1047C000E7770F6008618A6020319D42EFD104F5E0
:1047D000306000214FF67F3200230DE0002B066889
:1047E0004FF0904708BF4FF00067013307EAE677C4
:1047F00007600161826020309D42EFD1D4F810083B
:10480000BAF1010F20F48070C4F810080FD11B48D2
:10481000C4F830081A49D4F830080843C4F83008FE
:10482000002044F8180F144844F8040C0CE0002051
:1048300044F8180FBAF1000F0F4844F8040C03D1E4
:10484000206840F01000206020680E49B8F1000F89
:1048500040EA0100206003D0206840F0080020609A
:10486000B9F1010F03D120680749084320600020F7
:10487000BDE8F0873F0D0300FFFFFFBF0001800090
:104880000300010000383C800400004001468068BD
:1048900020F0010200208A6070470000B0B54B781C
:1048A00091F800C0012B4FEA4C1321D1D1F814E04C
:1048B0001C18BEF1000F04F51063D4F810493CD069
:1048C0006FF312041C611C696FF3DC441C612D4CF6
:1048D0008D68AE4501D9AE464D611D6904F10054A5
:1048E00045F400251D6104EA0E041D692C4330E0E7
:1048F0001844244CD0F8103B6FF31203C0F8103B5F
:10490000D0F8103B6FF3DC43C0F8103B4B69002B31
:1049100000F53063886818BF4861012A1D6945F4B5
:1049200000251D6104F1005500EA05001D6940EAFB
:104930000500186120D1C8680FE06FF3DC444FF028
:10494000000E1C611D6945F400251D611C696FF393
:104950001204012A1C6102D1086958610CE0BEF101
:10496000000F09D00CF00F01012202FA01F1D0F87A
:1049700034281143C0F83418186840F0044100206E
:104980001960B0BDFFFF07E00023C0F8103B01290C
:10499000D0F8103B43F40023C0F8103BD0F8103B94
:1049A00043F01803C0F8103BD0F8103B43F0C0436D
:1049B000C0F8103B05D14FF08021C0F8142BC0F88F
:1049C000001B002070474A780B78012A00EB431047
:1049D00011D1D0F8002922F40012C0F80029C978BA
:1049E00001F0FE01022917D1D0F8001941F08051E1
:1049F000C0F8001910E0D0F8002B22F40012C0F823
:104A0000002BC97801F0FE01022905D1D0F8001B66
:104A100041F08051C0F8001B002070474A780978A7
:104A2000012A00EB411006D1002900F51061D0F8F1
:104A3000000906D10BE0002900F53061D0F8000B29
:104A400005D0002803DB086820F080400860086873
:104A500040F4001200200A60704700007CB54B78DB
:104A600091F800C0012B4FEA4C1335D1D1F814E076
:104A70000344BEF1000FD3F8104954D06FF3120471
:104A8000C3F81049D3F810496FF3DC44C3F8104958
:104A90008C680EEB0405013DB5FBF4F4594D05EAB5
:104AA000C444D3F810592C437546C3F810496FF32A
:104AB000DF45D3F810492C43C3F81049CC78012CBA
:104AC00041D1D3F8104924F0C044C3F81049D3F8B9
:104AD000104944F0005434E00344D3F8105B6FF302
:104AE0001205C3F8105BD3F8105B6FF3DC45C3F815
:104AF000105B03F53063D1F814C0BCF1000F8C6873
:104B00004BD00CEB04053F4E013DB5FBF4F51FFA0D
:104B100085FC06EAC5461D690CFB04F42E436FF3C1
:104B2000DF441E6140E06FF3DC44C3F81049D3F862
:104B3000104944F40024C3F81049D3F810496FF326
:104B40001204C3F81049012A04D10C69C3F81449AE
:104B5000CC7805E0CC78BEF1000F18BF012C3ED117
:104B6000012C46D1D0F80848E405D3F800594FF09D
:104B7000805458BF4FF000542C43C3F80049D3F879
:104B8000004944F00444C3F800491FFA8EF3C96891
:104B90000092624600F0DFF831E06FF3DF441D69F8
:104BA00025431D614FF400241E69012A46EA0406CC
:104BB0001E6101D1CA685A61C97801290AD1D0F8A9
:104BC0000808C005186802D440F0005001E040F029
:104BD00080501860186840F0044018600FE00CF036
:104BE0000F01012202FA01F1D0F834281143C0F874
:104BF0003418D3F8000940F00440C3F8000900203D
:104C000002B070BD0000F81F0146806840F001024C
:104C100000208A607047000010210F4A01614FF0A8
:104C2000FF310131914204D80369DB06F9D4002039
:104C300070470320704700BF8901074A2031016196
:104C40004FF0FF310131914204D803699B06F9D43A
:104C500000207047032070473F0D0300D0F808087C
:104C600010F0060005D040F00401062903D103200E
:104C70007047002070470438B0FA80F040094000C7
:104C80007047406900F001007047D0F81818D0F85C
:104C90001C08084080B27047D0F81818D0F81C08DB
:104CA0000840000C7047D0F810C801F00F02D0F88F
:104CB000343800EB411023FA02F2D0F80809D2018F
:104CC000D2B242EA0C010840704700EB4111D1F822
:104CD000081BD0F8140808407047416980690840F3
:104CE000704780B50332930822F0030201EB020CF7
:104CF0004FF4805E03E050F80E20013B04C1002B0E
:104D0000F9D1604680BDC268012922F0C042C2606C
:104D100003D069B94FF0804101E04FF0005180B5F8
:104D2000C2681143C1603220FBF77CFE002080BDC9
:104D3000012070470246D0F8000820F4FE60C2F857
:104D4000000801F07F00D2F8001841EA00110020AD
:104D5000C2F800187047DDF800C0BCF1000F0BD19D
:104D600003339B0800F5805C120303E001C9013B9B
:104D700042F80C00002BF9D100207047FEE700003C
:104D80002DE9F04F9BB0FCF701F8FEF70FF9002674
:104D9000F84FF94DDFF81C44069605F5E83A3868F7
:104DA0004FF4604140F004003860002238684FF44E
:104DB000604B00F004000D900D98386840F08000C2
:104DC0003860386800F080000D900D98386840F029
:104DD00001003860386800F001000D900D983868C7
:104DE00040F002003860386800F002000D900D9825
:104DF000386840F010003860386800F010000D90FE
:104E00000D98386840F008003860386800F00800F5
:104E10000D900D985046A04705F5E43948F2110170
:104E200000224846A04705F5E63848F63A01002238
:104E30004046A04705F5EA30802101900022A047B6
:104E40000120CDF808B002AC0390DFF86CB35046F7
:104E500021460125CDE90466D84748F2110002A990
:104E600061C1484605962146D8470220D34D02909D
:104E700048462146CDE90356D847302002A961C1F2
:104E800050462146D84701200290404621464FF027
:104E9000010ACDE90356D84748F63A00CDE9020A9F
:104EA00040462146CDE90466D8474FF08008C04807
:104EB000CDE90285AA46049600F5EC352846214640
:104EC000D8474FF4A060CDE9020628460496214653
:104ED000D8474FF47F40CDE9020A019D214628467C
:104EE0000496D8474FF4807002900220CDE9030663
:104EF00048462146CDE90566D8474FF00109CDF86F
:104F0000088028462146CDE903960596D84738689B
:104F1000002140F4800038600022386800F48000EE
:104F2000029002983A20FBF783FF3A20FBF774FFC8
:104F3000462000210022FBF77BFF4620FBF76CFF99
:104F40009F4C9B4D05F530501021A68384E843000B
:104F50004FF4A020C4E903602046A846C4E90566D2
:104F6000FBF742FB05F5E050964D28609648291D59
:104F700081E8410205F110001421FBF779F9284678
:104F8000FBF776FE00212846FBF728FE0021284685
:104F9000FBF749FE08F578418C484FF482728C4D3E
:104FA0004FF4407A4FF400794FF0070B0827C0E91F
:104FB0000012C0E9026A0661C0E90569C0E9076636
:104FC0004662C0E90A6BC0E90C67A84781484FF404
:104FD0008271021DC0F8008082E84204C0E90466C4
:104FE000C0E90696C0E90866C0E90A6BC0E90C672B
:104FF000A84708F58061784801604FF48271021D6E
:1050000082E84204C0E90466C0E90696C0E9086681
:10501000C0E90A6BC0E90C67A8470DF1340B0BF12E
:10502000040518212846CDE919661896FBF720F9E2
:1050300002AF14213846FBF71BF908F5484044F845
:10504000280F1821201DFBF713F92046FDF72AFC35
:105050004FF48050179017A92046FDF75FFC2046BB
:10506000FDF7ECFD14A92046CDE914661696FDF770
:10507000F1FB60200D9018212846FBF7F9F8DFF8C6
:105080005CA1002220465946D047042220465946BA
:10509000D047082220465946D0470C222046594680
:1050A000D04714213846FBF7E3F84FF40050CDE920
:1050B00007064FF00079099620463946CDE90A9651
:1050C0000C96FDF777FB2046FDF7C0FC18211A96D9
:1050D0002846CDE91866FBF7CBF802AC1421204630
:1050E000FBF7C6F83E4F08F54C41384602C0182180
:1050F000FBF7BEF83846FDF7D5FB4FF4805017900C
:1051000017A93846FDF70AFC3846FDF797FD3846E3
:10511000FDF719FD14A93846CDE914661696FDF77A
:1051200099FB60200D9018212846FBF7A1F800227A
:1051300038465946D047042238465946D0470822B7
:1051400038465946D0470C220D9638465946FDF749
:10515000C7FC14212046FBF78BF84FF40050CDE933
:10516000070638462146CDE90969CDE90B6600F00E
:1051700005B800BF3038024000380040FDF71AFB88
:105180003846FDF763FC174808F558414FF4E13203
:105190000662466280E846000C21C0E90366C0E969
:1051A0000516C661FDF71EFEFDF7C8FEFEE700BF4F
:1051B00000380040C90B0008450A00080000111023
:1051C0007801002040170020684740208C1B0020F9
:1051D00075250008F01B0020541C00207D2B0008C2
:1051E000B81C0020F81C002002E008C8121F08C1EB
:1051F000002AFAD170477047002001E001C1121F58
:10520000002AFBD17047000010B5002821D0114BB7
:105210000022001F196803E0814203D80A4649684A
:105220000029F9D152B11368841A9C4204D1006854
:1052300018441060104602E0506000E0186039B178
:1052400002680B1A934203D10B681A440260496842
:10525000416010BD00000020F0B50B30154D20F06E
:1052600007010024144A0FE003688B420BD38B42E2
:1052700005D95E1A43184768C3E9006700E0436830
:10528000136002C004E0021D10680028ECD1204623
:10529000002802D1286808B10020F0BD064A07485E
:1052A0001060074A121A22F00702C0E90024012008
:1052B0002860D7E70400002000000020741D0020B3
:1052C000701F002000000000000000000102030425
:1052D000060708090000000001020304005300084B
:1052E0000000002078010000E8020008D053000808
:1052F00078010020F8210000F851000800000000AB
:105300008132013210135D3B1B088D041A99041A77
:10531000C1041AED041A3D041A690413153C12085D
:105320001324F4130139140855381B08E908411AED
:10533000990C13D5371B082508C11AE1101AD1049E
:105340001AF1041AC104140902431302011DC032E8
:105350000904711A020B130524161001052401100B
:105360000901042402020524061701070582030827
:10537000151009040133020A2E0705010240072A0D
:10538000810711093744113A02441907112B0A0603
:1053900006112A40F42B0907500A3B04941C050F00
:1053A0000C242B1002551B12014512021E408304CF
:1053B0004057591B020365135D031B0859041A5516
:1053C000041A810405000403090400000000000021
:04000005080001C925
:00000001FF
