:020000040800F2
:1000000090040020D5000008691100089D0F000829
:1000100000000000000000000000000000000000E0
:10002000000000000000000000000000B311000804
:100030000000000000000000B1110008B511000828
:10004000E7000008E7000008E7000008E7000008F4
:10005000E7000008E7000008E70000086501000865
:10006000E7000008E7000008E7000008E7000008D4
:10007000E7000008E700000861120008E700000838
:10008000E7000008E7000008E7000008E7000008B4
:10009000E7000008E7000008E7000008E7000008A4
:1000A000E7000008E7000008E7000008E700000894
:1000B000E7000008E7000008E7000008E700000884
:1000C0000348854600F03CF800480047A1150008A9
:1000D000900400200448804704480047FEE7FEE7FC
:1000E000FEE7FEE7FEE7FEE705120008C100000894
:1000F00030B50B46014600202022012409E00D46C0
:10010000D5409D4205D31D469540491B2546954047
:1001100040191546521E002DF1DC30BDD2B201E06F
:100120000270401C491EFBD270470022F6E710B552
:1001300013460A4604461946FFF7F0FF204610BD55
:10014000064C0125064E05E0E36807CC2B430C3C2A
:1001500098471034B442F7D3FFF7B6FF00160008F3
:100160002016000810B5102000F020F8202000F024
:100170001DF810BD31B500F0D1F8009C0546601C9B
:1001800000D0641C00F0CAF8401BA042FAD338BD6E
:100190000549102805D0202802D1E120C00048637D
:1001A00070477D20C000FAE70040014010B50449C7
:1001B0004A69024202D04861FFF7EAFF10BD000021
:1001C00000040140F8B5002393E0224601249C403E
:1001D000A44622407ED04C68022C01D0122C0CD1B7
:1001E000DC08A40027183C6A5D07ED0E0F26AE4020
:1001F000B4430E69AE4026433E6205685E000324A8
:10020000B4400F79A543BF07BF0FB7402F43076026
:100210004D68012D05D0022D03D0112D01D0122DD6
:100220000ED18568CF68A543B7402F4387604768E4
:100230006546AF430D79ED06ED0F9D403D434560AA
:10024000C568A5438C68B4402C43C4604C68E40086
:100250004ED52B4CA56901263543A561A4699D089F
:1002600034400094274CAD002F19BC689D072E0F19
:100270000F25B540AC430925ED06A84201D1002564
:1002800014E0214DA84201D101250FE01F4DA842E5
:1002900001D102250AE01E4DA84201D1032505E047
:1002A0001C4DA84201D1042500E00525B540254399
:1002B000BD60194C25684E689543F60300D515437B
:1002C000256065684E689543B60300D515436560A3
:1002D000A56800E00CE04E689543F60200D5154392
:1002E000A560E5684E689543B60200D51543E56004
:1002F0005B1C0A681446DA4000D066E7F8BD0000CF
:1003000000100240000001400004004800080048BE
:10031000000C00480010004800040140014800683B
:10032000704700000400002002480168491C016079
:10033000704700000400002010B506480168102234
:1003400011430160002000F007F800F017F80020CA
:1003500010BD00000020024010B5044600F0DAF89D
:100360007D21C900FFF7C4FE00F00AFB00222146F0
:10037000501E00F021F8002010BD000008B508480C
:100380008169012211438161816911400091C26933
:1003900001040A43C261C0690840009008BD000022
:1003A00000100240C106C90E0120884001490860C2
:1003B0007047000000E100E010B500F0D7FE10BD6E
:1003C000F8B505464E480E460068C007C00FB0425B
:1003D0000AD24B480168490849003143016000686E
:1003E000C007C00FB04270D12878464C800705D5B1
:1003F0006068F0218843A968084360602878C007D6
:1004000053D06868012817D0022818D0032819D0C3
:1004100021688907002958DA616889088900014341
:100420006160FFF77BFF69680746012913D0022945
:100430001DD0032927D034E021688903EAE7216829
:100440008901E7E7616BC903E4E7FFF767FFC11BB9
:100450002D48814223D860680007800F0128F4D11D
:1004600023E0FFF75BFFC11B2748814217D8606874
:100470000007800F0228F4D117E0FFF74FFFC11BE0
:10048000214881420BD860680007800F0328F4D10F
:100490000BE0FFF743FFC11B1B48814201D903203A
:1004A000F8BD60680007800FF3D115480168C907DF
:1004B000C90FB1420BD901684908490031430160B5
:1004C0000068C007C00FB04201D00120F8BD2878F5
:1004D000400706D56068072109028843E968084398
:1004E000606000F01DF86168084A0906090F515C58
:1004F000C840074908600020FFF72EFF0020F8BD24
:10050000002002400010024088130000F01500088F
:100510000800002001480068704700000800002023
:1005200030B516A30FCB89B06C460FC417A30FCB01
:100530000FC41A494A680C20144604401848042C79
:1005400005D0184B082C04D00C2C00D1184609B04B
:1005500030BD9402240F6D462C5DC96A04AD0907B5
:10056000090FD203695C920F022A02D0032A00D13C
:100570001846FFF7BDFD6043E9E7000002030405EC
:10058000060708090A0B0C0D0E0F101001020304D8
:1005900005060708090A0B0C0D0E0F10001002408B
:1005A00000127A00006CDC02FEB504460078F04EC2
:1005B000F04DC00748D068680007800F01281FD0A1
:1005C00068680007800F022804D16868C003800FA4
:1005D000022815D06168012919D001208004002962
:1005E00001D0052917D02968B143296029688143C2
:1005F0002960606800281BD0FFF790FE074613E0D3
:100600002868800320D56068002876D01CE0286820
:1006100030432860EDE7296801432960F7E7FFF7D9
:100620007DFEC01B642869D828688003F7D50BE0DD
:10063000FFF774FE074604E0FFF770FEC01B642856
:10064000F1D828688003F7D4207880073ED5686801
:100650000007800F14D068680007800F022804D1BB
:100660006868C003800F01280AD0E0680028286865
:100670001DD0012108432860FFF750FE07460BE01C
:10068000286880070BD5E068012836D107E0FFF71E
:1006900045FEC01B0228C6D828688007F7D5286801
:1006A000F82188432169C900084328600EE040080A
:1006B00040002860FFF732FE074604E0FFF72EFEF9
:1006C000C01B0228AFD828688007F7D4207800071D
:1006D00024D5E0690028686A11D0012108436862C6
:1006E000FFF71CFE074604E0FFF718FEC01B0228B8
:1006F00099D8686A8007F7D510E036E1D1E0400864
:1007000040006862FFF70AFE074604E0FFF706FEB6
:10071000C01B022887D8686A8007F7D4207804278E
:100720004007002861DA00200190E869C00008D481
:10073000E969B8060143E961E969014001200091D6
:1007400001908D480168C90511D4016882151143D3
:100750000160FFF7E3FD009005E0FFF7DFFD009982
:10076000401A642897D884480068C005F5D5A06869
:1007700001280AD0002801D0052811D0286A400895
:1007800040002862286AB84302E0286A0121084331
:100790002862A068002812D0FFF7C0FD00900AE090
:1007A000286A38432862F0E7FFF7B8FD0099411A3C
:1007B0007248814275D8286A8007F5D50DE0FFF7A9
:1007C000ADFD009006E0FFF7A9FD0099411A6B48C6
:1007D000814266D8286A8007F5D40198002804D0A1
:1007E000E969012000078143E9612078C00635D519
:1007F000606901280CD0401D686B24D038436863C1
:10080000686B400840006863FFF788FD074622E0F8
:10081000686B38436863686B012108436863FFF7BE
:100820007DFD074604E0FFF779FDC01B022838D89C
:10083000686B8007F7D5686BF8218843A169C90008
:10084000084368630AE0B8436863F4E7FFF766FDAE
:10085000C01B022825D8686B8007F7D42078800653
:1008600037D568680007800F032813D06868000731
:10087000800F022804D16868C003800F032809D0C4
:10088000206A0028686B16D030436863FFF746FD86
:1008900006460CE0686BC0031BD5206A012864D1B2
:1008A00017E05BE0FFF73AFD801B022856D8686B23
:1008B000C003F7D50DE0B0436863FFF72FFD064690
:1008C00004E0FFF72BFD801B022847D8686BC003AC
:1008D000F7D4606A002846D069680907890F0229A1
:1008E00043D0012636060228286805D0B043286088
:1008F000FFF714FD044633E0B0432860FFF70EFD18
:10090000074604E0FFF70AFDC01B022826D8286826
:100910008001F7D4E86A216B000900010843E8620E
:10092000A16AE06A084369687B22D20391430843C5
:100930006860286830432860FFF7F0FC044604E054
:10094000FFF7ECFC001B022808D828688001F7D5C7
:1009500009E0FFF7E3FC001B022801D90320FEBDDC
:1009600028688001F5D40020FEBD0120FEBD0000F6
:1009700000000100001002400070004088130000D9
:10098000094910B5401E884201D9012010BD074C0D
:1009900060610321081F00F0E9FB0020A06107202F
:1009A0002061002010BD0000FFFFFF0000E000E01C
:1009B0007047704770B5034620331A7F012A27D04D
:1009C00001241C7702225A770326CA683602B243F2
:1009D0008E6800253243A602B2434E680068324357
:1009E000E602B2430E6832432603B2430E69324335
:1009F0006603B2434E6989693243A603B2430A4390
:100A0000E603B2430A4342645C771D77002070BD61
:100A1000022070BD70B502462032137F012B1BD01F
:100A20000123137702245477046865687026B54360
:100A30006560046865680E68354365600468A5688C
:100A40008026B543A5600068846849680C438460CB
:100A500053770020107770BD022070BD70B5040080
:100A600005D025462035687F002802D006E0012009
:100A700070BD00202877204600F00AF80220687731
:100A8000211D206800F0F4FB01206877002070BD74
:100A900008B5104A0168104891420FD18269C1140B
:100AA0000A438261806900220840009011460E20AE
:100AB000FFF782FC0E20FFF775FC08BD074A914244
:100AC000FBD18269012109040A43826180690840DF
:100AD000009008BD002C0140001002400040014081
:100AE000F8B5054604462035287F012817D0012790
:100AF0002F7702206877226890687726FF23B0431B
:100B00001B02984390600868502837D00EDC2028DC
:100B100057D006DC00284ED0102840D14EE00220ED
:100B2000F8BD302850D0402839D13CE060282DD085
:100B3000702817D001221203801A0ED090422ED1B5
:100B4000CB684A688968206800F0E7FB2068816804
:100B5000012292031143816021E020688168C90865
:100B6000C900F8E7CB684A688968206800F0D5FBBF
:100B700021688868B0433043886010E0CA684968DB
:100B8000206800F0D9FC5021206806E0CA68496856
:100B9000206800F0E2FC6021206800F0C9FB6F775C
:100BA00000202877F8BDCA684968206800F0C4FCB6
:100BB00040212068F1E700212068EEE7102120683D
:100BC000EBE720212068E8E730212068E5E770475F
:100BD00070B50446006801690025C94389070029EA
:100BE00015DBC168C943890711D4E91E01610120E1
:100BF0002077206880698007204602D0FFF7E7FF52
:100C000004E000F0D1F8204600F052F92577206882
:100C10000169C943490717D4C168C943490713D4B7
:100C20000421C94301610220207720688069800582
:100C3000800F204602D0FFF7CAFF04E000F0B4F8AE
:100C4000204600F035F9257720680169C943090776
:100C500016D4C168C943090712D40821C9430161E8
:100C6000042020772068C0698007204602D0FFF763
:100C7000AEFF04E000F098F8204600F019F925775F
:100C800020680169C943C90617D4C168C943C906A8
:100C900013D41021C9430161082020772068C0695E
:100CA0008005800F204602D0FFF791FF04E000F09E
:100CB0007BF8204600F0FCF8257720680169C943DD
:100CC000C90708D1C168C943C90704D1891E016198
:100CD000204600F061F920680169C943090609D47A
:100CE000C168C943090605D48021C9430161204672
:100CF000FFF75EFE20680169C943490609D4C1684F
:100D0000C943490605D44021C9430161204600F08A
:100D100044F920680169C943890609D4C168C943F7
:100D2000890605D42021C94301612046FFF741FE11
:100D300070BD000070B586B0044614216846FFF708
:100D4000F4F92568154E012409200021144A640491
:100D50000223C006B5420CD155692543556152693D
:100D6000029122400592DA010193049300920391CB
:100D70000EE00C4EB5420ED15569254355615269BE
:100D80000291224005920422039101930092049162
:100D90006946FFF717FA06B070BD0000002C01404D
:100DA00000100240004001407047F8B50646044676
:100DB0002036307F0D4601280DD0012030770220EB
:100DC00070770427002A08D0042A16D0082A2AD0CF
:100DD0000C2A4DD137E00220F8BD206800F0B0FAAF
:100DE0002068816908221143816120688169B943C3
:100DF0008161206881692A6912E0206800F0E4FAC4
:100E0000206882690121C9020A43826120688169E0
:100E10000122920291438161206881692A6912024C
:100E20001143816124E0206800F00EFB2068C26954
:100E300008210A43C2612068C169B943C1612068C1
:100E4000C1692A6912E0206800F040FB2068C1698E
:100E50000122D2021143C1612068C26901218902C5
:100E60008A43C2612068C1692A6912021143C161C3
:100E70000120707700203077F8BD70B5040005D0F0
:100E800025462035687F002802D006E0012070BD8D
:100E900000202877204600F00AF802206877211DFC
:100EA000206800F0E5F901206877002070BD7047E8
:100EB00000680449884203D103490878401C08703F
:100EC00070470000002C01400000002010B50446CF
:100ED0000068012200F016FA0C482168814208D00F
:100EE0000B48814205D00B48814202D00A4881421A
:100EF00004D1486C0122D203104348642068016881
:100F0000012211430160002010BD0000002C0140AF
:100F100000400140004401400048014010B5026813
:100F20000446002906D0042907D0082926D00C2918
:100F300007D126E0D068022301E0D06804231843DB
:100F4000D0600122206800F0DDF90F48216881425D
:100F500008D00E48814205D00D48814202D00D488C
:100F6000814204D1486C0122D203104348642068B6
:100F70000168012211430160002010BDD0680823E0
:100F8000DDE7D0681023DAE7002C01400040014083
:100F9000004401400048014070477047FEE70000F0
:100FA00000B587B014216846FFF7BFF815484269BD
:100FB000012189050A43426142690A40059242695A
:100FC00049110A43426142690A4005924269890017
:100FD0000A434261406908400590302000900A4869
:100FE00001900020029069460848FFF7EBF80022C4
:100FF00011460720FFF7E0F90720FFF7D3F907B004
:1010000000BD000000100240000011100008004860
:1010100010B594B000240E940F941094119412946F
:101020001C2168461394FFF780F81C2107A8FFF7DE
:101030007CF820481E4901602F21846041600461D2
:1010400044611D498461C160FFF708FD0120000370
:101050000E900EA91748FFF743FD1648FFF70DFF46
:10106000129412A913481394FFF7D4FC6020009047
:101070007D20C0000694019002940394049405948A
:10108000002269460B48FFF790FE012007944003B9
:1010900008940C9009940A940B9407A90D940548A0
:1010A000FFF788FC0348FFF745FE14B010BD0000B1
:1010B000004001404C0000201F4E000010B594B0CD
:1010C00000240E940F941094119412941C216846DD
:1010D0001394FFF72AF81C2107A8FFF726F82048E9
:1010E0001E4901602F2184604160046144611D49F3
:1010F0008461C160FFF7B2FC012000030E900EA9CD
:101100001748FFF7EDFC1648FFF7B7FE129412A937
:1011100013481394FFF77EFC60200090FF2091306D
:101120000694019002940394049405940022694665
:101130000B48FFF73AFE01200794400308940C90F7
:1011400009940A940B9407A90D940548FFF732FC03
:101150000348FFF7EFFD14B010BD0000002C014064
:101160000C000020C3090000704700008307FF2225
:10117000DB0E9A408907090E994000280BDA000718
:10118000000F0838830808489B001818C369934368
:101190000B43C3617047830804489B001B18186801
:1011A000904308431860704700ED00E000E400E061
:1011B0007047704710B5FFF7B7F810BD30B591B064
:1011C00034216846FEF7B1FF002401200F941094EB
:1011D0000090019000040A9000010E9402250B90EB
:1011E0000D9409950C946846FFF7DEF907200D90E1
:1011F0000F9401210E9510940DA8FFF7E1F811B09E
:1012000030BD0000124801680122114301604168AD
:10121000104A1140416001680F4A114001600168A5
:10122000012292049143016041683F2212049143DC
:101230004160C16A09090901C162016B074A114095
:101240000163416B49084900416300218160704797
:10125000001002400CB8FF08FFFFF6FE2CFEFCFF5A
:1012600010B50248FFF7B4FC10BD00000C000020D0
:10127000F0B502681D4B0124A4071D4D984203D010
:10128000A04201D0A84203D17026B2434E68324337
:10129000184E194F98420DD0A0420BD0A84209D049
:1012A000164CA04206D0B04204D0B84202D0144C32
:1012B000A04204D103242402A243CC682243802408
:1012C000A2434C69224302608A68C2620A68826251
:1012D000984206D0B04204D0B84202D0084A9042A8
:1012E00001D10969016301214161F0BD002C014078
:1012F0000004004000400140004401400020004044
:101300000048014010B50123046A8B409C430462ED
:10131000036A8A401343036210BD30B58468FF2519
:101320002D021B021343AC430B432343836030BDA8
:10133000826870239A430A4307210A4382607047F8
:10134000F0B5026A520852000262056A4368826977
:101350007024A24392080C68920014430222954321
:101360008A68164E2A43144DA84207D0B04205D0D1
:10137000134FB84202D0134FB84206D10827BA43E0
:10138000CF681743042297433A46A84207D0B04299
:1013900005D00B4DA84202D00A4DA84206D1032524
:1013A0002D02AB434D691D438B692B434360846120
:1013B000496841630262F0BD002C014000400140D9
:1013C000004401400048014070B5026A10239A436E
:1013D0000262056A4268836973242402A3430C688D
:1013E00024021C4320239D438B681B012B43124D79
:1013F000A84208D11D46CB688026B5431B012B436C
:101400004025AB4308E00D4DA84205D00C4DA84245
:1014100002D00C4DA84208D10325AD02AA434D6964
:10142000AD0015438A6992002A434260846149688D
:101430008163036270BD0000002C01400040014048
:10144000004401400048014070B5026AFF230133A7
:101450009A430262056A4368C2697024A2439208F3
:101460000C68920014430122520295438A681202CA
:101470002A43124DA84208D11546CA68C614B5437E
:1014800012022A430515AA4308E00D4DA84205D0D3
:101490000C4DA84202D00C4DA84208D103252D03C3
:1014A000AB434D692D011D438B691B012B434360E9
:1014B000C4614968C163026270BD0000002C014034
:1014C00000400140004401400048014030B5026A3C
:1014D00001231B039A430262046A4268C3697325AD
:1014E0002D02AB430D682D021D4301235B039C437A
:1014F0008B681B0323430C4CA04208D00B4CA0422A
:1015000005D00B4CA04202D00A4CA04205D10124C8
:10151000A403A2434C69A40122434260C561496807
:101520000164036230BD0000002C01400040014016
:10153000004401400048014030B5036A046A640871
:10154000640004628469F025AC43120122430A243A
:10155000A3430B438261036230BD30B5036A10249C
:10156000A34303628469036A0F252D031203AC436E
:101570002243A024A343090119438261016230BDC3
:1015800002E008C8121F08C1002AFAD1704770474C
:10159000002001E001C1121F002AFBD170470000AA
:1015A000FEF7CAFEFFF70AFEFFF7FAFCFFF786FD1B
:1015B000FFF72EFD00210B48FFF788FC09480021AA
:1015C0004038FFF7ABFC0026074C084D0127607838
:1015D0000028FCD066703220FEF7CCFD2868384326
:1015E0002860F4E74C00002000000020002C01409F
:1015F00000000000000000000102030406070809C3
:1016000020160008000000200C00000080150008D3
:101610002C1600080C00002084040000901500081F
:0C162000000000000000000000127A0032
:04000005080000C12E
:00000001FF
