:020000040800F2
:1000000048270020DD010008EB350008DB2D000843
:10001000E935000863030008C1580008000000002B
:100020000000000000000000000000007937000818
:100030006D0400080000000077370008F501000893
:10004000F7010008F7010008F7010008F7010008B0
:10005000F7010008F7010008F7010008F7010008A0
:10006000F7010008F7010008F7010008F701000890
:10007000A9030008F7010008B5030008F70100080C
:10008000C1030008CD030008F7010008F7010008CC
:10009000F7010008F7010008F7010008F701000860
:1000A000F701000889380008F7010008F701000887
:1000B000F7010008A5380008B1380008F70100086A
:1000C000F7010008F7010008F7010008F701000830
:1000D000F7010008014200080D420008194200081B
:1000E0006F040008F7010008F7010008F701000895
:1000F000F7010008F7010008F7010008F701000800
:10010000F7010008F7010008BD380008F7010008F2
:10011000F7010008F7010008F7010008F7010008DF
:10012000F7010008F7010008D9030008F7010008EB
:10013000F7010008F7010008F7010008F7010008BF
:10014000F7010008F7010008F7010008ED35000885
:10015000F7010008F7010008E5030008F7010008AF
:10016000F7010008F7010008F7010008F70100088F
:10017000F7010008F7010008F7010008000000007F
:10018000F7010008F7010008F7010008F70100086F
:10019000F7010008F7010008F7010008F70100085F
:1001A0000000000000000000F7010008F70100084F
:1001B000F7010008F7010008F7010008F70100083F
:1001C000F7010008F7010008DFF80CD000F08CF808
:1001D0000048004755590008482700200648804736
:1001E00006480047FEE7FEE7FEE7FEE7FEE7FEE71C
:1001F000FEE7FEE7FEE7FEE735380008C901000824
:100200002DE9F05F0546002092469B46884606464B
:10021000814640241BE0284641464746224600F0DE
:1002200053F853465A46C01A914110D31146184606
:10023000224600F03AF82D1A67EB01084F46224695
:100240000120002100F031F817EB00094E41201E7B
:10025000A4F10104DFDC484631462A464346BDE8A6
:10026000F09F40EA01039B0703D009E008C9121F71
:1002700008C0042AFAD203E011F8013B00F8013B60
:10028000521EF9D27047D2B201E000F8012B491E8C
:10029000FBD270470022F6E710B513460A46044623
:1002A0001946FFF7F0FF204610BD202A04DB203A54
:1002B00000FA02F1002070479140C2F1200320FAB9
:1002C00003F3194390407047202A04DB203A21FAB7
:1002D00002F00021704721FA02F3D040C2F120025F
:1002E0009140084319467047064C074D06E0E06808
:1002F00040F0010394E8070098471034AC42F6D36D
:10030000FFF766FF585A0008785A000870B58C1835
:1003100010F8015B15F0070301D110F8013B2A1119
:1003200006D110F8012B03E010F8016B01F8016B06
:100330005B1EF9D12B0705D40023521E0DD401F802
:10034000013BFAE710F8013BCB1A921C03E013F8CB
:10035000015B01F8015B521EF9D5A142D8D3002000
:1003600070BDFEE70020704700207047054900225D
:10037000054810B504F04CF80449034804F042F86D
:10038000002010BD40150020A4080020400D0020D2
:100390000146044810B504F035F8024804F014F89A
:1003A000002010BDA4080020014800F08FB8000014
:1003B000E4070020014800F089B80000440800204C
:1003C000014800F083B8000024070020014800F035
:1003D0007DB8000084070020014800F077B80000D5
:1003E000C4060020014800F071B800006406002037
:1003F00001681823CAB2103AB2FBF3F2054B6FF34F
:100400000901032A9B5CC36500D9091D8165084663
:1004100070470000385A000810B583694FF0C07467
:10042000826A0146002053B1B3F5005F15D072B166
:10043000012A0CD0022A0AD0032A09D104E01AB1F9
:10044000012A06D0022A03D1C96AC90100D50120B8
:1004500010BDC96AA142FAD010BD002AF7D0012A06
:10046000F2D0022AF3D0032AF3D010BD70474FF424
:10047000806010B500F080F94FF4006000F07CF966
:100480004FF4805000F078F94FF4005000F074F908
:100490004FF4804000F070F9BDE810404FF4004088
:1004A00000F06AB9704790F83510022903D0802116
:1004B000416501207047052180F83510006801680A
:1004C00021F0010101600020704700002DE9F84390
:1004D00004464FF00009644B0820CDF800904FF41B
:1004E0001652A56D94F85C101B682E68B3FBF2F7EA
:1004F00000FA01F131420FD021680A6852070BD58A
:100500000A6822F004020A6094F85C108840A8602F
:10051000606D40F00100606594F85C104FF00108D8
:1005200008FA01F0304208D021684969090604D56B
:10053000A860606D40F00200606594F85C100420D3
:100540008840304208D021680968890704D5A8602E
:10055000606D40F00400606594F85C1010208840E5
:10056000304218D021680968090714D5A8602068AE
:100570000168490304D50068000308D5A16C07E0B1
:100580000168C90503D4016821F008010160216CEC
:1005900009B12046884794F85C10202088403042FA
:1005A00031D021680968C9062DD5A86094F83500B6
:1005B00005282068016806D0490347D50068000374
:1005C0001DD4616C1CE021F01601016020684169B6
:1005D00021F080014161206C08B9A06C20B1206835
:1005E000016821F00801016094F85C303F229A40D4
:1005F000AA6084F8349084F83580216D1FE0E16BA7
:1006000009B120468847606D00282BD0606DC00777
:1006100014D0052084F835002068016821F001011C
:1006200001600098401C0090B84203D82068006820
:10063000C007F6D184F8349084F83580E16C002945
:1006400010D001B02046BDE8F04308470168C90555
:10065000D5D4036823F01003036084F8349084F841
:100660003580CCE7BDE8F883980000202DE9F047FD
:10067000044600F07FF9054664B14FF0000984F8A4
:100680003490022184F835102068016821F00101BE
:1006900001600EE00120BDE8F08700BF00F06AF9BC
:1006A000401B052805D920216165032084F8350009
:1006B000F1E720680068C007F0D1D4E90020D4E950
:1006C0000251D4E9043C284304F1180519430843B6
:1006D000116895E8E00140EA0C001C4B28431940E2
:1006E00040EA060040EA0700B8F1040F40EA0100C2
:1006F00003D1D4E90B131943084310602068012685
:10070000656A4069042D20F0070045EA00050CD118
:10071000D4E90A01054341B12046FFF77DFE20B12F
:100720004020606584F83560B4E720684561204664
:10073000FFF75EFE94F85C303F229A408260C4F876
:10074000549084F835600020A5E700003F8010F049
:1007500070B5044600F00EF90546601C02D004484E
:100760000078044400F006F9401BA042FAD370BDA3
:100770008C00002070470000044910B50A6802424E
:1007800002D00860FFF7F6FF10BD0000143C0140E6
:100790002DE9F84FDFF89CE100224FF001084FF0FF
:1007A000030B4FF00F0A00BF0B6808FA02F4234056
:1007B000A34271D14D68022D01D0122D0FD1D50861
:1007C0000E69570700EB8505A9462D6AFF0E0AFA48
:1007D00007FCBE4025EA0C052E43C9F820600F79BE
:1007E000550006680BFA05FC07F0030726EA0C061D
:1007F000AF40374307604E68012E05D0022E03D06C
:10080000112E01D0122E0ED18668CF6826EA0C0672
:10081000AF403743876046680F79A643C7F3001798
:10082000974037434760C4688E6824EA0C04AE40A2
:100830002643C6604C68E40075D53F4C256845F4F6
:1008400080452560246822F00306950704F480445F
:1008500000943A4C2D0F2644D6F80848DFF8E0C043
:100860000AFA05F7604524EA070401D100272EE0C3
:10087000344FB84201D1012729E0334FB84201D1AA
:10088000022724E0314FB84201D103271FE0304F47
:10089000B84202D104271AE045E02E4FB84201D1F8
:1008A000052714E02C4FB84201D106270FE02B4F4B
:1008B000B84201D107270AE0294FB84201D10827E1
:1008C00005E0284FB84201D1092700E00A27AF40D0
:1008D00027437546C6F808784E68DEF80040F603F0
:1008E00024EA030400D51C43124E2C60361D4D68CB
:1008F0003468AD0324EA030400D51C430D4F346073
:1009000008374D683C68ED0224EA030400D51C4317
:10091000084D3C600C354E682C68B60224EA03048E
:1009200000D51C432C60521C102AFFF43DAFBDE8DB
:10093000F88F0000003C0140443802400030014084
:10094000000002400004024000080240000C024087
:10095000001002400014024000180240001C024037
:1009600000200240002402400AB18161704709045E
:10097000FBE7000001488068704700008C00002001
:10098000032010B500F06EF8002000F005F800F02C
:1009900023F8002010BD000070B50D4D04464FF443
:1009A0007A700C4A29781268B0FBF1F0B2FBF0F0D3
:1009B00001F00AFC48B9102C07D200222146501E33
:1009C00000F030F800206C6070BD012070BD0000A8
:1009D0008C000020980000200A4808B5016841F00A
:1009E00080510160006800F0805000900548001DB3
:1009F000016841F480410160006800F4804000908B
:100A000008BD000040380240002809DB410900F021
:100A10001F028900012001F1E0219040C1F800018E
:100A2000704700000E4BF0B41B680D46C3F3022361
:100A3000C3F10706042E00D90426191D072901D287
:100A4000002300E0DB1E012404FA06F19C40491E4D
:100A50002940641E994014402143F0BC04F031BF8A
:100A60000CED00E0064900F0070210B54FF6FF0458
:100A70000868044B204040EA02201843086010BD7B
:100A80000CED00E00000FA0501680123C0F8FC331A
:100A9000002280F8F4238869044A40F000608861ED
:100AA000486D1043486500207047000003000010A7
:100AB00070B5164D0446A1B1012911D12068D0F8B6
:100AC000001E41F00101C0F8001ED4F8000404F03B
:100AD00035F8206A002803D0286840F00600286016
:100AE00070BD206A28B102F049FE286820F0060097
:100AF00028602068D0F8001E21F00101C0F8001E17
:100B0000D4F80004BDE8704003F0BDBF10ED00E074
:100B10000068416200207047F0B503685D6A39B132
:100B20009F6A4C1E00204FF4827605EB17450BE0C0
:100B300045EA0240986210E0471C06EB800053F83B
:100B400000C0F8B205EB1C45A042F5D34FF480700D
:100B500000EB810045EA02421A500020F0BDD0F8B7
:100B6000000403F0FEBEC1EBC10200EB8202D0F82C
:100B70000004926C03F053BEC1EBC10200EB820291
:100B8000D0F80004D2F8082203F0AABED0F800047E
:100B900003F0E9BE01F00F020B0670B5C2EBC20113
:100BA00004464FF001004FF0000504EB810103D52E
:100BB00081F83D003C3103E081F8FD5101F5FE7103
:100BC0000A7094F8BC23012A08D084F8BC0320687A
:100BD00004F03CFA002084F8BC5370BD022070BDC4
:100BE00070B54268044601F00F00904201D901201F
:100BF00070BD01F00F024FF000050B06C2EBC20101
:100C00004FF0010204EB810103D581F83D203C3116
:100C100003E081F8FD5101F5FE718D70087094F8C4
:100C2000BC03012808D084F8BC23206804F0EAFB48
:100C3000002084F8BC5370BD022070BD01F00F018C
:100C4000C1EBC10100EB8100D0F8140270472DE91F
:100C5000F04101F00F0604460D064FF00100C6EB0F
:100C6000C6014FF0000504EB810103D581F83D007A
:100C70003C3103E081F8FD5101F5FE714F788A6047
:100C8000CB700E7007B1CE80022B00D10D7194F89D
:100C9000BC23012A09D084F8BC03206804F02AF997
:100CA000284684F8BC53BDE8F0810220FBE770B50C
:100CB00001F00F050C460026C5EBC50100EB8101D4
:100CC000C1F80822C1E9843681F8FD6181F8FC5140
:100CD00001F5FE710369012B00D10A612207027C34
:100CE000006803D004F0E6FB002070BD04F0D6FAE3
:100CF000FAE770B50D464168044605F00F008842DA
:100D000001D9012070BD29064FF000064FF0010205
:100D100007D5C0EBC00104EB810181F83D203C31D7
:100D200007E0C5EBC50104EB810181F8FD6101F528
:100D3000FE718A70087094F8BC03012807D084F80B
:100D4000BC23206804F08AFB280702D007E00220B9
:100D500070BD217C04F57172206804F027FB00202F
:100D600084F8BC6370BD2DE9F04101F00F050C461D
:100D70000026C5EBC501012700EB81018A64C1E9AA
:100D8000143681F83D7001F83C5F0369012B00D1F6
:100D90000A612207027C006804D004F08BFB00206B
:100DA000BDE8F08104F07AFAF9E700002DE9FC5F74
:100DB00004460068002681464D4604F094FC002855
:100DC0007ED1206804F0BBFC002879D0206804F0B4
:100DD000B6FC800704D52068416901F00201416139
:100DE000206804F0ACFC01034FF0010B04F57170B6
:100DF000009077D5206804F081FCDFF838A407461E
:100E00006EE0F8076AD02068F1B204F090FC8046EA
:100E1000C00707D005EB4611C1F808BB3146204694
:100E200002F0EAFB5FEA087034D5206821690129E5
:100E300000EB4611006C0190D1F8080B10D0FE4B6E
:100E4000019A9A4215D1000403D54FF40040C1F82D
:100E5000080B204600F0F2FA2069012810D014E0B7
:100E6000019A524505D9000403D54FF40040C1F85A
:100E7000080B204600F0E2FA01985045ECD804E057
:100E800020680121009A04F091FA05EB4611082030
:100E9000C1F8080B5FEAC86004D505EB46111020C5
:100EA000C1F8080B5FEA88600FD52069012804D1DA
:100EB00020680121009A04F079FA05EB461101E05F
:100EC000C7E10FE02020C1F8080B5FEA884005D594
:100ED00005EB46114FF40050C1F8080B7F08761C53
:100EE000002F8ED1206804F02AFC40034FF0000A46
:100EF00060D5206804F0FBFB0026074658E0F807A1
:100F000054D02068F1B204F000FC8046C00726D01F
:100F1000D5F8342806F00F0C05EB46130BFA0CF04D
:100F20008243C5F83428C3F808B92069012807D1DD
:100F3000C6EBC60004EB8000D0E9112111448164A6
:100F40002046F1B2FFF70FFE2069012807D136B91C
:100F5000206D20B920680121009A04F027FA5FEA89
:100F6000087004D505EB46110820C1F808095FEAAE
:100F7000C86004D505EB46111020C1F808095FEAE6
:100F8000486004D505EB46114020C1F808095FEA26
:100F9000887004D505EB46110220C1F808095FEA04
:100FA000086003D53146204602F094FB7F08761C8A
:100FB000002FA4D1206804F0C2FB002811DAD5F874
:100FC000040820F00100C5F8040894F8F40301288F
:100FD0003BD0204600F016FA2068416901F000413C
:100FE0004161206804F0ABFB00050BD5D5F808087B
:100FF000C00702D0204600F03DFA2068416901F4A4
:1010000000614161206804F09AFB00010AD5206864
:10101000416901F00061416194F8F403E0B12046B8
:1010200000F028FA206804F08AFBC0046AD5D5F8DD
:10103000040820F00100C5F804082068102104F01D
:1010400033FB00214FF67F3227E00021204684F851
:10105000F4A3FFF72DFDBFE784F8F4B32068406DDB
:101060000121C0F38300C4F8F8032046FFF720FDF8
:10107000D8E700BF05EB4110C0F80829D0F80039C7
:1010800023F40013C0F80039C0F8082BD0F8003B57
:1010900023F40013C0F8003B491C60688842E9D87B
:1010A000D5F81C0840F00110C5F81C08206B60B191
:1010B000D5F8840840F00B00C5F88408D5F844083A
:1010C00040F00B00C5F844080CE0D5F8140842F2D3
:1010D0002B010843C5F81408D5F8100840F00B00A0
:1010E000C5F81008D5F8000820F4FE60C5F800081F
:1010F000217C2068009A04F059F92068416901F4C4
:1011000080514161206804F01AFB800417D52068E3
:1011100003F030FF206804F0D9FA58B30320E060F0
:1011200000F0EEFC227B0146206804F043FB2046E1
:1011300000F052F92068416901F4005141612068D2
:1011400004F0FDFAC00639D52168886920F0100046
:101150008861D9F8207007F00F01C7F34340C1EB55
:10116000C101022804EB810505F5FE7505D00628AE
:1011700015D01EE0C4F80CA0D2E747F6F0710F427C
:1011800017D0C7F30A12E9681746484604F0DBFA9D
:10119000A969E8683944A9613844E86009E0009920
:1011A0000822484604F0CFFAA969C7F30A10084498
:1011B000A8612068816941F010018161206804F014
:1011C000BEFA000707D5204600F020F920684169E3
:1011D00001F008014161206804F0B1FAC00208D5AD
:1011E0002046F1B200F037F82068416901F480111F
:1011F0004161206804F0A3FA800208D52046F1B2CC
:1012000000F02DF82068416901F400114161206867
:1012100004F095FA400007D52046FFF7A0FC2068AF
:10122000416901F080414161206804F088FA40077B
:101230000FD503E00A30544F0A31544F20684568F7
:10124000680702D52046FFF7A1FC206841682943C2
:101250004160BDE8FC9FD0F8000403F0D3BBD0F898
:10126000000403F0D1BB00002DE9F04104008AB076
:1012700004D094F8BD03002520B108E001200AB095
:10128000BDE8F081204684F8BC5300F063F80320E9
:1012900084F8BD03206803F0FBFF04F110016846E9
:1012A00028228846FEF7DDFF94E80F0003F07CFE5D
:1012B0000227E0BB2068002104F053FA0020012639
:1012C00011E000BFC0EBC001421C04EB810181F8BA
:1012D0003D6081F83F504D648D640D6581F83C00A0
:1012E000A1F84200D0B261688142EBD8002011E041
:1012F000C0EBC001421C04EB810181F8FD5181F873
:10130000FF51C1F80452C1F80852C1F8105281F8D7
:10131000FC01D0B261688142EAD828224146684681
:10132000FEF79FFF94E80F0003F0E8FE10B184F889
:10133000BD73A3E7606A84F8385084F8BD63012860
:1013400002D12046FFF7A0FB206803F0CBFE00206F
:1013500095E7000010B586B0044614216846FEF7F4
:1013600099FF2068B0F1A04F30D11948016841F0D1
:101370000101016000680221002200F001000590D7
:1013800003230A244FF4C0508DE81F00114869461A
:10139000FFF7FEF90E48001D016841F08001016071
:1013A000006800F08000059009481430016841F49D
:1013B0008041016000680022114600F480400590E1
:1013C0004320FFF72FFB4320FFF71EFB06B010BDA5
:1013D000303802400000024070B50446C068012564
:1013E00070B1022801D0FFF75DF8D4F80004294657
:1013F00003F05BFBD4F80004BDE8704003F01BBBB6
:101400000025F2E7D0F8000403F03DBBD0F800045B
:1014100003F03FBB10B5044690F8BC0301280BD085
:10142000012084F8381084F8BC03206804F0B0F977
:10143000002084F8BC0310BD022010BDD0F80024A9
:1014400000F57171104603F03CBB10B5044690F8EE
:10145000BC0301280CD0012084F8BC03206803F0F1
:1014600035FE206804F00AF9002084F8BC0310BDA2
:10147000022010BD10B50446D0F8000403F05EFB56
:101480002068D0F8001E41F00101C0F8001E206A5B
:10149000002804D00248016841F00601016010BD37
:1014A00010ED00E01848F8B5016841F08051016086
:1014B0000068164C00F080500090206840F48030A6
:1014C0002060FFF757FA4FF47A76054605E000BF33
:1014D000FFF750FA401BB0420FD86068C003F7D541
:1014E000206840F400302060FFF744FA054606E02B
:1014F000FFF740FA401BB04201D90320F8BD6068F5
:101500008003F5D50020F8BD40380240007000404F
:101510002DE9F84F04460078DFF824944FF00006D8
:101520003746C0070ED0D9F8001021F40001C9F8E1
:101530000010D9F80010626B1143C9F80010606BFD
:1015400000B90126FE4D2068843500030ED5E16BFD
:10155000286820F4401008432860E06BB0F5801F35
:1015600001D010B102E0012600E0012720684FF40D
:10157000800BC0020CD5216C286820F44000084381
:101580002860206C584501D1012601E000B90127EF
:101590002068C10100D50126800666D5E8483830AC
:1015A000016841F0805101600068DFF898A300F005
:1015B00080500090DAF8001041F48071CAF80010F1
:1015C000FFF7D8F9804605E0FFF7D4F9A0EB080053
:1015D00064287DD8DAF80000C005F5D5DFF860830F
:1015E00008F16808D8F8000010F440702AD0218E65
:1015F00001F44071814225D0D8F80010D8F80020BD
:1016000021F4407142F48032C8F80020D8F800205C
:1016100022F48032C8F80020C8F80010D8F8000082
:10162000C0070FD0FFF7A6F9824607E0FFF7A2F93F
:10163000A0EB0A0141F288308142CAD8D8F80000F4
:101640008007F3D5206BC0F3012103297ED0D9F8A0
:10165000001021F4F811C9F80010228ED8F80010FB
:10166000C2F30B021143C8F800102078C00607D55A
:10167000286820F0807028602868A16B08432860E3
:101680002188AF488830490405D5626E016821F48D
:101690004031114301602188090405D5A26E01681B
:1016A00021F44021114301602168C90305D5E26E90
:1016B000016821F44011114301602168890305D5B7
:1016C000226F016821F4400111430160217800E09C
:1016D00016E1490605D5626C016821F0030111434A
:1016E00001602178090605D5A26C016821F00C0182
:1016F000114301602188C90505D5E26C016821F01C
:101700003001114301602188890505D5226D0168EA
:1017100021F0C001114301602188490505D5626DA2
:10172000016821F44071114301602188090505D544
:10173000A26D016821F44061114301602188C90450
:1017400007D5E26D016821F4405100E03EE011430D
:1017500001602188890405D5226E016821F4404189
:10176000114301602168490205D5A26F016821F08B
:1017700080611143016021684FF0006A890209D538
:10178000E26F016821F0006111430160E16F514592
:1017900000D101272168490305D5626F016821F056
:1017A0004071114301602168090206D5D4F88020F8
:1017B000016821F0805111430160DFF88C91012E06
:1017C0000ED02068B0F1007F0AD090E05F4AD9F8CF
:1017D0000030104023F4F8120243C9F800203CE71F
:1017E000D9F800004E4620F08060C9F80000FFF7ED
:1017F000C1F8804606E000BFFFF7BCF8A0EB080088
:1018000064287DD830680001F6D421784C487C30BB
:10181000C90712D0616B81B9237A62680168D0F878
:1018200000C09201C1F3014142EA0142CCF30361DD
:1018300042EA016141EA0371016021680A0303D5AC
:10184000E26BB2F5801F04D0C9021AD5216C59454C
:1018500017D16368016894F80CC002689B01C1F35A
:10186000014143EA0141C2F3027241EA0C6141EADB
:10187000027101602968626A21F01F01521E114342
:1018800029602168C90110D5238A62680168D0F8EF
:1018900000C09201C1F3036142EA034242EA0162DD
:1018A000CCF3027142EA01710160216889010CD513
:1018B0006168228A237B94F808C0890141EA0241C9
:1018C00041EA036141EA0C7101603168B04641F0C0
:1018D00080613160FFF74EF8064604E0FFF74AF8F2
:1018E000801B64286DD8D8F800000001F6D57FB3BE
:1018F000D9F800004E4620F08050C9F8000000E002
:101900005FE0FFF737F8074605E000BFFFF732F862
:10191000C01B642855D83068C0438000F6D50848FD
:10192000216880300A0301D5E26B1AB1C90225D5BE
:10193000216C19BB63690168277E02689B0108E07E
:10194000083802400070004000380240FFFCFF0FE2
:101950003EE0C1F3014143EA0143C2F3027143EAAD
:10196000076242EA0171016029686FF0FF03A26A11
:1019700021F4F85103EB0222114329602168890206
:1019800012D5E16F51450FD1218C636902689C012A
:10199000036844EA0144C2F3036144EA0162C3F309
:1019A000027142EA01710160306840F0805030609D
:1019B000FEF7E0FF044607E0FEF7DCFF001B6428AB
:1019C00002D90320BDE8F88F3068C0438000F3D40B
:1019D0000020F7E72DE9F04705000F4663D0444E9D
:1019E000306800F00F00B84209D2306820F00F00D4
:1019F00038433060306800F00F00B84253D1286897
:101A00003C4C810712D5400703D5206840F4E050D4
:101A100020602878000703D5206840F460402060EB
:101A2000A968206820F0F000084320602878C007EB
:101A30002AD0304968680839012810D0096802287E
:101A400010D0890700292EDA216821F00301014313
:101A50002160FEF78FFF804641F288390DE009686A
:101A60008903EFE78901EDE7FEF784FFA0EB0801AA
:101A7000494502D90320BDE8F0876868216801F074
:101A80000C01B1EB800FEFD1306800F00F00B842CD
:101A90000BD9306820F00F0038433060306800F018
:101AA0000F00B84201D00120E5E72878400705D5AE
:101AB000E968206820F4E050084320602878000797
:101AC00006D52869216821F4604141EAC000206000
:101AD00000F03CF82168084AC1F30311515CC8408A
:101AE000064908600020FEF757FF0020C3E700000A
:101AF000003C024008380240405A0008980000208C
:101B0000014800687047000098000020044905481B
:101B100009680068044AC1F38221515CC8407047DB
:101B20000838024098000020505A0008044905482F
:101B300009680068044AC1F34231515CC8407047EB
:101B40000838024098000020505A0008154910B586
:101B50001548096811F00C0213D04110042A0FD067
:101B6000082A0ED10F4C241F2268236802F03F027E
:101B70005B0207D52068C0F38810A0FB010106E0D6
:101B8000084610BD2168C1F38811A1FB00010023A4
:101B9000FEF736FB2168C1F30141491C4900B0FB47
:101BA000F1F010BD083802400024F400F0B50D46F5
:101BB0001F49204C002887B016464FF000004FF018
:101BC00002020F684FF0030319D047F004070F60BB
:101BD000096801F00401059111020091CDE901208D
:101BE000CDE9033014486946FEF7D2FD206845EA86
:101BF000C60120F078400843206007B0F0BD47F0F0
:101C000001070F60096801F0010105914FF480712F
:101C10000091CDE90120CDE9033008486946FEF77F
:101C2000B7FD2068354320F0EC602843E4E700006E
:101C300030380240083802400008024000000240EC
:101C40002DE9F84F05004FF000076ED02878DFF837
:101C50001C93A9F1040AC007AAF104044CD0D9F8D6
:101C600000104846C1F38101012908D00068C0F383
:101C7000810002280AD1DAF80000400206D5206867
:101C8000800339D568680028DFD035E06868B0F592
:101C9000803F0BD010B1B0F5A02F11D0206820F4F8
:101CA00080302060206820F4802002E0206840F42A
:101CB00080302060686890B1FEF75CFE06460AE05E
:101CC000206840F480202060F0E700BFFEF752FE5D
:101CD000801B642872D820688003F7D50CE0FEF7DB
:101CE00049FE064605E000BFFEF744FE801B64285F
:101CF000F0D820688003F7D42878800742D5D9F837
:101D00000010484611F00C0F08D00068C0F38100A5
:101D100002280BD1DAF80000400207D420688007BF
:101D200018D5E868012800D114E01CE1E868002813
:101D3000206817D040F001002060FEF71BFE064629
:101D400005E000BFFEF716FE801B0228C2D82068FF
:101D50008007F7D52869216821F0F80141EAC00021
:101D600020600FE020F001002060FEF703FE064631
:101D700005E000BFFEF7FEFD801B02281ED820688C
:101D80008007F7D42878000729D5784869696C302E
:101D900000298046016812D041F001010160FEF780
:101DA000E9FD064605E000BFFEF7E4FD801B0228C2
:101DB00004D8D8F800008007F6D510E089E021F0BB
:101DC00001010160FEF7D6FD064604E0FEF7D2FDF4
:101DD000801B02287DD8D8F800008007F6D4287828
:101DE00040076BD5DFF8848108F13808D8F8000087
:101DF000C0000BD4D8F8001041F08051C8F8001092
:101E0000D8F80000012700F0805000905848016881
:101E1000C90512D40168834641F480710160FEF760
:101E2000A9FD064605E000BFFEF7A4FD801B64285F
:101E30004FD8DBF80000C005F6D54C4EA8686836D0
:101E400001280AD008B1052811D0306820F001001F
:101E50003060306820F0040002E0306840F001009B
:101E60003060A868A0B1FEF785FD83460CE03068BD
:101E700040F004003060F0E7FEF77CFDA0EB0B01C2
:101E800041F28830814266D830688007F4D50EE090
:101E9000FEF770FD834607E0FEF76CFDA0EB0B013B
:101EA00041F28830814256D830688007F4D42FB18F
:101EB000D8F8001021F08051C8F80010A869C8B304
:101EC000D9F80010C1F3810102294CD00228206802
:101ED00000E040E020F08070206003D0FEF74AFD73
:101EE00005463BE0FEF746FD064604E0FEF742FDF0
:101EF000801B02282FD820688001F7D4D5E9096219
:101F0000D5E907011B4B570895F82C20084303EB34
:101F1000074343EA8611084340EA026040F000505C
:101F2000CAF80000206840F080702060FEF722FDB3
:101F3000054606E015E000BFFEF71CFD401B022829
:101F400009D820688001F7D50BE000BFFEF712FD2D
:101F5000401B022802D90320BDE8F88F20688001C9
:101F6000F4D40020F8E70120F6E70000083802402A
:101F7000007000400000FFFF2DE9F04104001D4605
:101F800016460F4602D0606F18B108E00120BDE888
:101F9000F081002084F87000204600F0BFFD24206E
:101FA00060672068016821F001010160204601F0AE
:101FB000CDFF0128EBD0606A10B1204601F02AFF66
:101FC000206871050D4A41EA0541836843F4804366
:101FD00083602068836823F400433B438360206868
:101FE000036813400B4303602068016841F001015E
:101FF00001602046BDE8F04101F070BFFFFF00FC2A
:102000002DE9F047040005D094F85D000025A56295
:1020100018B107E00120BDE8F087204684F85C5045
:1020200000F050F8022284F85D204FF4E06320684D
:10203000016821F040010160E068984201D9002167
:1020400001E04FF48051B0F5706F02D0984200D09B
:10205000A5624FF00109266B2EB9984201D922637F
:1020600001E0C4F83090D4E90468D4E90102278B78
:1020700046EA0806A36A104307F40078304326684E
:10208000D4E907C240EA080040EA0C00CC46042725
:10209000104318433060D4F81880666B606AE268B9
:1020A00007EA1847236830433A431043084358600F
:1020B0002068C16921F40061C161256684F85DC0B2
:1020C0000020A8E7F0B587B0074614216846FEF760
:1020D000E1F83F680025364A022434490326354892
:1020E0000523974217D1314A1432176847F48057B5
:1020F0001760126802F4805205920A6842F00102E9
:102100000A600968049301F001010591F0218DE84E
:10211000720069461CE0254ADFF89CC01032674512
:102120001AD1106840F480401060106800F48040BC
:102130000590086840F0020008600868694604934A
:1021400000F0020005904FF430408DE871001B480C
:10215000FEF71EFB07B0F0BD194B9F42FAD1136882
:1021600043F400431360126802F4004205920A68C7
:1021700042F001020A600A6802F0010205920A6850
:1021800042F004020A600968062701F00401059183
:102190004FF400418DE8F2006946FEF7F9FA4FF47A
:1021A000A05069468DE8F1000648D1E7303802407A
:1021B00000300140000002400038004000040240AE
:1021C000003C004000080240401EB0F1807F10B586
:1021D00001D3012010BD4FF0E02460610F21601792
:1021E00003F06FFB0020A0610721216110BD704743
:1021F000704770472DE9F04390F83C20012A42D007
:10220000012280F83C2051F80C4BDFF880804FF021
:10221000000991E8680051E9022723F44073B1F8FE
:102220000CC03B43CF6923F480631343026823F45B
:102230000063234323F4805343EA050323F400534C
:1022400043EA060323F4804343EA07030C3923F4EB
:102250007023424543EA0C4302D00D4CA2420CD1FC
:102260008D8C23F47006D1E9073446EA055121F03C
:102270008071194321F000732343536480F83C902C
:102280000020BDE8F0830220FBE7000000000140D1
:102290000004014070B590F83C20012A24D0134C72
:1022A000012580F83C50022280F83D2002685368E6
:1022B000A242966802D00E4CA24203D14C6823F48D
:1022C000700323430C6823F0700389681C43546037
:1022D000002326F0800602683143916080F83D506B
:1022E00080F83C30184670BD022070BD00000140EF
:1022F0000004014010B5040003D094F83D0010B173
:1023000007E0012010BD002084F83C00204600F0CA
:102310000DF8022084F83D002068211D01F0D4FA58
:10232000012084F83D00002010BD000008B53D49A3
:1023300002683D488A4207D1016841F0010101600D
:10234000006800F0010062E03849B2F1804F11D01E
:10235000374B9A4216D1086840F0020008600868BE
:102360000022114600F0020000901D20FEF75AFBEB
:102370001D2053E0086840F001000860086800F084
:1023800001002DE02B4B9A420ED1086840F004006A
:10239000086008680022114600F0040000901E202A
:1023A000FEF740FB1E2039E0234B9A420ED108680D
:1023B00040F00800086008680022114600F008009C
:1023C00000903220FEF72EFB322027E01B498A4284
:1023D00008D1016841F002010160006800F00200CC
:1023E000009008BD16498A4207D1016841F4803146
:1023F0000160006800F48030F2E712498A42F0D1AF
:10240000016841F400310160006800F40030009080
:10241000002219201146FEF705FB1920BDE80840EF
:10242000FEF7F2BA00000140443802404038024052
:102430000004004000080040000C0040000401407F
:10244000004001400044014070B5044690F83C0053
:10245000012817D0324B012584F83C50022084F823
:102460003D0022689068184020F47F409060086822
:10247000502830D00DDC20284DD005DC98B3102832
:102480003BD148E0022070BD302844D0402834D1F0
:1024900039E0602828D0702806D0B0F5805F2CD0B5
:1024A000B0F5005F29D10AE04A682068D1E902133B
:1024B00001F07DFA2068816841F0770109E04A68FF
:1024C0002068D1E9021301F072FA2068816841F4B2
:1024D0008041816011E0CA684968206801F0F4FB1E
:1024E0002068502107E016E0CA684968206801F0BA
:1024F000FCFB2068602101F063FA002084F83D5065
:1025000084F83C0070BDCA684968206801F0DCFBB3
:1025100020684021EFE7226801461046EBE7000003
:1025200088FFFEFF704770B504460068002501690A
:10253000C943890715D4C168C943890711D4EA1E64
:10254000026101212177206880698007204602D03E
:10255000FFF7E8FF04E000F009F9204600F0B7F9C2
:10256000257720680169C943490717D4C168C94361
:10257000490713D402216FF0040202612177206819
:10258000806910F4407F204602D0FFF7CBFF04E0C3
:1025900000F0ECF8204600F09AF9257720680169F0
:1025A000C943090716D4C168C943090712D40421D5
:1025B0006FF00802026121772068C0698007204619
:1025C00002D0FFF7AFFF04E000F0D0F8204600F0A3
:1025D0007EF9257720680169C943C90617D4C16807
:1025E000C943C90613D408216FF010020261217794
:1025F0002068C06910F4407F204602D0FFF792FFA8
:1026000004E000F0B3F8204600F061F92577206877
:102610000169C943C90708D1C168C943C90704D1C1
:10262000891E0161204600F053F920680169C94301
:10263000090609D4C168C943090605D46FF08001B1
:1026400001612046FFF7D4FD20680169C943C9052F
:1026500009D4C168C943090605D46FF480710161CA
:102660002046FFF7C4FD20680169C943490609D423
:10267000C168C943490605D46FF040010161204695
:1026800000F081F920680169C94389060BD4C1684B
:10269000C943890607D46FF0200101612046BDE8D7
:1026A0007040FFF7A6BD70BD70B586B0044614211A
:1026B0006846FDF7EFFD24680023264E02222449D8
:1026C00001252548B44209D10C6844F010040C607F
:1026D000096801F010010591411534E0B4F1804F13
:1026E00011D01E4E0325B44221D1086840F00400E9
:1026F00008600868694600F00400059040208DE8F5
:102700000D0017480DE0086840F0020008600868F6
:10271000694600F0020005904FF480608DE80D00DE
:102720001048CDE90325FEF733F806B070BD0E4E14
:10273000B442FAD10C6844F010040C60096801F04E
:102740001001059120218DE80E006946E9E700009F
:1027500030380240000001400010024000040140F7
:10276000000802400004024000400140704770B57C
:10277000044690F83C000D4601280ED0012684F84E
:102780003C60022084F83D000C2A45D007DC5AB199
:10279000042A1BD0082A78D12CE0022070BD102A10
:1027A0004ED0142A71D15DE0206801F011F9206843
:1027B000816941F0080181612068816921F004018B
:1027C000816120682A698169114311E0206801F064
:1027D00039F92068816941F400618161206881696B
:1027E00021F48061816120682969826942EA0121BE
:1027F00081614AE0206801F061F92068C16941F017
:102800000801C1612068C16921F00401C16120682B
:102810002A69C169114311E0206801F08BF9206831
:10282000C16941F40061C1612068C16921F480611E
:10283000C16120682969C26942EA0121C16124E0BD
:10284000206801F0A3F92068416D41F0080141655D
:102850002068416D21F00401416520682A69416DBD
:10286000114311E0206801F0BDF92068416D41F489
:10287000006141652068416D21F4806141652068F7
:102880002969426D42EA01214165002084F83D60DA
:1028900084F83C0070BD10B5040003D094F83D00EE
:1028A00010B107E0012010BD002084F83C00204654
:1028B00000F00CF8022084F83D002068211D01F092
:1028C00003F8012084F83D00002010BD70477047D8
:1028D000016841F211130A6A1A4207D10A6A9B1071
:1028E0001A4203D10A6822F001020A60006801213D
:1028F0000A4B0B4A984201D111707047094B98421C
:1029000001D151707047084B984201D191707047C6
:10291000064B9842FBD1D17070470000000C00407C
:102920000000002000080040000400400044014076
:1029300070B5044690F83C00012812D0012584F8B7
:102940003C50022084F83D00204601F077F9002831
:102950004FF0000007D084F83D5084F83C0001207F
:1029600070BD022070BD2168CA6822F04002CA60B2
:102970002168CA6822F48042CA6084F83D5084F815
:102980003C00002070BD7047704700002DE9F04109
:10299000026804460025D0691168936810F00F0F93
:1029A0005BD003F0010601F49077374369D0C70785
:1029B00007D0CF0505D501271762E26F42F001026B
:1029C000E267820708D5DA0706D0276802223A6252
:1029D000E26F42F00402E267420708D5DA0706D048
:1029E000236804221A62E26F42F00202E2670207E1
:1029F0000AD501F02002324306D0236808221A6269
:102A0000E26F42F00802E267E26F002A32D08006ED
:102A100005D5880603D5216E09B12046884721686F
:102A2000E06F8968490601D4000725D5204601F0EA
:102A30007DFA20688168490619D5816821F0400136
:102A40008160E06E98B11A490165E06EFDF72BFDDB
:102A500000280FD0E06E016D06E0830611D58B06CD
:102A60000FD5216E12E02046BDE8F0410847204610
:102A7000FFF78AFFBDE8F0812046FFF785FFE56795
:102A8000F8E7030605D50B0603D5616E0029EAD1E8
:102A9000F0E74006EED54806ECD513682021204625
:102AA00023F0400313606167656600F095F9E1E784
:102AB000193F000810B5040002D0606F10B107E0A4
:102AC000012010BD002084F87000204600F026F898
:102AD000242060672068016821F001010160204620
:102AE00001F034FA0128ECD0606A10B1204601F000
:102AF00091F92068416821F4904141602068816823
:102B000021F02A0181602068016841F00101016023
:102B10002046BDE8104001F0E1B900002DE9F04F7A
:102B200087B0044614216846FDF7B4FB9C48022296
:102B3000DFF874C2032123680025DFF868B2960627
:102B400007154FF0070863454FF040095ED1944BDD
:102B50001433D3F800C04CF0100CC3F800C01B684D
:102B600003F010030593036843F00103036000685A
:102B7000CDE9025100F00100059048026946CDE917
:102B800000025846CDF81080FDF702FEDFF81CA2C7
:102B9000874A5046C0E90357CAF81450CAF818507B
:102BA000CAF81C50CAF820508AE84402CAF82450D7
:102BB000FDF75CFD08B1FDF775FCDFF8F8817C4A94
:102BC0004046C4F868A0CAF83840783AC8F80020EF
:102BD000C0E90165C0E90357C8F81450C8F8185097
:102BE000C8F81C50C8F82050C8F82450FDF73EFD26
:102BF00008B1FDF757FC0022C4F86C80252011466F
:102C0000C8F83840FDF70EFF252062E0DFF8A8C1C4
:102C1000DFF88CA163450AF1100A5FD1DAF800C031
:102C20004CF4003CCAF800C0DAF8003003F400337A
:102C30000593036843F0010303600068CDE9025186
:102C400000F0010005900E206946CDE900025846CB
:102C5000CDF81080FDF79CFDDFF860B14FF480786F
:102C6000574A5846CBF80020C0E90165C0E9035730
:102C7000CBF81450C0E90658CBF82050CBF82450BC
:102C8000FDF7F4FC08B1FDF70DFCDFF838A1C4F83E
:102C90006CB05046CBF83840494AC0E90357CAF8EF
:102CA00014501832C0E90658CAF820508AE8440285
:102CB000CAF82450FDF7DAFC08B1FDF7F3FB002257
:102CC000C4F868A026201146CAF83840FDF7AAFECD
:102CD0002620FDF799FE07B0BDE8F08FDFF8E8C0C9
:102CE0006345F8D1DAF800C04CF4802CCAF800C073
:102CF000DAF8003003F480230593036843F00803F7
:102D000003600068CDE9025100F0080005904FF41F
:102D100040706946CDE900022C48CDF81080FDF7DF
:102D200037FDDFF8ACA04FF48078254A5046603A72
:102D3000CAF80020C0E90165C0E90357CAF8145079
:102D4000C0E90658CAF82050CAF82450FDF78EFC96
:102D500008B1FDF7A7FBDFF87CB0C4F86CA05846BB
:102D6000CAF83840164AC0E90357CBF81450303A35
:102D7000C0E90658CBF820508BE84402CBF8245029
:102D8000FDF774FC08B1FDF78DFB0022C4F868B0B4
:102D900027201146CBF83840FDF744FE272098E75E
:102DA000303802400000024000100140640600205C
:102DB000B8640240C40600200044004024070020FC
:102DC000886002408407002000480040000C024058
:102DD000E4070020440800207047FEE7F0B5002318
:102DE0000A251C463026372711E000BFB5EB107FBF
:102DF00002D906EB107C01E007EB107C01F813C050
:102E000001EB430C00015B1C8CF80140DBB29342E8
:102E1000ECD3F0BD214808B5016841F40011016010
:102E2000016801F400110091016841F48001016022
:102E300000680022114600F4800000900C20FDF78D
:102E4000F1FD0C20FDF7E0FD00220E201146FDF7FC
:102E5000E9FD0E20FDF7D8FD002210201146FDF7F8
:102E6000E1FD1020FDF7D0FD002211201146FDF7F5
:102E7000D9FD1120FDF7C8FD00223A201146FDF7CB
:102E8000D1FD3A20FDF7C0FD002246201146FDF796
:102E9000C9FDBDE808404620FDF7B6BD3038024008
:102EA0002DE9F04786B014216846FDF7F3F9434851
:102EB000016841F010010160016801F01001059105
:102EC000016841F004010160016801F0040105910D
:102ED000016841F080010160016801F08001059105
:102EE000016841F001010160016801F001010591F3
:102EF000016841F002010160016801F002010591E1
:102F0000016841F008010160006840F20F37DFF806
:102F1000B090002200F00800394605904846FDF7C1
:102F200023FDDFF8A0A04FF4806800224146504600
:102F3000FDF71AFD002469464FF4C0400294CDE924
:102F400000044846FDF724FC1F4D4FF4004069463D
:102F50000294CDE900054846FDF71AFC01260097CA
:102F6000CDE90164694648460394FDF711FC4FF42E
:102F7000F8406946CDE9000514480294FDF708FCC5
:102F8000CDF800806946CDE9016450460394FDF711
:102F9000FFFB300202218DE813000D4869460394BF
:102FA0000494FDF7F5FB002228201146FDF73AFDB9
:102FB0002820FDF729FD06B0BDE8F0873038024033
:102FC00000080240000C02400000111000100240F6
:102FD000000002400F484FF4E06330B400210C4D74
:102FE0004FF48274C0E902134FF480220161C0E9FA
:102FF00000540723C0E90512C1610824016241623F
:10300000C0E90A13C0E90C1430BCFEF7F9BF000098
:1030100000300140B80100200F484FF4E06330B4A5
:1030200000210C4D4FF48274C0E902134FF480224A
:103030000161C0E900540723C0E90512C1610824F9
:1030400001624162C0E90A13C0E90C1430BCFEF70A
:10305000D7BF0000003800401C0200200F484FF48A
:10306000E06330B400210C4D4FF48274C0E90213C8
:103070004FF480220161C0E900540723C0E9051222
:10308000C161082401624162C0E90A13C0E90C145D
:1030900030BCFEF7B5BF0000003C004080020020BD
:1030A00030B59FB00024142112A81A941B941C94CC
:1030B0001D94FDF7EFF81C2117940BA81894199490
:1030C000FDF7E8F82C216846FDF7E4F82748284D7D
:1030D000254901606988C0E90114298AC0E90314FF
:1030E00044618461FFF706F94FF480501A901F483D
:1030F0001AA9FFF7A9F91D48FFF7CDFB30210520DC
:10310000CDE91201194812A9FFF712FC174817A9B7
:10311000179418941994FFF7BDF860200B90288A33
:1031200000220BA90E940F9440081094CDE90C04D2
:103130000E481194FFF71BFB4FF4005000940194CC
:1031400001030294CDE9044003940694CDE90741BC
:103150000648694609940A94FFF74CF80348FFF7BC
:10316000A3FA1FB030BD000000000140E4020020BF
:103170000800002030B593B00024142107A80C9457
:103180000D940E940F94FDF785F81C216846109459
:1031900011941294FDF77EF81B484FF080411B4DAF
:1031A0000160A988C0E90114298AC0E90314846177
:1031B000FFF7A0F84FF480500C9013480CA9FFF7CC
:1031C00043F91148FFF767FB20210520CDE90701EE
:1031D0000D4807A9FFF7ACFB0B4810A910941294F7
:1031E000FFF758F860200090288A082269464008B6
:1031F000CDE9010404480494FFF7B9FA0248FFF747
:1032000053FA13B030BD0000240300200800002052
:1032100030B587B01248002410491025009401945D
:103220000294039404940594069401600D498989DD
:103230004160C0E9025404618461FFF75BF8280231
:10324000009007486946FFF7FFF8054804A9049570
:103250000694FFF71FF807B030BD000000040040DF
:10326000640300200800002030B587B01248002415
:103270001049102500940194029403940494059439
:10328000069401600D4949894160C0E90254046116
:103290008461FFF72FF82802009007486946FFF77E
:1032A000D3F8054804A904950694FEF7F3FF07B088
:1032B00030BD000000080040A403002008000020EA
:1032C00030B587B0124800241049102500940194AD
:1032D0000294039404940594069401600D490989AD
:1032E0004160C0E9025404618461FFF703F82802D9
:1032F000009007486946FFF7A7F8054804A9049518
:103300000694FEF7C7FF07B030BD0000000C004078
:10331000E40300200800002030B59FB000241421F1
:1033200012A81A941B941C941D94FCF7B3FF1C2143
:1033300017940BA818941994FCF7ACFF2C2168463D
:10334000FCF7A8FF2748284D254901602988C0E9D6
:103350000114298AC0E9031444618461FEF7CAFF9D
:103360004FF480501A901F481AA9FFF76DF81D48B6
:10337000FFF791FA30210520CDE91201194812A971
:10338000FFF7D6FA174817A9179418941994FEF75F
:1033900081FF60200B90288A00220BA90E940F94C5
:1033A00040081094CDE90C040E481194FFF7DFF9A2
:1033B0004FF400500094019401030294CDE90440BD
:1033C00003940694CDE907410648694609940A9496
:1033D000FEF710FF0348FFF767F91FB030BD00008C
:1033E00000040140240400200800002030B591B002
:1033F0000024142107A80C940D940E940F94FCF74C
:1034000049FF1C216846FCF745FF1948194D17492B
:103410000160E988C0E90114298AC0E903148461C4
:10342000FEF768FF4FF480500C9011480CA9FFF78D
:103430000BF80F48FFF72FFA20210520CDE90701EF
:103440000B4807A9FFF774FA60200090288A002231
:1034500069464008CDE9010405480494FFF787F95F
:103460000348FFF721F911B030BD000000400140D2
:10347000640400200800002070B5154C0020134D96
:103480000C21144B4FF400422560C4E90130E06088
:10349000C4E90401C4E90602206260622046FFF725
:1034A00009FB2068016821F0010101602068416882
:1034B00041F0206141602068016841F00101016034
:1034C0002068016841F48041016070BD0010014036
:1034D000E404002000093D0010B5164C0020144BF8
:1034E0000C214FF4E13223600346C4E90120E0607F
:1034F0000246C4E90401A0610146E0612062606205
:103500002046FEF739FD2068016821F001010160C5
:103510002068416841F0206141602068016841F005
:10352000010101602068016841F48041016010BD23
:10353000004400406405002010B5154C0020134BDA
:103540000C214FF4E1322360C4E90120E060C4E9BA
:103550000401A061E061206260622046FFF7AAFAE0
:103560002068016821F0010101602068416841F094
:10357000206141602068016841F00101016020681C
:10358000016841F48041016010BD00000048004026
:10359000E405002010490022104810B501F018F988
:1035A00008B1FCF77FFF0E490C4801F0EDFA08B1B5
:1035B000FCF778FF0B49094800F01AFF08B1FCF747
:1035C00071FF064801F038FB002803D0BDE8104029
:1035D000FCF768BF10BD00001C000020A4080020FC
:1035E000780100207C000020FEE770470148FDF7CD
:1035F000DDBB0000401D00202DE9F0410E460169B1
:1036000004460068202301294FF40042016C00EBBE
:103610004615D5F8080B08D02C4FB9424FD10104FC
:1036200049D500BFC5F8082B4DE05FEA007CDFF804
:10363000A0C004F5717711D5614503D9000401D507
:10364000C5F8082B2046FDF7F9FE206801213A460F
:1036500001F0ACFE0820C5F8080B34E05FEA806E8C
:1036600002D5C5F8083B2EE010F0280F2BD161459C
:1036700001D90004D6D4D5F8102BC6EBC60004EB54
:103680008000C2F31202D0F804128A1AC0F8142281
:10369000D0F808221144C0F808122046F1B2FDF714
:1036A0006BFA86B9D4F8100268B9206801213A464D
:1036B00001F07CFE07E0800601D5C5F8083B2046F6
:1036C000F1B2FDF759FA0020BDE8F0810A31544FFC
:1036D0000A30544F2DE9F84F0E4605688146C1EB7C
:1036E000C60100EB8104D4E914203C34904202D995
:1036F0000120BDE8F88FA168101A814200D2084667
:10370000C01C05EB461887081BE000BFA268A0EBB1
:10371000010A524500D2924699F810100AF10300AE
:1037200000911FFA8AF3E16887082846F2B202F096
:10373000B5F8E16801EB0A00E060A16901EB0A005D
:10374000A061D8F8180980B2B84205D3D4E90501C0
:10375000814201D20028D9D1D4E90501884208D894
:10376000D5F83418012006F00F0290408143C5F8C7
:1037700034180020BDE7704770470000F0B5B3B0C3
:10378000302121A8FCF786FD14212DA8FCF782FD2D
:1037900084216846FCF77EFD2348016841F0805192
:1037A0000160006800F0805032902048016841F4C8
:1037B00040410160006802251023E903229100F4D2
:1037C00040403290032021908C010920D827CDE978
:1037D0002754CDE92B5001220426CDE92423CDE93D
:1037E000296721A8FEF72CFAFDF75CFEEA024FF4E8
:1037F000A05100242F94CDE930120F20CDE92D05E2
:1038000007212DA8FEF7E6F80948119412941394A5
:103810001F9400906846FDF77BFE00216A0608466B
:10382000FEF7C4F933B0F0BD4038024000700040EC
:10383000C0012000104A30B51048146800210F4B19
:1038400044F470041460083305680D4A0D4C45F0CB
:103850000105056019600368051D1340074A0360F0
:103860000C322C600568E305034C25F480250560C7
:10387000803C1160236030BD88ED00E000380240DC
:10388000FFFFF6FE10300024044810B5FEF74BFE93
:10389000BDE810400248FEF746BE0000E4020020EA
:1038A000A40400200148FEF73EBE0000640300208F
:1038B0000148FEF738BE0000A40300200148FEF7CF
:1038C00032BE0000E4030020F0B5274B4FF0804EDD
:1038D000264D02689842264E264F274C09D0704547
:1038E00007D0A84205D0B04203D0B84201D0A042D0
:1038F00005D1D1F804C022F070024CEA02029842CD
:103900001BD0704519D0A84217D0B04215D0B8428C
:1039100013D0A04211D0194DA8420ED0184DA84284
:103920000BD0184DA84208D0174DA84205D0174D0E
:10393000A84202D0164DA84203D1CD6822F44072AD
:103940002A434D6922F080022A43026098428A6825
:10395000C2620A68826201D0A04201D10969016392
:1039600001214161F0BD0000000001400004004061
:1039700000080040000C00400004014000400140ED
:10398000004401400048014000180040001C004075
:103990000020004010B5046A012301F01F018B4094
:1039A0009C4304628A40016A1143016210BD42EAED
:1039B000032283680A4323F47F410A4382607047ED
:1039C000826822F070020A4342F00701816070476A
:1039D000F0B5026ADFF860C0184F22F00102DFF88C
:1039E00060E00262066A4268836926F002060D689A
:1039F000B8428C6803EA0C0323F0030344EA06048C
:103A000045EA030501D0704505D1CB6824F00804D0
:103A1000234323F00404B84201D0704505D122F4B9
:103A20004076D1E9053233431A43426085614968E3
:103A300041630462F0BD00008FFFFEFF0000014003
:103A400000040140F0B5026A194E1A4C22F010022F
:103A5000DFF864E00262056A4368826925F02005A8
:103A6000D1F808C0A0420F6802EA060222F44072B0
:103A700045EA0C1542EA072201D0704506D1CE680E
:103A800025F0800545EA061525F04005A04201D045
:103A9000704507D1D1E9054623F4406343EA840326
:103AA00043EA860343608261496881630562F0BD31
:103AB000FF8FFFFE0000014000040140F0B5026AE4
:103AC000194F1A4E22F48072DFF864E00262056A30
:103AD0004368C26925F40075D1F808C0B0420C688B
:103AE00002EA070222F0030245EA0C2544EA020436
:103AF00001D0704506D1CF6825F4006242EA072262
:103B000022F48065B04201D0704507D123F44052C1
:103B1000D1E9053642EA031242EA06134360C46162
:103B20004968C1630562F0BD8FFFFEFF00000140E0
:103B300000040140F0B5026A124B114F22F480528A
:103B400098420262046A4268C36924F400548E6891
:103B50000D6803EA070323F4407344EA063443EA9A
:103B6000052302D0084DA84204D14D6922F48042B9
:103B700042EA85124260C361496801640462F0BD93
:103B8000FF8FFFFE0000014000040140F0B5026A13
:103B9000DFF844C022F480320262056A4268446D54
:103BA00025F400350E8960450C4F0B6804EA0704C4
:103BB00045EA064543EA040302D0094CA04204D179
:103BC0004C6922F4803242EA04224260436549682B
:103BD00081650562F0BD0000000001408FFFFEFF1F
:103BE00000040140F0B5026ADFF844C022F48012FC
:103BF0000262046A4268436D24F400140E89604531
:103C00000C4F0D6803EA070344EA065443EA052310
:103C100002D0094DA84204D14D6922F4802242EA23
:103C20008522426043654968C1650462F0BD0000B9
:103C300000000140FF8FFFFE0004014070B5D1E994
:103C4000002304681F4EA56825F070052B43334000
:103C50001A43A2604A6812F00F0F30D11211082ADD
:103C60002DD2DFE802F02C2C2C2C0B2127048A68A3
:103C70000068D1E90313FFF79AFE20E00A68052ADD
:103C800010D00268136A146A24F0010414620268F6
:103C90000C69916921F0F00141EA04119161006819
:103CA00003620CE0012070BD0A690068896800F0B9
:103CB0000BF804E00A690068896800F016F8002033
:103CC00070BD0000F8FFFEFF10B5036A046A23F020
:103CD0000A0324F00104046284690B4324F0F00118
:103CE00041EA02118161036210BD10B5036A23F03D
:103CF000100303628369046A23F4704324F0A00470
:103D000043EA0232826144EA0111016210BD0000FF
:103D10003B4870B541F211140068A510016A2142B8
:103D200006D1016A294203D1016821F00101016035
:103D3000344801220021FFF72DFE31484030A0F128
:103D400080010068426C42F400424264026842F022
:103D5000010202600868016A214206D1016A294213
:103D600003D1016821F001010160274801220021EF
:103D7000FFF710FE254800F180010068426C42F414
:103D800000424264026842F0010202600868016A6F
:103D9000214206D1016A294203D1016821F00101C3
:103DA000016008210122C806FFF7F4FD17484030E2
:103DB0000068416C41F400414164016841F0010236
:103DC0000F490260C0310868016A214206D1016AC8
:103DD000294203D1016821F0010101600C48012250
:103DE0000021FFF7D7FD064880300068416C41F4A0
:103DF00000414164016841F00101016070BD0000B3
:103E0000E40300200004014000000140E40200201F
:103E10000040014090F82410C90706D00168836A69
:103E20004A6822F400321A434A6090F82410890745
:103E300006D50168C36A4A6822F480321A434A6090
:103E400090F82410490706D50168036B4A6822F4EC
:103E500080221A434A6090F82410090706D50168A9
:103E6000436B4A6822F400421A434A6090F82410D7
:103E7000C90606D50168836B8A6822F480521A430A
:103E80008A6090F82410890606D50168C36B8A6899
:103E900022F400521A438A6090F82410490611D582
:103EA0000168036C4A6822F480121A434A60016C6C
:103EB000B1F5801F06D10168436C4A6822F4C00244
:103EC0001A434A6090F82410090606D50168826CEE
:103ED000486820F4002010434860704738B500253A
:103EE0000446C567FCF746FD0346206800680007E6
:103EF0000BD56FF07E400090002220464FF4001159
:103F000000F04EF908B1032038BD2020606784F826
:103F10007050A067002038BD10B5806B0021A0F85C
:103F20005A10A0F85210FEF72FFD10BD10B5016811
:103F3000202200230C6824F490740C6001688C68C3
:103F400024F001048C608267036610BD2DE9F04106
:103F500004468068DFF818C2864F2368D4E904520B
:103F6000E16928431E6800250A438349104306EA95
:103F70000C0606431E604FF400422068E668436862
:103F800023F44053334343602368A669206AD3F87F
:103F900008C030432CF4306606439E602068B84267
:103FA0000AD1086810F0030052D001287BD0022803
:103FB0007AD003286ED186E0704B98420AD1086807
:103FC00010F00C0079D004287BD0082877D00C287A
:103FD00060D178E06A4B98420AD1086810F030004E
:103FE0006BD010286DD0202869D0302852D16AE0DB
:103FF000644B98420AD1086810F0C0005DD0402898
:104000005FD080285BD0C02844D15CE05E4B9842F2
:104010000DD1086810F440704FD0B0F5807F50D0BB
:10402000B0F5007F4BD0B0F5407F33D14BE0574B1C
:1040300098420FD1086810F4406009D0B0F5806F45
:104040003FD0B0F5006F3AD0B0F5406F22D13AE0E2
:10405000012120E04E4B98420DD1086810F44050E9
:104060002BD0B0F5805F2CD0B0F5005F27D0B0F535
:10407000405F0FD127E0474B98420BD1086810F4FE
:1040800040401AD0B0F5804F1BD0904217D0B0F509
:10409000404F18D01021E0694FF6EF76904238D1AA
:1040A00009295DD202E00CE009E006E0DFE801F05A
:1040B0000D1027582A5858582D000021EBE70221EF
:1040C000E9E70421E7E70821E5E7FDF71FFD01E047
:1040D000FDF72CFD0146D4F80400490001EB500126
:1040E000B1FBF0F080B2A0F11001B14238D84FF628
:1040F000F0732168C0F342021840104324E02649BF
:104100006068EBE7FDF722FDE4E760684FF480317B
:10411000E4E7092924D2DFE801F0050819231C236C
:1041200023231F00FDF7F2FC01E0FDF7FFFC014631
:10413000D4F8040001EB5001B1FBF0F080B2A0F123
:104140001001B1420CD82168C8600AE013496068C8
:10415000F0E7FDF7FBFCEAE7606802EB5001EBE7F4
:1041600001250020206660662846BDE8F081000039
:10417000F369FFEF00100140903802400044004016
:1041800000480040004C0040005000400014014036
:1041900000780040007C00400048E8010024F40062
:1041A0002DE9F041984617460E460446069D08E064
:1041B000681C06D0FCF7DEFBA0EB0800A8420BD879
:1041C00055B12068C06936EA000017D00020B84217
:1041D000EED00020BDE8F0812168202000220B688D
:1041E00023F4D0730B6021688B6823F001038B608C
:1041F0006067A067032084F87020EBE70120E6E702
:104200000148FEF7C3BB0000E40400200148FEF7AC
:10421000BDBB0000640500200148FEF7B7BB0000ED
:10422000E40500202DE9F041D0F89832D0F8902232
:10423000DAB101EB8104002500EB8404E6694EB19C
:10424000C1EBC10703EB87035B6CB6FBF3F703FB22
:10425000176323B1C2F814520020BDE8F081002397
:10426000E5611A4600F073FCF6E70220F5E770B549
:10427000D0F89042054600F081FBC4F80C02D5F856
:10428000900248B1D5F8940204F50371C268D4F8DD
:1042900004029047002070BD022070BD70B500265A
:1042A0000446812100F0B2FA002520460121E56292
:1042B00000F0ACFA82212046C4F8585100F0A6FA6A
:1042C000D4F89002256448B1D4F8940204F524741B
:1042D00040688047206801F015FB2560304670BDBE
:1042E00010B5D0E9A44159B194F80002FF2807D0D5
:1042F0008B68214694F801229847FF2084F8000239
:10430000002010BD0A21018000487047A000002055
:104310004321018000487047F000002043210180C4
:1043200000487047AC0000204321018000487047DE
:10433000340100202DE9F04101250446007C0026CF
:104340004FF4007790B3402320460222812100F0F1
:104350005DFB4023E56202222046012100F056FB6E
:10436000082320460322C4F85851822100F04EFB56
:104370004FF40770256401F029FBC4F89002F8B1EE
:104380000546D4F89402006880470020C5F814025E
:10439000C5F81802207CD5F8042298B140232046A5
:1043A000012100F03FFB3046BDE8F081FFE702222B
:1043B0003B468121204600F029FB3B46E562CAE7E7
:1043C0000126F0E73B46EAE710B5D0F8901269B154
:1043D000027C002AD1F8042205D04023012100F0FC
:1043E00021FB002010BD4FF40073F7E7022010BD41
:1043F000002902464FF0020003D04FF00000C2F83F
:1044000094127047D0F89002C0F804120020704750
:10441000D0F89002C0F81022C0F8081200207047AF
:104420002DE9FC4105460C4600200646D5F8907261
:104430008DF80000ADF80400087810F0600122D07B
:1044400020293CD1E288B2B1000608D5D5F8940203
:104450003946836860789847E288394627E0607873
:10446000394687F80002A07987F801022846E288D9
:1044700000F04FF828E0D5F8940200222146836826
:104480006078984720E0607820B10A2809D00B288E
:1044900015D110E095F87402032810D1022201A969
:1044A00005E095F87402032809D1012269462846DF
:1044B00000F049F808E095F87402032804D021467A
:1044C000284600F01BF802263046BDE8FC8110B5F6
:1044D000D0F88C2252689047002010BD13460A463F
:1044E000002110B500F09EFA002010BD13460A46C8
:1044F000002110B500F02BFB002010BD10B580216D
:10450000044600F009FB2046BDE81040002100F001
:1045100003BB10B5C0F848210323C0F86C32134622
:10452000C0F84C210A46002100F07CFA002010BDA2
:104530000521002310B51A46C0F86C12194600F088
:1045400071FA002010BD10B5C2610223C0F86C32B0
:10455000134602620A46002100F0F9FA002010BD5D
:104560000421002310B51A46C0F86C12194600F059
:10457000EEFA002010BD000004A00A46024910B562
:1045800000F0F5F8004810BD400B002043444320E4
:10459000436F6E666967000012200880004870470C
:1045A0004000002004A00A46024910B500F0DFF8E0
:1045B000004810BD400B002043444320496E746501
:1045C000726661636500000004200880004870473F
:1045D0003C00002004A00A46024910B500F0C7F8CC
:1045E000004810BD400B002053544D6963726F6545
:1045F0006C656374726F6E696373000004A00A4691
:10460000024910B500F0B3F8004810BD400B00207F
:1046100053544D3332205669727475616C20436F68
:104620006D506F727400000010B51A2008800B489E
:104630000A490830021F096800681468081809D080
:1046400007490822FEF7CAFB05490422204610311B
:10465000FEF7C4FB0248801E10BD000020F4F01FCE
:10466000620000200C2008800048704754000020A1
:10467000F8B5044648880D46010A06294CD006DCE8
:1046800001290DD0022910D003294FD11BE00729A1
:104690004AD00F294AD1D4F88812207CCA6937E061
:1046A000D4F88812207C0A6832E0207C0226002898
:1046B000D4F88C0205D0C16A684688470146467026
:1046C00041E0816AF8E7C0B206282FD2DFE800F0A7
:1046D00003080D12171CD4F88812207C4A6817E0D2
:1046E000D4F88812207C8A6812E0D4F88812207CE2
:1046F000CA680DE0D4F88812207C0A6908E0D4F872
:104700008812207C4A6903E0D4F88812207C8A69E8
:1047100069469047014616E0207C38B9D4F88C02EF
:10472000416B68468847F5E7207C20B12946204642
:10473000FFF7E4FEF8BDD4F88C02016B68468847A9
:10474000014607204870BDF8000048B1EA8852B120
:10475000824200D902462046ADF80020FFF7F3FE62
:10476000E8880028E6D12046FFF7FAFEF8BD70B5CC
:1047700000284FF000061ED00546344602E0641CB7
:104780006D1CE4B22B78002BF9D1022505EB440413
:1047900014801278731C03258A550024B21CCD5452
:1047A00006E0551C8B54EAB2531C401C8C54DAB200
:1047B0000378002BF5D170BD01004FF0000004D04C
:1047C000012901D0022901D0022070470120704741
:1047D00010B580B1D0F88C3213B10023C0F88C3200
:1047E00009B1C0F888120121027080F8741200F03B
:1047F000C9F8002010BD022010BD10B5D0F89802F5
:10480000FCF7EEF9BDE81040FFF7D6BF10B5D0F8C1
:104810009802FCF7BFF9BDE81040FFF7CDBF70B5B7
:104820001646044649B1D4F88C0242691AB194F88C
:104830007402032850D0022070BDD4F86C320025D9
:1048400004F11400022B03D0042B3AD0C3B33CE094
:10485000D0E90313994207D9C91AC1608AB2314617
:104860002046FFF743FE12E08068B0FBF3F103FB44
:10487000110199B9984211D3D4F8701288420DD21F
:10488000002220461146FFF731FEC4F87052002383
:104890001A461946204600F0C5F816E0D4F88C02F6
:1048A000C16829B194F87402032801D120468847D1
:1048B0008021204600F030F92046FFF739FE04E061
:1048C000FFE78021204600F027F994F878020128BC
:1048D00004D184F8785201E020469047002070BD52
:1048E00070B51546044649B1D4F88C0282691AB1F4
:1048F00094F87402032830D0022070BDD4F86C12F2
:1049000004F5A070032902D005291ED027E0D0E9C4
:1049100003218A420BD9531AC3600846834200D34D
:10492000034629469AB22046FFF7D8FD17E0D4F88F
:104930008C02016929B194F87402032801D1204640
:1049400088472046FFF70CFE09E00020C4F86C02FF
:104950000146204600F0E0F801E0204690470020A4
:1049600070BD0020704710B5012180F87412D0F896
:104970008C22017952689047002010BDD0F898022F
:10498000FCF75CB970B5017839BB154900220223E8
:1049900006254FF0A044C1F80004C0F8981208465C
:1049A000C1E90332C1E906320A624A62CA620A6395
:1049B000C1E90045FCF758FC08B1FBF773FD084856
:1049C0008021FCF7A5F8064840220021FCF7A4F856
:1049D000034880220121FCF79FF8002070BD0000F1
:1049E000401D0020D0F8982201F07F000B06C0EB9C
:1049F000C00002EB800002D590F83E00704790F8AE
:104A0000FE017047002070470020704710B51C461B
:104A1000D0F8980213462246FCF719F9BDE8104079
:104A2000FFF7CABE10B5D0F89802FCF740F9BDE810
:104A30001040FFF7C1BE70B5002204464023114666
:104A4000FFF7E4FF4026C4F85061012533460022F9
:104A500020468021C4F84451FFF7D8FFD4F89012C3
:104A600000206662A56184F87452C4F86C0260602C
:104A7000C4F87C0229B1D4F88C0200214268204697
:104A80009047002070BD90F8751280F874120020D5
:104A9000704710B590F87412032904D1D0F88C1225
:104AA000C96901B18847002010BD0174002070471A
:104AB00010B5D0F89802FCF7ADFCBDE81040FFF748
:104AC0007BBE70B5044600F52070054600F048F83E
:104AD000B4F88632012194F8800210F01F02C4E974
:104AE0009B130AD0012A0DD0022A10D000F08001B9
:104AF000204600F011F8002070BD2946204600F045
:104B0000A0F8F8E72946204600F0CDF9F3E729465A
:104B1000204600F020F9EEE710B5D0F89802FCF737
:104B2000E8F8BDE81040FFF747BE10B5D0F898028E
:104B3000FCF78BFCBDE81040FFF73EBE90F87422F6
:104B4000042180F8752280F874120020704710B597
:104B5000D0F89802FCF707F9BDE81040FFF72CBE2B
:104B60000A7802704A784270CB788A7802EB032286
:104B700042804B790A7902EB032282808A79C979D3
:104B800002EB0121C180704702464FF0000011B1D5
:104B9000C2F88C1270470220704710B5D0F88C22F2
:104BA00002241AB11268904700B90024204610BDB3
:104BB00070B5204D044688780E46C1B2012929708F
:104BC00031D894F8740202280BD003280FD0314654
:104BD0002046FFF793FC29782046BDE87040FFF798
:104BE00076BCD9B16160032084F8740209E071B128
:104BF0006068884212D0C1B22046FFF768FC29786D
:104C000061602046FFF7C9FF02280CD006E00220B1
:104C1000616084F874022046FFF759FC2046BDE825
:104C20007040FFF79DBC31462046BDE87040FFF75D
:104C300065BC00009C00002010B5FFF776FF002047
:104C400010BD2DE9F0410A784FF0000612F0600225
:104C500008D0202A01D0402A70D1D0F88C22926846
:104C600090476DE04B78002201250A2B66D2DFE8E1
:104C700003F0405D6557650805652C29FFF7F8FCD2
:104C80005EE004468888D8B9C888C8B948888028B2
:104C900016D294F8742200F07F07032A10D0394608
:104CA000204684F87672FFF703FF2046FFF758FC92
:104CB0001FB1022084F8740242E084F874523FE08D
:104CC00020463BE0FFF774FF3AE0CB88012B35D15B
:104CD00090F87432012B04D0022B02D0032B2DD17B
:104CE00004E000F108018260012216E00122011DAA
:104CF00013E090F87422012A03D0022A01D0032A7B
:104D00001CD1CA88022A19D1D0F87C12C56009B119
:104D10000321C160022200F10C01FFF714FC0FE037
:104D2000498801290CD1C0F87C5211E090F8743206
:104D3000012B08D0022B06D0032B04D0FFF7DEFB9B
:104D40003046BDE8F08149880129F9D1C0F87C22BC
:104D5000FFF706FCF4E70A462DE9F0410446107817
:104D60000979002710F060030AD0202B01D0402BD6
:104D700050D1D4F88C0211468368204698478FE0C2
:104D8000C0F34110012806D05078D0B301282AD0B2
:104D900003283FD107E0D4F88C02114683682046EF
:104DA000BDE8F041184794F87402022802D00328A5
:104DB00072D10AE071B380296ED02046FFF7ACFEB5
:104DC00080212046FFF7A8FE6AE0508838B931B14B
:104DD000802904D0D08810B92046FFF79DFE2046D8
:104DE000FFF7BEFB5CE094F874020228E2D00328CF
:104DF00052D1508898BB4806F1D02046FFF7FDFC01
:104E0000EDE7FFE794F874020026022803D0032898
:104E100042D112E040E009B180293DD1080601F0FD
:104E20007F0000EB800004EB800101D5143101E02C
:104E300001F5A07102220E602AE0080601F00F00C1
:104E400000EB800004EB80000AD5806920B301F0FC
:104E50007F0000EB800004EB800514350BE01FE0C1
:104E6000D0F84401C0B101F07F0000EB800004EBFA
:104E7000800505F5A07541B1802906D02046FFF7D1
:104E8000B1FD10B10120286000E02E600222294609
:104E90002046FFF758FB03E011462046FFF72EFBA4
:104EA0003846BDE8F08170B5054608780C4610F02C
:104EB000600003D0202801D0402816D195F8740254
:104EC000012803D0022801D003280ED1207901281F
:104ED0000BD8D5F88C02826828469047E1880143B8
:104EE00006D12846FFF73CFB02E02846FFF706FB09
:104EF000002070BD70B54D7801230A78012D1C4C3F
:104F000002F00F0503FA05F3D0F81C5817D000EB98
:104F1000421245EA0343C0F81C38D2F8000B0004E3
:104F20000BD40B89C978D2F8000BC3F30A031843DA
:104F300044EA81410843C2F8000B002070BD9EB2D4
:104F40003543C0F81C5800EB4213D3F800090004A5
:104F5000F3D40D89C978D3F80009C5F30A0589048B
:104F6000284341EA825108432043C3F80009E4E79B
:104F700000800010D0F800196FF30A01C0F8001982
:104F8000D0F80818C1F34101022905D1D0F8001961
:104F900041F00301C0F80019D0F8041841F4807101
:104FA000C0F804180020704770B504460698049DA8
:104FB0000D99012815D0E06840F04000E0602046DF
:104FC00000F028F8A16B41F48031A163012D07D1D5
:104FD000A16841F00601A160A16841F02001A16033
:104FE00070BDA06B01290A4A20F48030A063E068FC
:104FF00000EA0200E060E06820F44010E06003D1C5
:10500000E06840F48010E060204600F003F8DDE73F
:10501000BFFFBDFF0C49012202E0521C8A420BD89F
:105020000369002BF9DA0369012243F001030361EC
:1050300004E0521C8A4201D9032070470369DB0750
:10504000F7D1002070470000400D030030B54C78C8
:1050500001220B78012CD0F83C5803F00F0402FA1F
:1050600004F417D025EA0444C0F83C480978D0F885
:105070001C4801F00F018A4000EB431124EA02436F
:10508000104AC0F81C38D1F8000B1040C1F8000BD2
:10509000002030BDA4B2A543C0F83C580978D0F830
:1050A0001C4801F00F018A4092B29443064A00EB7B
:1050B0004311C0F81C48D1F800091040C1F800099C
:1050C000E6E700000078F3EF007833EC10B5D0F895
:1050D000041821F00201C0F804180320FBF738FB84
:1050E000002010BD10B5D0F8041841F00201C0F83E
:1050F00004180320FBF72CFB002010BD2DE9F04F16
:105100000E4604460021DDE90B2BDDF840800D46FC
:10511000099F084604EB800CCCF80411401C0F28B2
:10512000F8D32046A06BB8F1000F15D040F4001C56
:10513000C4F838C089460846C4F8000E2046D4F8A2
:105140000018012AC4F8001834D0032A32D0D0F84D
:10515000001841F0030111E020F4001CC4F838C02D
:10516000206840F0400CC4F800C0206840F0800C7B
:10517000C4F800C0DEE700BF41F00101C0F800182C
:10518000102100F091FA00B10125204600F07CFAD0
:1051900000B1012548464FF0006C4FF67F334FF0C9
:1051A000904AC4F81098C4F81498C4F81C980021C8
:1051B000994619E0D0F80018002BDFD0DCE700BFDB
:1051C00004EB4112D2F80039002B06DA11B1C2F813
:1051D00000A904E0C4F800C901E0C2F80009C2F85F
:1051E0001009C2F80899491C8E42E9D8002113E041
:1051F00004EB4112D2F8003B002B06DA11B1C2F8E1
:1052000000AB04E0C4F800CB01E0C2F8000BC2F828
:10521000100BC2F8089B491C8E42E9D8D4F810182C
:10522000012F21F480722146C4F8102808D1144BB4
:10523000144AC1F83038D1F830181143C4F8301886
:105240006FF08041A06161611FB9A06940F010005A
:10525000A061A069BBF1000F0B4A40EA0200A06107
:1052600003D0A06940F00800A061B8F1010F03D19C
:10527000A06906490843A0612846BDE8F08F0000F8
:10528000000180000300010000383C800400004061
:10529000816821F0010181600020704770B50B78B2
:1052A0004E78414C0D78012E00EB431320D0D3F8FB
:1052B000100B6FF31200C3F8100BD3F8100B204043
:1052C000C3F8100B486908B188684861D3F8100B1F
:1052D000012A40F40020C3F8100BD3F8100B8A68A1
:1052E000C2F3120240EA0200C3F8100B4FD052E0A2
:1052F0004E69002ED3F8106933D06FF31206C3F84D
:105300001069D3F810692640C3F810694E698C689B
:10531000A64200D94C61D3F8104944F40024C3F8E4
:105320001049D3F810494E69C6F3120654EA060430
:10533000C3F81049012A22D04A694AB10B78D0F843
:105340003428012103F00F0399400A43C0F83428A0
:1053500000EB4510D0F8001941F00441C0F80019E5
:105360001FE02640C3F81069D3F8104944F4002424
:10537000C3F81049D3F810496FF31204D8E709694C
:105380000029E5D000EB4512C2F81419E0E7C8681F
:1053900008B1C3F8140BD3F8000B40F00440C3F875
:1053A000000B002070BD0000FFFF07E010B5144C9B
:1053B000036CA34203D9D0F8003B002B1EDB002373
:1053C000C0F8103B0129D0F8101B41F40021C0F8AF
:1053D000101BD0F8101B41F01801C0F8101BD0F8BA
:1053E000101B41F0C041C0F8101B07D1C0F8142BAE
:1053F000D0F8001B41F08021C0F8001B002010BD38
:105400000A30544F0B784A78012A00EB43100BD036
:10541000D0F8002B22F40012C0F8002BC978032921
:1054200014D0022912D017E0D0F8002922F400127B
:10543000C0F80029C978032901D002290CD1D0F87D
:10544000001941F08051C0F8001905E0D0F8001BA8
:1054500041F08051C0F8001B002070470A784B785B
:10546000D1B2012B00EB421012D0D0F8002B002A51
:1054700006DB29B1D0F8001B21F08041C0F8001BE9
:10548000D0F8001B41F40011C0F8001B0020704749
:10549000D0F80029002A06DB29B1D0F8001921F044
:1054A0008041C0F80019D0F8001941F40011C0F88B
:1054B0000019EBE7F8B50B786FF060464F786E4D4A
:1054C000DCB2012F00EB431326D0D3F8104B6FF35F
:1054D0001204C3F8104BD3F8104B2C40C3F8104BF8
:1054E0004D69002D70D08C68D3F8107B25446D1E5B
:1054F000B5FBF4F4A4B206EAC4452F43C3F8107B0D
:10550000D3F8105B8E686643C6F312042543C3F8D4
:10551000105B012A7ED097E04F6927B3D3F810794A
:105520006FF31207C3F81079D3F810792F40C3F83E
:1055300010794F698D68D3F810C92F447F1EB7FBCF
:10554000F5F506EAC54545EA0C05C3F81059D3F848
:1055500010594E69C6F312063543C3F81059CD7879
:10556000012D10D01BE0D3F810692E40C3F810694C
:10557000D3F8105945F40025C3F81059D3F8105941
:105580006FF3120509E0D3F8105925F0C045C3F8B0
:105590001059D3F8105945F00055C3F81059012A95
:1055A00013D0CB78012B18D04B692BB30E78D0F8E1
:1055B0003438012506F00F06B5402B43C0F83438C7
:1055C000CB78012B09D017E02BE00B69002BF7D02B
:1055D00000EB4415C5F81439F2E7D0F80838DB05BC
:1055E00000EB4413D3F8005902D445F0005501E014
:1055F00045F08055C3F8005900EB4413D3F8004937
:1056000044F00444C3F80049CB78012B32D1009216
:105610008B8A00E014E00A789BB2C96800F03EF97A
:1056200028E08D68D3F8104BC5F312052C43C3F85E
:10563000104BD3F8104B44F40024C3F8104B68E728
:10564000CA680AB1C3F8142BC97801290CD1D0F863
:105650000808C005D3F8000B02D440F0005001E068
:1056600040F08050C3F8000BD3F8000B40F004402A
:10567000C3F8000B0020F8BDFFFF07E0816841F090
:105680000101816000207047064A1021016100215C
:10569000491C914201D9032070470369DB06F7D406
:1056A00000207047400D03002023074A43EA81137E
:1056B00003610021491C914201D90320704703690D
:1056C0009B06F7D400207047400D0300D0F808086F
:1056D00010F0060004D0022803D0062801D00020D4
:1056E000704703207047406900F001007047D0F810
:1056F0001818D0F81C08084080B27047D0F8181865
:10570000D0F81C080840000C704710B5D0F81028DD
:1057100001F00F0300EB4114D0F83418D4F8080955
:10572000D94001F0010142EAC111084010BD00EB6F
:105730004111D1F8081BD0F814080840704741699E
:10574000806908407047D21C00F580509308002201
:1057500010B502E00468521C10C19A42FAD3084600
:1057600010BD10B5C268012922F0C042C26002D04B
:1057700029B1012010BDC16841F0005102E0C168AB
:1057800041F08041C1603220FAF7E2FF002010BDF5
:10579000D0F800284FF4FE6303EA011322F4FE62FE
:1057A000C0F80028D0F800181943C0F800180020ED
:1057B00070470000032A3ED1264A274B0A449A42EA
:1057C00001D20F2138E0254A254B0A449A4201D2E2
:1057D0000E2131E0234A244B0A449A4201D20D2182
:1057E0002AE0224A224B0A449A4201D20C2123E0A9
:1057F000204B214A0B44934201D20B211CE01F4B4A
:105800001F4A0B44934201D20A2115E01D4B1E4A48
:105810000B4493420FD31D4B1D4A0B44934201D2BC
:10582000082109E01B4B1C4A1944914201D207216F
:1058300002E0062100E00921C2684FF4705322F40F
:105840007052C26003EA8123C1681943C16000201D
:1058500070470000405327FF00350C00401E1BFF1F
:1058600040420F0000DC0BFF804F1200808CF9FEDD
:1058700020D6130060B6E5FE60E3160000D3CEFE2E
:1058800040771B00C05BB3FEC091210000CA91FEAF
:1058900020753800E05459FEE09C410010B5029C90
:1058A00064B900EB0230DB1C00229B0800F580503D
:1058B00002E010C90460521C9A42FAD3002010BDC5
:1058C000FEE7090700284FEA116104DB00F1E02040
:1058D00080F80014704700F00F0000F1E02080F81D
:1058E000141D704702E008C8121F08C1002AFAD12F
:1058F00070477047002001E001C1121F002AFBD150
:105900007047000010B5002821D0114B0022001F65
:10591000196803E0814203D80A4649680029F9D191
:1059200052B11368841A9C4204D100681844106074
:10593000104602E0506000E0186039B102680B1AAE
:10594000934203D10B681A4402604968416010BD5C
:10595000B0010020FBF714F8FDF710FFFDF7A0FAE7
:10596000FDF758FAFDF788FDFDF714FEFDF7E4FD9D
:10597000FDF774FBFDF794FBFDF7FCFBFDF748FC1E
:10598000FDF772FCFDF79CFCFDF7C6FCFDF72EFD54
:105990000C4800210C4B0A4A02601022DB8943604C
:1059A000C0E9022101618161FCF7A4FCFDF794FDCF
:1059B000FDF710FBFDF730FBFEF7AAF9FEE700004C
:1059C00000440140A404002008000020F0B50B3082
:1059D000154D20F007010024144A0FE003688B42A4
:1059E0000BD38B4205D95E1A43184768C3E9006799
:1059F00000E04368136002C004E0021D1068002844
:105A0000ECD12046002802D1286808B10020F0BD62
:105A1000064A07481060074A121A22F00702C0E936
:105A2000002401202860D7E7B4010020B001002045
:105A30004C210020482300200006101600061016F6
:105A4000000000000000000001020304060708092E
:105A50000000000001020304785A00080000002042
:105A6000B80100000C030008585B0008B8010020D2
:105A700090250000F4580008811AD7021A6B042BF5
:105A80001B0202343704041399451B08C9041AD5B4
:105A9000041AFD041329461B0879081AA5041A657F
:105AA0000C100B04030904120101020202164083C8
:105AB00004405726020102030114050F0C1C0107C4
:105AC000101721031A1A03136D031B0869041A65C2
:105AD000041A9104193B1182105324F4130A062965
